:100000000C9463070C949B070C949B070C94822917
:100010000C949B070C949B070C949B070C949B07D8
:100020000C949B070C949B070C94B9170C947517B0
:100030000C94C1220C949B070C949B070C949B0777
:100040000C949B070C949B070C949B070C949B07A8
:100050000C949B070C9492180C949B070C949B0790
:100060000C949B070C949B070C949B070C949B0788
:100070000C949B070C949B070C949B070C949B0778
:100080000C949B070C949B070C949B070C949B0768
:100090000C949B070C949B070C949B070C949B0758
:1000A0000C949B070C949B070C949B07000000008A
:1000B0001700150008001A0014002B0000000000B3
:1000C0000A000900070016000400E0000351E300E5
:1000D0000500190006001B001D00E100E0000251B0
:1000E0002C4128624C640000000000000000000069
:1000F0001C0018000C001200130028000000000073
:100100000B000D000E000F0031002C00160A290311
:1001100011001000360037001F02E5002B000251CD
:100120002A4128722974000000000000000000002D
:100130006414271424141F141E0201000000000080
:100140002E022602250221142002010001000100D6
:100150003502261425143414220201000100010086
:10016000000001000100000000000000000000008D
:10017000640064022D143802370201000000000000
:100180002D00380024023102360201000100010076
:10019000230227022D022214201401000100010075
:1001A000000001000100000000000000000000004D
:1001B0003800260025002400240201000000000071
:1001C0002D00230022002100310201000100010066
:1001D000270020001F001E00000001000100010098
:1001E000010001000100000000000000000000000C
:1001F0000000000052000000000049000000000064
:100200000000500051004F0000004A0000000000B4
:1002100000003000340033002F004D0001000000CA
:1002200001000100010000000000000000000000CB
:1002300000004500440043004200010000000000AF
:100240000000410040003F003E00010000000100AE
:1002500000003D003C003B003A00010001000100AD
:10026000010001000100000000000000000000008B
:1002700000007000710072007300010000000000B7
:1002800000006C006D006E006F00010001000100B5
:100290000000680069006A006B00010001000100B5
:1002A00001000100010000000000000000DA1281DE
:1002B000FFD9F1DB20A4A62EAF00A0C000A1C8008A
:1002C000AED580A83FD300408D1420000000000070
:1002D0000000000000000000008080C0E0F07078A6
:1002E000383C1C1E0E0E0E070707070707070707F7
:1002F000070707070707070E0E0E1E1C3C3878700D
:10030000F0E0C0808000000000000000000000005D
:1003100000000000000000000000000000000000DD
:1003200000000000000000000000000000000000CD
:1003300000000000000000000000000000000000BD
:1003400000000000000000000000000000000000AD
:10035000000000C0E0F07C3E1F0F07030180C0E0FA
:10036000F078383C1C1E0E0E070787E77F1FFFFF43
:100370001F7FE78707070E0E1E1C3C3878F0E0C091
:10038000800103070F1F3E7CF0E0C000000000006A
:10039000000000000000000000000000000000005D
:1003A000000000000000000000000000000000004D
:1003B000000000000000000000000000000000003D
:1003C000000000000000000000000000000000002D
:1003D000F0FCFF1F07010000C0F0FCFEFFF7F3B1C7
:1003E000B03030303030303078FE87010000FFFF11
:1003F00000000187FE7830303030303030B0B1F35B
:10040000F7FFFEFCF0C0000001071FFFFCF000003A
:1004100000000000000000000000000000000000DC
:1004200000000000000000000000000000000000CC
:1004300000000000000000000000000000000000BC
:10044000000000000000000000000000000000FFAD
:10045000FFFF0000000000FEFFFF0101071E78E122
:1004600081838386868C8C9898B1B7FEF8E0FFFF75
:10047000E0F8FEB7B198988C8C8686838381E1780A
:100480001E070101FFFFFE0000000000FFFFFF004C
:10049000000000FFFF0000C0C030300000F0F0009E
:1004A0000000000000F0F00000F0F0C0C03030307C
:1004B00030C0C000003030F3F30000000000003016
:1004C0003030303030C0C00000000000000000FFBD
:1004D000FFFF00000000007FFFFF8080E0781E87A4
:1004E00081C1C16161313119198DED7F1F07FFFF96
:1004F000071F7FED8D191931316161C1C181871EDF
:1005000078E08080FFFF7F0000000000FFFFFF0019
:100510000000003F3F03030C0C30300000000033AC
:1005200033333333330F0F00003F3F000000000030
:10053000000000000030303F3F303000000C0C3332
:1005400033333333333F3F0000000000000000002E
:100550000F3FFFF8E0800000030F3F7FFFEFCF8DDC
:100560000D0C0C0C0C0C0C0C1E7FE1800000FFFF2E
:10057000000080E17F1E0C0C0C0C0C0C0C0D8DCFC0
:10058000EFFF7F3F0F03000080E0F8FF3F0F000008
:10059000000000000000000000000000000000005B
:1005A000000000000000000000000000000000004B
:1005B000000000000000000000000000000000003B
:1005C000000000000000000000000000000000002B
:1005D00000000003070F3E7CF8F0E0C08001030735
:1005E0000F1E1C3C38787070E0E0E1E7FEF8FFFF7A
:1005F000F8FEE7E1E0E0707078383C1C1E0F07035E
:100600000180C0E0F0F87C3E0F070300000000000E
:1006100000000000000000000000000000000000DA
:1006200000000000000000000000000000000000CA
:1006300000000000000000000000000000000000BA
:1006400000000000000000000000000000000000AA
:10065000000000000000000000010103070F0E1E53
:100660001C3C3878707070E0E0E0E0E0E0E0E0E052
:10067000E0E0E0E0E0E0E070707078383C1C1E0ED6
:100680000F0703010100000000000000000000004F
:10069000000000000000000000000000000000005A
:1006A000000000000000000000000000000000004A
:1006B000000000000000000000000000000000003A
:1006C00000000000000000000000000020202020AA
:1006D000202020005343524C434B20002020202058
:1006E000202020004341504C434B2000202020205C
:1006F000202020004E554D4C434B2000556E646524
:1007000066696E65640A0041646A7573740A00461E
:10071000756E6374696F6E0A0053796D0A004E61DD
:10072000760A00436F6C656D616B2D44480A004486
:10073000766F72616B0A005157455254590A004C4A
:10074000617965723A2000726576310A0A004B7948
:100750007269612000808182838485868788898A86
:100760008B8C8D8E8F9091929394A0A1A2A3A4A51F
:10077000A6A7A8A9AAABACADAEAFB0B1B2B3B4C096
:10078000C1C2C3C4C5C6C7C8C9CACBCCCDCECFD0E1
:10079000D1D2D3D400000101010101010101010204
:1007A0000202020202020202030303030303030321
:1007B00004040404040404050505050506060606EC
:1007C00006070707070708080808090909090A0AA8
:1007D0000A0B0B0B0C0C0C0D0D0D0E0E0E0F0F0F4C
:1007E00010101111111212131314141515161617D7
:1007F00017181819191A1A1B1B1C1D1D1E1E1F2045
:1008000020212222232424252626272829292A2B91
:100810002C2D2D2E2F3031323233343536373839B6
:100820003A3B3C3D3E3F40414243444546474849B0
:100830004A4C4D4E4F50515354555658595A5B5D82
:100840005E5F616264656668696B6C6D6F70727320
:100850007577787A7B7D7E8082838587888A8C8E87
:100860008F91939596989A9C9EA0A2A3A5A7A9ABB9
:10087000ADAFB1B3B5B7BABCBEC0C2C4C6C9CBCDAB
:10088000CFD1D4D6D8DBDDDFE2E4E7E9EBEEF0F35D
:10089000F5F8FAFDFF00AF00AE05010980A1018562
:1008A0000319012AB700150126B7009501751081BB
:1008B00000C0050C0901A101850419012AA0021537
:1008C0000126A002950175108100C005010906A14D
:1008D00001050719E029E715002501950875018133
:1008E000029501750881010507190029FF150026E9
:1008F000FF00950675088100050819012905950571
:1009000075019102950175039101C009023B000236
:100910000100A0FA090400000103010100092111EE
:1009200001000122400007058103080001090401BC
:10093000000103000000092111010001223200071B
:1009400005820320000112010002000000081D8D35
:100950009D9D01000102000116034B007900720009
:10096000690061002000720065007600310000001F
:100970001003730070006C00690074006B0062006B
:1009800000000403090407087F0807003E5B4F5B73
:100990003E003E6B4F6B3E001C3E7C3E1C00183CF4
:1009A0007E3C18001C577D571C001C5E7F5E1C009F
:1009B00000183C180000FFE7C3E7FF0000182418E8
:1009C0000000FFE7DBE7FF0030483A060E0026296B
:1009D00079292600407F05050700407F05253F0057
:1009E0005A3CE73C5A007F3E1C1C0800081C1C3E79
:1009F0007F0014227F2214005F5F005F5F00060902
:100A00007F017F00006689956A0060606060600019
:100A100094A2FFA2940008047E04080010207E2007
:100A2000100008082A1C0800081C2A0808001E10CC
:100A3000101010000C1E0C1E0C0030383E38300018
:100A4000060E3E0E060000000000000000005F00E1
:100A50000000000700070000147F147F1400242A00
:100A60007F2A120023130864620036495620500082
:100A7000000807030000001C224100000041221C66
:100A800000002A1C7F1C2A0008083E08080000807D
:100A900070300000080808080800000060600000CE
:100AA0002010080402003E5149453E0000427F40AC
:100AB00000007249494946002141494D330018144C
:100AC000127F10002745454539003C4A494931000D
:100AD000412111090700364949493600464949294B
:100AE0001E00000014000000004034000000000858
:100AF000142241001414141414000041221408009C
:100B00000201590906003E415D594E007C12111246
:100B10007C007F49494936003E41414122007F41E6
:100B200041413E007F49494941007F0909090100CF
:100B30003E41415173007F0808087F0000417F411A
:100B400000002040413F01007F08142241007F4007
:100B5000404040007F021C027F007F0408107F009D
:100B60003E4141413E007F09090906003E415121B5
:100B70005E007F09192946002649494932000301D0
:100B80007F0103003F4040403F001F2040201F00E6
:100B90003F4038403F0063140814630003047804A6
:100BA00003006159494D4300007F41414100020467
:100BB00008102000004141417F00040201020400AE
:100BC0004040404040000003070800002054547893
:100BD00040007F28444438003844444428003844C6
:100BE00044287F0038545454180000087E0902003D
:100BF00018A4A49C78007F080404780000447D4079
:100C000000002040403D00007F10284400000041CB
:100C10007F4000007C04780478007C08040478009D
:100C2000384444443800FC1824241800182424189C
:100C3000FC007C08040408004854545424000404B4
:100C40003F4424003C4040207C001C2040201C00ED
:100C50003C4030403C004428102844004C90909088
:100C60007C004464544C44000008364100000000FD
:100C70007700000000413608000002010204020073
:100C80003C2623263C00000000000000404040F0CD
:100C9000F8F8FF38FFF8F83FF8F8FF38FFF8F8F0F9
:100CA00040404000000000000080C0C0C080000044
:100CB000C0C08000000080C0C000C0C0000080C074
:100CC000C00000000000C0C0C0C0C000C0C0000024
:100CD0000000000000000000000000000000000014
:100CE0000000000000000000000000000000000004
:100CF00000000000000000000000000000000000F4
:100D00000000000000C0F0F8FC3E1E0601000000DC
:100D10007F4141417F007F4141417F000080C0E031
:100D20007E5B4F5BFEC00000C000DCD7DEDEDED79E
:100D3000DC00C00000000000000000000000000017
:100D4000000000000000000000000000494949FFC9
:100D5000FFFFFFE0DFBFBF00BFBFDFE0FFFFFFFF20
:100D600049494900000000001F3F6060E0BF1F00CC
:100D70007F7F071E381E077F7F007F7F0E1F3B711E
:100D80006000000000007F7F0C0C0C007E7E007F66
:100D90007E0303007F7E03037E7E03037F7E000FBE
:100DA0003E703C063C703E0F00327B49493F7E005E
:100DB0007F7E0303001E3F69696F2600000000006C
:100DC0000000000000030F1F3F3C7870600000002F
:100DD0007F4141417F007F4141417F00307B7F78EF
:100DE00030202030787F3B0003000F7F0F0F0F7FF4
:100DF0000F000300000000000000000000000000E1
:100E000000000000000000000000000001010107D8
:100E10000F0F7F0F7F0F0F7E0F0F7F0F7F0F0F07BB
:100E200001010100000000000000000000010100BD
:100E300000000000000000000000000000000000B2
:100E400000000000000000000000000000000000A2
:100E50000000000000000000000000000000000092
:100E60000000000000000000000000000000000082
:100E70000000000000000000000000000000000072
:100E80000000000000000000000000000000000062
:100E90000000000000000000000000000000000052
:100EA0000000000000000000000000000000000042
:100EB0000000000000000000000000000000000032
:100EC00000000000000011241FBECFEFDAE0DEBFFB
:100ED000CDBF04B603FE18C0809151079091520710
:100EE000A0915307B09154078730904BA740B04B67
:100EF00059F4109251071092520710925307109212
:100F00005407E0E0F8E3099511E0A0E0B1E0EAE27F
:100F1000F7E502C005900D92A63BB107D9F727E08F
:100F2000A6EBB1E001C01D92A135B207E1F70E9426
:100F3000E8220C94762B0C940000E8EDF0E0808120
:100F40008E7F80831092E2001092DA001092E1000E
:100F5000A0EEB0E08C9181608C9380818F7780834C
:100F600019BCA7EDB0E08C918E7F8C9380818F7E31
:100F7000808310922C0308952091E4003091E500C5
:100F800095E6A9012091EC00822F817020FF06C018
:100F90008091E80080FF06C080E008952091E8007D
:100FA00022FD1AC080913903882389F0853089F0A9
:100FB0008091EB0085FD0FC02091E4003091E500A9
:100FC00042175307F9F29150E1F684E0089582E068
:100FD000089583E0089581E00895EF92FF920F93C2
:100FE0001F93CF937C018B010E94BC07C82F8111F6
:100FF00017C08091E80085FD0BC08091E8008E77D6
:101000008093E8000E94BC07882399F3C82F08C08A
:10101000F70181917F018093F1000150110949F797
:101020008C2FCF911F910F91FF90EF900895809199
:101030003B0387FF13C08091E80082FF06C08091C8
:10104000E8008B778093E80004C080913903811118
:10105000F2CF0895809139038823D9F38091E80075
:1010600080FFF8CF8091E8008E77ECCF982F909397
:10107000E900242F762F50E0891731F07091EC00B1
:101080002091ED005091F00021FD07C09F5F973047
:1010900071F78093E90081E008953091EB003E7F85
:1010A0003093EB003091ED003D7F3093ED003091B7
:1010B000EB0031603093EB007093EC002093ED0077
:1010C0005093F0002091EE0027FDE0CF80E00895DE
:1010D000B0E0A0E0EEE6F8E00C94BC2AC8EDD0E069
:1010E00088818F7E8883E7EDF0E080818160808356
:1010F00084E082BF81E080932C0388818E7F888387
:1011000002EE10E0F80110821092DA0081EEC82E93
:10111000D12CF601108288818F778883888180683E
:10112000888388818F7D888319BC1092390310923F
:101130003A03109238031092370390EEE92EF12C07
:10114000F70180818B7F808388818160888342E082
:1011500060E080E00E943608F60180818E7F808307
:10116000F801808181608083808188608083F701BD
:1011700080818E7F8083888180618883CDB7DEB750
:10118000E8E00C94D82AFC0180914103909142033D
:1011900086179707A0F06115710529F49091E80072
:1011A0009E779093E80090E06115710551F49111DC
:1011B00008C08091E80082FF34C080E00895BC013F
:1011C000F2CF809139038823C1F18530C1F180913C
:1011D000E80083FD30C08091E80082FDEACF809175
:1011E000E80080FFE1CF8091F3002091F200382FDA
:1011F0006115710519F02830310558F091E028305B
:10120000310509F090E02091E8002E772093E80066
:10121000CBCF81918093F100615071092F5F3F4FD7
:10122000E7CF80913903882341F0853041F08091E8
:10123000E80083FFBECF81E0089582E0089583E057
:1012400008950895089580912E0308952FB7F89476
:1012500060912503709126038091270390912803C4
:101260002FBF08959C01FC0132969FEF80E04191D1
:10127000461751F09F3F19F4411101C0982F8F5F1D
:101280008630A9F79F3F09F40895290F311D97FD76
:101290003A95F90162830895209122033091230346
:1012A0002817390771F09093230380932203E0916C
:1012B0002003F0912103309721F00084F185E02D87
:1012C0000995089520911E0330911F0328173907AF
:1012D00071F090931F0380931E03E0912003F0911F
:1012E0002103309721F00680F781E02D09950895BC
:1012F000FC01680F791F8FEF91E32191822728E08D
:1013000030E087FF09C0880F892721503109C9F7CC
:10131000E617F70791F70895880FF7CFFA018111C3
:1013200001C0FB010995089580911303982F9E7FBA
:1013300039F48091130381708260809313030895C0
:101340008430B8F7089580E00895F894E82FE29586
:10135000EF70F0E031A1282F2F7081E090E001C004
:10136000880F2A95EAF7982F9095932391A392A13D
:10137000892B82A37894089590916B0292FF06C006
:10138000282F28712830F9F4877F846093FF06C0E6
:10139000282F28712831F1F4877E846120916C0216
:1013A00020FF06C0382F38713830D9F4877F81602C
:1013B00021FF06C0282F28712831D1F4877E816152
:1013C00094FD877E0895282F24712430F9F68B7FB1
:1013D0008860DCCF282F2471243101F78B7E88614F
:1013E000DDCF382F3171313019F78E7F8860E0CF33
:1013F000282F2171213121F78E7E8861E1CF78304D
:10140000B0F46830A0F498E0899FF0011124E70F50
:10141000F11D83E0EE0FFF1F8A95E1F7E60FF11D46
:10142000EE0FFF1FE455FF4F85919491089580E0E2
:1014300090E00895CF93DF93EC0182389105B1F1EC
:1014400008F040C08133910509F49DC048F5893208
:10145000910509F48DC08A9709F49CC0C11522E555
:10146000D20708F0BDC0C11531E5D30708F024C18B
:10147000C83ED10508F0A3C0C13ED10588F5C83AE1
:10148000D10508F08EC0C53AD10508F0F6C0C130CC
:10149000D10531F1209721F1C430D10508F545C0BF
:1014A0008533910509F45FC0C997C1F680916B023D
:1014B000837009F036C180916C0283FF11C0C9E2CC
:1014C000D0E00EC0833E910599F170F4803E910505
:1014D00001F1823E910511F680916B0282FD21C0DF
:1014E000CE01DF91CF910895863E910561F1873E4F
:1014F000910571F1843E910509F0B0CF80916C02A5
:1015000081FFEECF80916B02C7EED0E084FD0DC06D
:10151000E7CF80916B0280FD33C090916C0290FF09
:10152000DFCFC3EED0E084FFDBCFD0E0C0E0D8CF88
:1015300080916B0282FDF2C090916C0290FDF1C02F
:1015400084FFCECFF2CF80916B0283FDDDCFC8CF79
:1015500080916B0283FDE8C090916C0291FFF0CF07
:10156000C4EED0E0BDCF80916B0285FFB9CFA7CF8D
:1015700080916B0285FDDBC080916C0283FFB0CF50
:10158000C9E3D0E0ADCF80916B0286FFA9CFCAE25C
:10159000D0E0A6CF80916B0286FFA2CFC1E3D0E05E
:1015A0009FCFCF3BD10508F6C85AD0E0CC0FDD1F46
:1015B000C95ADE4F0990D881C02DD46491CFC1158E
:1015C00040E5D40708F064C0C11580E4D80708F0EE
:1015D0005CC0CE019A9581159F4108F481CFA5CFBB
:1015E000C11536E5D30718F5C11545E5D40708F050
:1015F0007CC0C11584E5D80708F072C09E01237035
:1016000033279C2F96959695C115D34508F459C05C
:10161000C1E0D0E002C0CC0FDD1F2A95E2F730E236
:10162000939FC0011124C82BD92BDA6859CFC1155B
:101630008AE5D80778F4C11529E5D20708F060C01B
:10164000C11538E5D30708F470CFDC2FCC27C06F65
:10165000D06A46CFCE0190568115904208F065CFF2
:101660008D2F8F710E94BC0990E0982F88278827C2
:101670009F719C012C2BE90141C0C55AD0E0CC5A86
:10168000DE4FC881D0E0D0642BCFDF70D06A28CF86
:10169000CE018370992721E030E002C0220F331F72
:1016A0008A95E2F7C695C69580E2C89FE0011124AD
:1016B000C22BD32BDD6814CFDC2FCC27C16FD06AAF
:1016C0000FCFC1E0D0E002C0CC0FDD1F2A95E2F7BA
:1016D00020E2929FC0011124C82BD92BDC6800CFD7
:1016E000DC2FCC27C46FD06AFBCE8C2F0E94BC09A4
:1016F000C82FD0E0DC2FCC27CC27DF71D062F0CE12
:101700008C2F8F700E94BC0934E0D695C7953A950E
:10171000E1F7CF709C2FEC01D069E2CEC2EED0E0B1
:10172000DFCEC0EED0E0DCCEC6EED0E0D9CEC5E351
:10173000D0E0D6CE0E94260908958091240281111E
:1017400010922402089580959091230298239093FB
:1017500023020895809118029091E701981301C027
:1017600008958F5F8770FACFB0E0A0E0EAEBFBE06E
:101770000C94BB2A7C0100918D0210918E02809105
:101780008B0290918C02082B192BCFE0D0E0CC2457
:10179000C394D12CBC2EC6010C2E02C0880F991FF9
:1017A0000A94E2F780239123892B49F4219790F73B
:1017B000B12C8B2DCDB7DEB7E9E00C94D72AB70159
:1017C0008C2F0E94FF090E941A0A019779F3F1CF2A
:1017D000CF93DF93EC010E94B40BBE010E94FF097E
:1017E0000E941A0ADF91CF910895983070F58830E1
:1017F00060F528E0929FF0011124E80FF11D6E2F93
:10180000677083E0F695E7958A95E1F7EE0FFF1F85
:10181000EE0FFF1FEF53FE4F50E040E080E02191BC
:1018200030E0062E02C0369527950A94E2F7217023
:101830003327042E01C0220F0A94EAF7822B4F5F50
:101840005F4F4430510559F7089580E0089598306E
:1018500090F5883080F528E0929FF0011124E80F80
:10186000F11D2E2F277041E001C0440F2A95EAF7A1
:1018700083E0F695E7958A95E1F7EE0FFF1FEE0FEF
:10188000FF1FEF53FE4F30E020E070E05191DF0189
:101890001197CB01022E02C0969587950A94E2F724
:1018A000817081958527842385278C932F5F3F4FF7
:1018B0002430310559F70895FC0183819481892BE7
:1018C00029F08081918189238F3F51F480E0089530
:1018D000843FE1F717C0883EA8F0813FB9F712C0F6
:1018E000808191810E94E80B92959F70963099F3C8
:1018F00058F4925F9F70923048F7803F19F040F79C
:10190000883E20F781E008959A5FF4CFCF93DF936C
:10191000C0914F07D09150078A30C1F420914603FF
:10192000CE0189549340622F70E00E949E2A281BAA
:10193000822F66E00E94E92AC82FC15018F4DF9177
:10194000CF91089580E20E94860CF7CF8D30E9F4A4
:10195000C954D34020914603622F70E0CE010E940B
:101960009E2A281B822F9E01280F311D21153440ED
:1019700018F080E0D0E0C0E0C80FD11DC75BDC4F9D
:10198000D0935007C0934F07DACF96E0FE01A9E449
:10199000B7E001900D929A95E1F7803E08F458C0A7
:1019A00086E0FE0111928A95E9F7C0914F07D09128
:1019B000500746E050E0BE0189E497E00E94182BF2
:1019C0009E0129543340892B41F1C90146E0969587
:1019D00087954A95E1F741E050E0BA0102C0660FF1
:1019E000771F8A95E2F7CB01609147037091480316
:1019F000862B972BB9016B5F7F4FE6E07695679555
:101A0000EA95E1F702C0440F551F6A95E2F7842B6F
:101A1000952B90934803809347032A5F3F4F409153
:101A20004603642F70E0C9010E949E2A481B46307D
:101A300010F4240F311D211574E0370710F030E049
:101A400020E0275B3C4F3093500720934F0777CF20
:101A5000F6E08F9FB00111246A57764F46E050E0C0
:101A6000CE010E940F2BA1CFCF93DF93EC01FE019B
:101A70008491811103C0DF91CF9108950E94860C5B
:101A80002196F5CF8091230290912202892B809399
:101A9000B80190912402992391F0892B8093B80189
:101AA00020E08AEB91E0FC013191CF0131112F5FF1
:101AB000F1E0803C9F07B9F721110E949D0B48E09F
:101AC00050E06AE172E088EB91E00E94182B892BCC
:101AD000A9F088E0E8EBF1E0AAE1B2E001900D9214
:101AE0008A95E1F7E0912003F0912103309731F0DE
:101AF0000280F381E02D88EB91E00995089590E054
:101B000080E00E94620990E080E00E944C091092FF
:101B100022020E94420D089590938E0280938D02BE
:101B20000E947F0D089521E030E002C0220F331F94
:101B30008A95E2F72095309580918D0290918E02E2
:101B4000822393230E948C0D089590911902809511
:101B5000892380931902282F277091F4282F082EAB
:101B6000000C330B9217130659F090916C0292FF00
:101B700007C08595859585950E94930D1092190251
:101B8000089521E030E002C0220F331F8A95E2F76A
:101B900080918D0290918E02822B932B0E948C0D4E
:101BA000089590938C0280938B020E947F0D08957C
:101BB00010922302EAEBF1E086E0DF011D928A95A4
:101BC000E9F70E947F0D0895AAE2B0E0EAEEFDE099
:101BD0000C94C12A8BE393E02091F100FC01219346
:101BE000CF01F3E083349F07B9F780913C03833042
:101BF00009F470C0B8F4813009F447C0823009F4A8
:101C0000B1C08091E80083FF7EC280913B03909138
:101C10003C039A3008F077C2E92FF0E0E858F44D21
:101C20000C94092B8A3009F48CC08B3009F46FC0F6
:101C3000893039F780913B03813219F780913F0356
:101C4000909140030297E8F68091E800877F8093A7
:101C5000E8008091E80082FF38C09091F300809105
:101C6000F200029731F48091F100813011F086305A
:101C700021F48091F10080932E038091E8008B770E
:101C80008093E8000E941708BCCF80913B03813A03
:101C900009F0B7CF8091E800877F8093E8008091BA
:101CA0003F0390914003892B61F468E08FE293E059
:101CB00070E00E94C3088091E8008B778093E80071
:101CC000A0CF60E090E080E0F3CF809139038111F4
:101CD000C0CF97CF80913B03813A09F092CF80919A
:101CE0003F0390914003892B09F08BCF8091E8004E
:101CF000877F8093E8008091E80080FFFCCF80918F
:101D000053018093F1008091E8008E77B9CF8091E4
:101D10003B03813209F075CF80913F0390914003DE
:101D2000892B09F06ECF8091E800877F8093E800CF
:101D30000E94170880913D03809353010E94D80DA3
:101D400060CF80913B03813209F05BCF8091E80046
:101D5000877F8093E8000E94170880913E0380935C
:101D60002D034FCF80913B03813A09F04ACF8091F8
:101D7000E800877F8093E8008091E80080FFFCCF37
:101D800080912D03BECF803899F0823809F0BBC115
:101D900080913F038F70873008F0B5C18093E900D0
:101DA0008091EB0085FB882780F91092E90006C03E
:101DB0008091370390913803911182609091E800EF
:101DC000977F9093E8008093F1001092F10080914A
:101DD000E8008E7794C1882309F482C1823009F02B
:101DE00092C180913D03811185C180913F038F7025
:101DF0002FEF280F263008F086C18093E90020914C
:101E0000EB0020FF77C1933031F48091EB008062CA
:101E10008093EB006FC19091EB0090619093EB0089
:101E200021E030E001C0220F8A95EAF72093EA0012
:101E30001092EA008091EB008860EACF811163C1C3
:101E400010913D031F778091E3008078812B809370
:101E5000E3008091E800877F8093E8000E941708E4
:101E60008091E80080FFFCCF8091E3008068809340
:101E7000E30082E0111183E08093390344C180586C
:101E8000823008F040C180913D0390913E038C3D2B
:101E900023E09207A1F583E08A838AE289834FB722
:101EA000F894DE01139620E03EE051E2E32FF0E0EB
:101EB00050935700E49120FF03C0E295EF703F5F1D
:101EC000EF708E2F90E0EA30C0F0C7968D939D930F
:101ED0002F5F243159F74FBF8091E800877F8093AF
:101EE000E8006AE270E0CE0101960E94C30880918A
:101EF000E8008B778093E80006C1C096E7CF409159
:101F00003F0350914003292F33272330310509F433
:101F100044C078F52130310509F46FC08BE390E0BF
:101F2000EBE0F9E02230310509F0EDC02091E80046
:101F3000277F2093E80020914103309142038217CC
:101F4000930708F49C0140E02115310509F064C0B5
:101F5000411162C08091E80082FDC9CF80913903B0
:101F6000882329F2853019F28091E80083FFF2CFAF
:101F7000BECF21323105A9F12232310509F0C3C0AB
:101F80004115510509F443C04130510509F0BBC06A
:101F900082E390E0E9E9F8E0C9CF99278130910523
:101FA000C1F0009759F0029709F0ADC0E8E5F9E0FB
:101FB000E4918E2F90E0E8E5F9E007C0E2E8F9E06F
:101FC000E4918E2F90E0E2E8F9E0009709F49BC0DD
:101FD000ADCFE0E7F9E0E4918E2F90E0E0E7F9E0A3
:101FE000F4CF4115510571F04130510509F08BC016
:101FF00089E090E0E6E3F9E099CF82E190E0E6E461
:10200000F9E094CF89E090E0EDE1F9E08FCF80E452
:1020100090E0EBECF8E08ACF80913903882309F453
:1020200066CF853009F463CF8091E80083FD5FCFF0
:102030008091E80082FD8ECF8091E80080FF84CF00
:102040009091F3008091F2002115310519F088304C
:10205000910550F041E0089709F040E08091E800D8
:102060008E778093E80070CF44914093F1003196D1
:10207000215031090196E8CF803809F044C08091A1
:10208000E800877F8093E80080913A038093F10015
:102090009ECE811138C010913D031230A0F5809181
:1020A000E800877F8093E80010933A030E941708A6
:1020B000112311F084E005C08091E30087FDFACF81
:1020C00081E08093390342E061EC81E00E943608B0
:1020D00042E261EC82E00E9436088091390313C02D
:1020E00080913D03813079F481E0933009F080E004
:1020F000809338031092E9008091E800877F8093F5
:10210000E8000E9417088091E80083FF0AC08091D0
:10211000E800877F8093E8008091EB0080628093E5
:10212000EB00AA96E3E00C94DD2A882321F00E94BC
:10213000A30B0E94420D0895882339F09091230249
:10214000982B909323020E94420D0895882391F1C9
:102150009CEF980F913A80F4EAEBF1E020EC31E04B
:102160009191891303C0DF0111971C922E173F072D
:10217000B9F70E94420D089590E2980F983050F4FC
:10218000877091E001C0990F8A95EAF7892F0E9424
:10219000A30BEFCF9BE5980F933028F490E080E0FD
:1021A0000E9462090895885A873120F490E080E007
:1021B0000E944C090895CF93C82F8823B1F08CEF6B
:1021C0008C0F813A00F5EAEBF1E080EC91E0DF0161
:1021D0002D91C21761F08A179B07D1F76C2F88EBFE
:1021E00091E00E9432090E94420DCF910895219101
:1021F000C21303C0DF0111971C928E179F07B9F716
:102200000E94420DEBCF80E28C0F883068F4C770DB
:1022100021E030E001C0220FCA95EAF78091230245
:10222000822B80932302DFCFEBE5EC0FE33040F409
:10223000F0E0EC5AFE4F808190E00E946209D5CF19
:10224000C85AC73190F6EC2FF0E0EE0FFF1FE95AA5
:10225000FE4F808191810E944C09C7CFB0E0A0E081
:10226000E4E3F1E10C94BC2A6C017B0164E670E0CC
:1022700088E70E94FC27EC0197FD12C010E000E007
:10228000F601E00FF11F849164E670E00E94682877
:10229000EC01892B29F40F5F1F4F0E151F0581F7E5
:1022A0000E94DE28CE01CDB7DEB7E8E00C94D82A34
:1022B00080911C0390911D03911103C091E0892727
:1022C0000895882369F062E070E087E998E00E9451
:1022D0002E11892B19F080911C03089510921C0374
:1022E00080911C03EBCFCF93C0911C0380911D0301
:1022F0008823D1F00E942609605A75418F4F9F4F65
:10230000609318037093190380931A0390931B032F
:10231000C11108C062E070E085E998E00E942E11CA
:10232000892B29F0C0911C038C2FCF91089581E057
:1023300080931C03F7CF8093290370932B03609342
:102340002A0380913903843001F582E08093E9000B
:102350008FEF9091E800815095FD06C095ED9A951C
:10236000F1F700008111F5CF8091E80085FF0DC0E5
:1023700050E040E063E070E089E293E00E94ED0706
:102380008091E8008E778093E8000895BC0184E096
:102390000E949B110895BC0183E00E949B11089547
:1023A000CF93DF93EC0181E08093E9008FEF909170
:1023B000E800815095FD06C095ED9A95F1F7000073
:1023C0008111F5CF8091E80085FF14C050E040E016
:1023D00068E070E0CE010E94ED078091E8008E7702
:1023E0008093E80088E0FE01AFE2B3E001900D9237
:1023F0008A95E1F7DF91CF91089560914F01809127
:10240000130380FF20C080914E0143E0849FC001F0
:10241000112489529D4F539A2BB1277F3BB13860CD
:102420005FB7F894FC01649FE00DF11D1124BF011A
:1024300068177907D1F45FBF8FE594E00197F1F752
:1024400000C000000895809150019091510123E057
:10245000829FF0011124E952FD4F8917A0F61182E5
:10246000108212828F5F3396F8CFFC014191CF0129
:10247000E8E03BB9000000C047FF2BB9440F000063
:1024800000C000C000C02BB900C0EA9591F7D0CFC2
:10249000B0E0A0E0EEE4F2E10C94BA2A7C015B012A
:1024A0006A0180915C0201E010E08A3010F40AE0D9
:1024B00010E0C1E0D0E0B501C701F6010995811136
:1024C00004C021960C171D072CF4CDB7DEB7EAE047
:1024D0000C94D62ACC9F9001CD9F300D300D112445
:1024E00090E080E045E34A95F1F7000001968217FD
:1024F0009307C1F7E0CF80912F02811110C0809126
:10250000D80080618093D8008AE18A95F1F700C0F5
:102510008091D90080FF0AC081E080932F0281E082
:1025200090912F02913009F080E0089582E080932D
:102530002F020E949D0710923903F1CF0E947B1257
:10254000882359F0E0912003F0912103309729F07E
:102550000190F081E02D0995089580E008951F9382
:10256000CF93DF93182FEB010E94DB10209739F4F3
:10257000812F0E94A610DF91CF911F9108958FE9BE
:102580009FE00197F1F700C000002197EFCF811184
:102590000CC070E0662331F060E089EA0E94AF125F
:1025A00081E0089560E08AEAF9CF8130C9F770E0F0
:1025B000662319F060E08EE4F1CF60E08BE4EECFAB
:1025C0000E94D80D2FEF84E39CE021508040904082
:1025D000E1F700C0000088E19CE00FB6F894A895F0
:1025E000809360000FBE90936000FFCFCF92DF9288
:1025F000EF92FF926B017C010E949409B701A60142
:1026000088E090E00E94542BFF90EF90DF90CF90F5
:102610000895B0E0A0E0EFE0F3E10C94B82AD82FE1
:10262000C62F142F822E0091130300FF49C0E02F04
:10263000E695F0E0ED54FE4F80818093D402802F28
:102640008E7F8230D1F4E42FF0E0EB56F84F611129
:102650003CC02491F22FE22F00FF0FC08091500167
:102660009091510133E0839FD0011124A952BD4FB5
:10267000891708F49FC00E94FD11809114038D13E7
:1026800008C0809115038C1304C080911603811734
:1026900029F08091D60282608093D602D0931403F1
:1026A000C093150310931603882051F06091130313
:1026B0007091140380911503909116030E94F612F5
:1026C000CDB7DEB7ECE00C94D42AE62EF12CE491E1
:1026D0009E2ECE2ED12C26E0D29FC00111242FEFAA
:1026E00030E0B9010E949E2A8D2F90E0880F991F3B
:1026F000F5E5F69FA001F79F500D1124841B950B63
:10270000B82EBB0CB80EA9014E195F094C9DC00133
:102710004D9D900D5C9D900D1124F92FCB9DA00136
:102720001124452F5527D901A41BB50BAC9DA00141
:10273000AD9D500DBC9D500D1124D901AB19B109AF
:102740005D01AE9CD001AF9CB00DBE9CB00D1124BC
:10275000AB2FBB272A1B3B0B2C9DD0012D9DB00D11
:102760003C9DB00D11242B2F62307105A1F050F467
:102770006115710509F470CF6130710581F0292F61
:10278000F52F6ACF6430710569F080F0663071050D
:1027900009F462CFF4CF2E2FE92FFB2F5DCF2E2F20
:1027A000E52F5ACF292FFE2FEB2F56CFE92FF92DEA
:1027B000252F52CF1196EC9311972C931296FC93E0
:1027C00012978F5F139654CFE3E1F3E0438121E149
:1027D000421B08F440E021E0628181810E940913DC
:1027E0000895E3E1F3E0438121E1420F08F44FEF64
:1027F00021E0628181810E9409130895E3E1F3E001
:10280000628121E1621B08F460E021E04381818163
:102810000E9409130895E3E1F3E0628121E1620F70
:1028200008F46FEF21E0438181810E94091308952C
:10283000E3E1F3E0818121E04381628188500E94DD
:1028400009130895E3E1F3E0818121E0438162818E
:10285000885F0E940913089580911703882319F057
:10286000815080931703609113037091140380913A
:102870001503909116030E94F61208958091170394
:10288000833018F48F5F8093170360911303709166
:10289000140380911503909116030E94F612089577
:1028A0008091130380FF1EC08170826080931303A8
:1028B0008091D60281608093D602662351F06091A8
:1028C00013037091140380911503909116030E94D5
:1028D000F61220E0409116036091150380911403D5
:1028E0000E9409130895809113038695815009F47D
:1028F00081E061E00E945014089561E081E00E944F
:1029000050140895E3E1F3E083E0808311828FEFB8
:10291000828383831482A4EDB2E012968C91129785
:10292000836012968C9360817181828193810E9471
:10293000F6120895CF9384E090E00E942E2BC82FCA
:1029400082E290E00E942E2B982F8C2FCF91089539
:10295000A4E0B0E0EEEAF4E10C94C02A4091500209
:102960005091510260915202709153022FB7F89426
:102970008091250390912603A0912703B09128030D
:102980002FBF841B950BA60BB70B11E08436910566
:10299000A105B10590F10E947B12882399F10E9454
:1029A00026096E5F7F4F8F4F9F4F69837A838B839A
:1029B0009C838091210190912201845C9D4F4091E4
:1029C000200150E04530510510F044E050E0BE01D8
:1029D0006F5F7F4F0E94252B84E090E00E94282AA1
:1029E000182F882351F00E9426096093500270939B
:1029F00051028093520290935302812F2496E4E077
:102A00000C94DC2A0E94260900915D0210915E025E
:102A100020915F0230916002600F711F821F931F2F
:102A2000C0CF4F925F926F927F928F929F92AF92A0
:102A3000BF92EF92FF920F931F93CF93DF937B018F
:102A4000FB0140805180628073809FB7F894809032
:102A5000250390902603A0902703B09028039FBFE2
:102A600084189508A608B708F4E68F169104A10407
:102A7000B10418F4C1E0442329F1C82F880FDD0BFD
:102A8000FE0183E0EE0FFF1F8A95E1F7E050FF4F54
:102A900081819281845C9D4F408150E0041715072D
:102AA00008F4A801B9010E94252BCE010E94282A12
:102AB000C82F882339F00E942609F70160837183AB
:102AC000828393838C2FDF91CF911F910F91FF9081
:102AD000EF90BF90AF909F908F907F906F905F909E
:102AE0004F900895A1E0B0E0E8E7F5E10C94C02A2A
:102AF00080911C03898320914F0290E041E02817C8
:102B0000190609F440E001E010E09E012F5F3F4FFD
:102B100068E572E086E00E9411152196E4E00C94CD
:102B2000DC2AA8E0B0E0E7E9F5E10C94C02A85E0F2
:102B3000E3E1F3E0DE01119601900D928A95E1F751
:102B40008091D4029091D502A091D6028E839F836A
:102B5000A88741E08885811101C040E008E010E0CD
:102B60009E012F5F3F4F64E572E085E00E941115E2
:102B700081111092D6022896E4E00C94DC2A4F9240
:102B80005F927F928F929F92AF92BF92CF92DF928D
:102B9000EF92FF920F931F93CF93DF930F92CDB7D6
:102BA000DEB7C62E4A015901482E880F5508C201CA
:102BB0000E94282A782E882309F480C0C20133E0BD
:102BC000880F991F3A95E1F7FC01E050FF4F4381D0
:102BD00050E04115510511F041E050E080509F4F09
:102BE000FC0164817581645C7D4FCE0101960E9479
:102BF000252BF40140815181628173812FB7F894B4
:102C00008091250390912603A0912703B09128037A
:102C10002FBF841B950BA60BB70B84369105A1051E
:102C2000B10540F4B701C8010E947809998189175C
:102C300009F444C00C2C000CDD08C6010E94282AAF
:102C4000782E811113C0712C872D0F90DF91CF91B9
:102C50001F910F91FF90EF90DF90CF90BF90AF90BA
:102C60009F908F907F905F904F900895C60123E0D2
:102C7000880F991F2A95E1F7FC01E050FF4F43812F
:102C800050E0E416F50608F4A70180509F4FFC01C0
:102C900064817581645C7D4FC5010E94252BB7015D
:102CA000C8010E94780999818913CDCF0E94260915
:102CB000F4016083718382839383C6CFA701B80137
:102CC000C5010E94252BC0CFA1E0B0E0EAE6F6E105
:102CD0000C94BB2AEE24E394F12C02E412E09E0152
:102CE0002F5F3F4F48E352E063E082E00E94BF1550
:102CF000C82E882339F100E080E01DC0D0906F021B
:102D0000D00E2D2D30E0A9014D575D4F7A01E1E045
:102D1000F0E0EC0FFD1FE00FF11D1081FA01908132
:102D2000191BB12E1B149CF0912F17FD90E0191B5D
:102D3000111118C00F5F90916E020917F8F28111FE
:102D40000E949A0B8C2D2196E9E00C94D72ABA9414
:102D5000F70180818F5F808360E08D2D0E94C71214
:102D60008C2DE0CF1F5FF70180818150808361E06F
:102D70008D2D0E94C7128C2DDBCFA4E0B0E0E3ECD8
:102D8000F6E10C94BC2A6B0184E0E82EF12C0DE3F3
:102D900012E09E012F5F3F4F44E352E061E080E08C
:102DA0000E94BF15882361F049815A816B817C8123
:102DB0004093300250933102609332027093330299
:102DC0004091300250913102609132027091330291
:102DD000F60140835183628373832496E8E00C9468
:102DE000D82A68EE7EEF90E080E00E94602B60E0E1
:102DF00082E090E00E94422B60E083E090E00E943D
:102E0000422B10928C0210928B0260E084E090E0E2
:102E10000E94422B64E082E290E00E94422B60E03C
:102E200085E090E00E94422B60E086E090E00E9406
:102E3000422B6FEF87E090E00E94422B40E050E091
:102E4000BA0188E090E00E94542B60E08DE090E0B1
:102E50000E94422B40E050E0BA0188E190E00E94DD
:102E6000542B60E087E190E00E94422B40E050E06C
:102E7000BA018CE190E00E94542B70E060E080E2A7
:102E800090E00E94602B40E050E0BA0188E190E0C1
:102E90000E94542B40E050E0BA018FE090E00E9485
:102EA000542B40E050E0BA0183E190E00E94542BA3
:102EB0000895CF93C0916C02C2FB992790F998179F
:102EC00091F080FBC2F9C0936C0260916B0284E0C8
:102ED00090E00E94422B6C2F82E290E00E94422BF5
:102EE00082E00E94A50DCF9108951F920F920FB618
:102EF0000F9211242F933F934F935F936F937F9380
:102F00008F939F93AF93BF93CF93DF93EF93FF93F1
:102F1000D091E900DF708091EC00C82FC17080FD76
:102F2000C0E81092E9008091F000877F8093F00064
:102F300078940E94E40D1092E9008091F00088607E
:102F40008093F000CD2BCF70C093E900FF91EF91FB
:102F5000DF91CF91BF91AF919F918F917F916F91B1
:102F60005F914F913F912F910F900FBE0F901F9047
:102F700018951F920F920FB60F9211242F933F9323
:102F80004F935F936F937F938F939F93AF93BF9371
:102F9000EF93FF938091E10082FF09C08091E200EE
:102FA00082FF05C08091E1008B7F8093E1008091DA
:102FB000DA0080FF24C08091D80080FF20C080917B
:102FC000DA008E7F8093DA008091D90080FF9DC067
:102FD00080E189BD82E189BD09B400FEFDCF81E0B9
:102FE0008093390380912C03811109C00E949D07B1
:102FF0000E9468088091E20084608093E2008091E2
:10300000E10080FF17C08091E20080FF13C0809133
:10301000E2008E7F8093E2008091E20080618093E5
:10302000E2008091D80080628093D80019BC85E0CE
:10303000809339038091E10084FF2BC08091E200EE
:1030400084FF27C080E189BD82E189BD89B5982FC1
:10305000917080FFFBCF8091D8008F7D8093D80046
:103060008091E1008F7E8093E1008091E2008F7E6D
:103070008093E2008091E20081608093E200809181
:103080003A03882309F447C084E080933903809190
:1030900039038091E10083FF27C08091E20083FF24
:1030A00023C08091E100877F8093E10082E08093DC
:1030B000390310923A038091E1008E7F8093E10002
:1030C0008091E2008E7F8093E2008091E200806137
:1030D0008093E20042E060E080E00E943608809148
:1030E000F00088608093F000FF91EF91BF91AF9165
:1030F0009F918F917F916F915F914F913F912F9110
:103100000F900FBE0F901F90189519BC10923903A5
:1031100010922C0374CF8091E30087FD93E090938D
:103120003903B5CF78941F921FB61F9211248F9345
:103130009F93AF93BF938091250390912603A09115
:103140002703B09128030196A11DB11D809325038B
:1031500090932603A0932703B0932803BF91AF91C8
:103160009F918F911F901FBE1F9018959C014FB784
:10317000F8948091250390912603A0912703B091A4
:1031800028034FBF821B930B08952FB7F8948091AB
:10319000250390912603A0912703B09128032FBF08
:1031A00008950F931F93CF93DF93C62FD42F022F31
:1031B000FC0182818823A9F0609345030E94C51811
:1031C0009093440380934303C77081E001C0880F4C
:1031D000CA95EAF70E949C10DF91CF911F910F9141
:1031E000089580914503681334C080914303909102
:1031F00044030E94B618883C910558F510E21D0F53
:10320000CD17B9F080E28C0F883040F4C77081E0B0
:1032100001C0880FCA95EAF70E949510183048F44B
:1032200081E09D2F977001C0880F9A95EAF70E9460
:103230009C1070E060E0802F0E94AF12183060F6A2
:10324000D77081E001C0880FDA95EAF70E949510E7
:10325000C3CFC77081E001C0880FCA95EAF7F6CFE7
:10326000A5E0B0E0E6E3F9E10C94B82A7C01FC01AA
:1032700083819481892B31F08081918189238F3FD3
:1032800009F0AEC42596ECE00C94D42A0E94B40B4D
:10329000182F682F89819A810E94270C69817A8171
:1032A000812F0E94FF098C01843FFCE59F0709F4F0
:1032B00083C018F5893D9C4509F47AC00A3D8CE528
:1032C000180709F489C0083D9CE5190709F526E2AD
:1032D00041EE61EEC7010E94D118809119028770FA
:1032E00089F2F7018281882369F280916C0282FF62
:1032F000C9CF82E00E94A50DC5CF863FECE59E07B1
:1033000009F462C008F45CC0873F9C4509F460C0C2
:10331000F7018281882309F474C4109245030430B4
:10332000FDE51F0708F05BC00B3F2CE5120730F4EA
:10333000C80182509C45449708F05CC00E949A14D2
:1033400090936C0280936B020231ECE51E0709F446
:103350005CC108F0A8C009302CE5120709F433C19C
:1033600008F072C005308CE5180709F41CC108F09C
:103370005EC00330ECE51E0709F40DC108F00FC173
:1033800080916B02816002302CE5120709F488C03D
:1033900060916B0210916C0284E090E00E94422BDD
:1033A000612F82E290E00E94422B0E94D80D95CFBF
:1033B00027E245EE65EE8ECF26E241EE60EE8ACF43
:1033C00027E245EE64EE86CF26E241EE62EE82CF42
:1033D00027E245EE66EE7ECF28E241E0EBCF063AEB
:1033E0003DE5130709F4AACFE0F402369DE519077D
:1033F00009F4A4CF06318CE5180709F084C4809144
:1034000023028A7A91E009F490E09093C00169E286
:10341000811165E388EB91E00E9432090E94420D20
:103420005CCFC8018E5A9D45039720F787CF8091C6
:103430006B02806207303CE5130791F108F4BFC0CE
:1034400080916B0280642CC00D309CE5190709F453
:10345000C4C090F480916B028E7F0B30FCE51F0797
:10346000F9F080916B028C600C302CE51207C0F0F3
:1034700080916B028D7F14C00F303CE5130709F477
:10348000BCC008F4AEC000319CE5190709F4B9C00E
:1034900080916B028F7B0131ECE51E0709F078CF3C
:1034A00080936B0275CF0115FDE51F0709F4B7C0C6
:1034B000A8F50B3F3CE5130709F479C0C0F40431CB
:1034C0009CE5190709F4B9C008F4A5C00531FCE56D
:1034D0001F0709F05DCF80916B0282FB992790F95D
:1034E00021E0922790FB82F990FB83F9D9CF0D3F21
:1034F0002CE5120709F479C008F45DC00E3F8CE595
:10350000180709F476C080916C0283600F3F9CE538
:10351000190709F03DCF80936C023ACF0236EDE5F2
:103520001E0709F495C090F402302DE5120709F446
:103530008DC008F478C060E003308DE5180709F00D
:1035400027CF8EE090E00E94422B22CF0E3A9DE5DD
:103550001907E9F060F490916B02892F8E7F90FF3C
:103560008160063AFDE51F0709F49ACF11CF0F3AA3
:103570002DE5120771F1003B3DE5130709F008CF77
:1035800090916C02892F877F93FF8860C4CF8091D0
:103590006C028860C0CF80916B02826081CF809185
:1035A0006B0284607DCF80916B02886079CF8091BF
:1035B0006C028160B0CF80916C028260ACCF809150
:1035C0006B0280616DCF0E94D80D80916B02806884
:1035D00067CF80916C02877F9ECF80916B028B7F3B
:1035E0005FCF80916B02877F5BCF80916C028E7F73
:1035F00092CF80916C028D7F8ECF80916B028F7EF7
:103600004FCF80916B028F7D4BCF0E94D80D809160
:103610006B028F7745CF80916B02837F41CF809182
:103620006C028C7F78CF80916C02982F909591706E
:103630008E7F892B90FB81F96ECF0E94D80D9091DF
:103640006B02892F97FB87F980582ACF61E079CFE9
:1036500090916B02892F8F7E94FF806121CF8091A2
:10366000C00181110FC089E2EAEBF1E020EC31E00A
:103670009191891303C0DF0111971C922E173F0708
:10368000B9F7CCCE85E3F0CF81608093130361E07E
:1036900086950E94501421CE43E754E16DE774E112
:1036A0000E948E091ACE4DE754E163E774E1F8CF2A
:1036B00048E154E162E274E1F3CF44EE53E161EF9B
:1036C00073E1EECF61E081E0E4CF0E94D80D2FEFEF
:1036D00034E38CE0215030408040E1F700C000002E
:1036E00081E08093E00080E28093D8001092C900CE
:1036F000EFE1FEE43197F1F700C0000087E090EBC6
:10370000DC018093510790935207A0935307B09325
:10371000540788E19CE00FB6F894A8958093600068
:103720000FBE90936000FFCF80916C0282FB8827D0
:1037300080F991E089270E945917F7018281008161
:103740001181882309F445C0C8010E94B40BD82E0A
:10375000682FC8010E94270CB8018D2D0E94FF0917
:103760000E941A0A8C01882EF701D280B580B2948B
:103770003FE0B322809119028770C1F0AD2CDD20AB
:10378000B1F0812F807F803421F080E2800F88307B
:1037900068F080916C0282FF09C082E00E94A50D52
:1037A000809119028770AA24A3948111A12C912ED3
:1037B00092942FE09222FBE0F91508F476C0E92DEF
:1037C000F0E0EE57F44D0C94092B81E0B4CF80E08B
:1037D000B2CFC8010E94F50BD82EBECF212F2F707B
:1037E000C22E107F19F0C29490EFC922DD20B9F0EB
:1037F000CC2069F080E2800F883010F0811009C081
:1038000080912302C82AC09223020E94420D802F79
:103810004AC080912202C82AC0922202F6CF802F8D
:103820000E94A610CC2009F440C0005E083010F0C1
:10383000811004C08C2D0E94A30B06C0C0948091FF
:103840002202C822C09222020E94420D2EC0312FB5
:103850003F70C32E107F103219F0C29480EFC8223F
:10386000882089F081E0881609F477C0DD2009F40A
:1038700081C0BB2009F477C0F701858180FFC7CFE5
:103880008F70858370C020916C0222FD43C0DD20C3
:10389000D9F1CC2039F080912302C82AC0922302AA
:1038A0000E94420D80E00E94DB10E92DE850FF0BE2
:1038B000349710F40E949E12AA20A9F08091190258
:1038C00080FD11C0F70112828595859585950E942E
:1038D000C10DC7010E943019809119028595859507
:1038E00085950E94930D85E0F701DE011196019008
:1038F0000D928A95E1F709811A81C8010E94F50BA2
:10390000B8010E94FF09BECC80E00E94A610CC2026
:1039100061F290CFDD20A1F0909124028C2D892BB3
:10392000B11003C00E949C10C0CFE1E0BE12FACFDC
:1039300022FFBBCF891709F4B8CF80932402B5CFFB
:10394000B11006C00E949D0B8C2D0E949510ADCF2A
:10395000F1E0BF1609F4A9CFF5CFDD2031F025E065
:103960002B1508F4A2CF8C2DDDCF34E03B1508F4E5
:103970009CCFEACFBB2041F3F9E38F122AC12FEF8E
:1039800037EE83E0215030408040E1F700C0000076
:1039900020C1812F86958695837061F0813009F072
:1039A00084CFC8019370D11002C090E080E00E94E3
:1039B0004C097BCFC8019370D11002C090E080E029
:1039C0000E94620972CF812F837009F03FC0D1102D
:1039D0006CCF402F429546954770440F440F802F7F
:1039E0008F7090E0042E02C0880F991F0A94E2F7AE
:1039F00030E020E004FF09C02FE030E002C0220FD9
:103A0000331F4A95E2F72095309516951695137059
:103A1000123099F078F440918B0250918C02113061
:103A200039F0822B932B842395230E94D10D3DCF17
:103A3000842B952B822B932BF8CF822B932B2091C9
:103A40008B0230918C0282279327EFCF8695DD2061
:103A500011F0812F8170882309F427CF402F4295E0
:103A600046954770440F440F802F8F7090E0042ECE
:103A700002C0880F991F0A94E2F730E020E004FFAB
:103A800009C02FE030E002C0220F331F4A95E2F751
:103A900020953095169516951370123099F078F49C
:103AA00040918D0250918E02113039F0822B932B70
:103AB000842395230E948C0DF8CE842B952B822B8A
:103AC000932BF8CF822B932B20918D0230918E0275
:103AD00082279327EFCF1F70DD2029F0812F0E94CE
:103AE000C10D802F1FCF802F0E949510812F0E9423
:103AF000930DDBCE802F92EF891699F1981570F017
:103B0000E0EF8E16D1F0F1EF8F1691F0DD2009F481
:103B10005BC0B1107CCE812F8F7127C023EF82163E
:103B200039F134EF8312F2CF80916C0282FD2EC006
:103B3000812F8F71DD20D9F218C0DD2069F084E07B
:103B40008B1508F4B2CE1F7181E090E002C0880F9F
:103B5000991F1A95E2F7B8CF95E09B1508F4A5CE0A
:103B6000F2CF812F8F71D110C2CF0E94C10D9DCE97
:103B700090E080E0DD2009F49DCF1F7181E090E0AE
:103B800002C0880F991F1A95E2F794CFDD2089F0C3
:103B90001F71812F0E94C10D80916C0282FF07C0AE
:103BA000E8E01E9FC0011124836080931902812FD9
:103BB000DCCF81E00E94A50DF1E0FB1508F075CE89
:103BC00082E00E94A50D71CEBB2039F0893309F443
:103BD000D6CE802F0E94A61068CE812F8F7187CFFE
:103BE00085E0DE01119601900D928A95E1F7F701CB
:103BF000228189819A81211149CB0E94F50B182FCE
:103C00004DCB0631FCE51F0709F429CD8091230235
:103C100082720A3C2CE5120709F44FCD08F04BC024
:103C2000063C9CE5190709F443CD70F5043CFCE51E
:103C30001F0709F431CD08F036CD033C3CE51307EE
:103C400009F07BCD8091130380FF1ECD8E7F809382
:103C500013036091130370911403809115039091E5
:103C600016030E94F6128091D60281608093D602DC
:103C70009FEFE0E7F2E09150E040F040E1F700C054
:103C800000000E94FD1129CB4EEF53E16BE074E17F
:103C9000083C9CE5190709F403CD42E254E168E1D0
:103CA00074E1093CECE51E0708F4FACC4BE054E162
:103CB0006EEF73E1F5CC0E3CFCE51F0709F402CD75
:103CC000B8F44CE254E16EE374E10C3C3CE51307BC
:103CD00009F4E6CC41EF53E164EE73E10D3C9CE561
:103CE000190708F4DDCC4EE354E16CE274E1D8CC62
:103CF000073DECE51E0708F4F0CA0E35FDE51F0789
:103D000009F4EBCA1ACD0B352DE5120709F45DCD88
:103D100068F401158CE5180709F4D7CC0F3D1C4554
:103D200009F00BCD0E94F1160E94E0120D35EDE571
:103D30001E0709F4F9CC08F44ACD083A1D45A1F351
:103D4000FCCC1F93CF93DF938091E601807F09F035
:103D500049C08091E301882309F444C0809118028E
:103D6000D091E7016091E1017091E201A091E4013D
:103D7000B091E501C62FC72316E0D81799F190E05E
:103D8000109711F0CF3F19F401968770F6CF189F66
:103D90009001199F300D1124F901E851FE4F418126
:103DA0004713F2CF40814613EFCF42814111ECCF50
:103DB000438154814A1B5B0B483C510528F7809195
:103DC000E6018F7080618093E601F901E351FE4FB7
:103DD00080818F708061808381EE91E00E94301934
:103DE0000E94AA0BDF91CF911F910895A1E1B0E04D
:103DF000ECEFFEE10C94BA2A8C0185E0F801DE01BB
:103E00001D9601900D928A95E1F7F801E28081EE0E
:103E1000A82E81E0B82E6091E4017091E501611552
:103E2000710509F426C19091E1014091E201892FC9
:103E300084238F3F09F41DC120813181C380D48048
:103E4000F090E301F601E61BF70BFF2009F4DCC05C
:103E50008091E601582F507FE83CF10508F09FC0A3
:103E600051116BC0FE2C431314C0921312C0E11009
:103E700010C08F7080618093E601C5010E943019E7
:103E80008091E601F80185838F2D6196EAE00C941C
:103E9000D62AC114D10429F0822F83238F3F09F041
:103EA00003C180E0F82FF170DF2E80FF3CC08091CD
:103EB00018024091E70156E0841315C02D873E8714
:103EC0008D859E850E94E80B292F22952F70223028
:103ED000F0F0243018F59F70F1F0F8019581907F93
:103EE000D1F4D12C1EC090E0589FF001599FF00DE5
:103EF0001124E851FE4F6181361306C060812613FC
:103F000003C06281E6120FC001968770D5CF9F7003
:103F100011F0882331F3805E883018F3C8010E94C5
:103F20003019FD2CB1CFEE2009F4AECF8091E6011F
:103F300081608093E601F12CA7CF431306C0921352
:103F400004C0F801EE2009F479C0C8010E945C0C9D
:103F5000882309F1EE20F9F08091E601803270F0BB
:103F60002091E1013091E20138872F831986DB86A9
:103F7000CA868C87CE0107960E94301986E0F80128
:103F8000A1EEB1E001900D928A95E1F70E94A11E89
:103F9000FF24F39479CFC8010E943019F9CF511151
:103FA0000AC081EE91E00E94301986E0F50111927D
:103FB0008A95E9F7C0CF43130FC092130DC0E110EB
:103FC0000BC0F8018583C8010E94301986E0F50115
:103FD00011928A95E9F758CFC8010E945C0C88239A
:103FE000D1F2EE20C1F28091E601803238F22091C8
:103FF000E1013091E2013A8329831B82DD82CC8288
:104000008E83CE010196B8CFE83CF105F8F6FE2C80
:10401000EE2009F243131FC092131DC08091E601E8
:1040200080FD10C0982F907F69F0F8018583903F44
:1040300031F0982F907F905F8F70892B8583C80116
:104040000E94301986E0F801A1EEB1E001900D92D6
:104050008A95E1F719CFC8010E945C0C81118ECFBF
:104060008091E60181608093E601C8010E943019C9
:104070000BCFEE2009F48FCFC8010E945C0CF82E04
:10408000882309F488CF86E0F801A1EEB1E0019021
:104090000D928A95E1F78091E1019091E2010E94F1
:1040A000E80B0E94A11EF0CE81E08E25FBCEA7E199
:1040B000B0E0EDE5F0E20C94C12A4B8B5C8B6D8B8C
:1040C0007E8B8F8B6111109222021A8A198A85E0E9
:1040D000FE017396DE011D9601900D928A95E1F71F
:1040E00086E0FE013D96DE01179601900D928A95BD
:1040F000E1F7CE0107960E94F61E811112C086E0FC
:10410000FE013796DE01119601900D928A95E1F736
:104110008A859B85892B29F088859F8189238F3FFC
:1041200081F516E0809118029091E701891317C07C
:104130006796E3E00C94DD2A96E0929FD001939F6E
:10414000B00D1124A851BE4FFE01319601900D9281
:104150009A95E1F78093E7010E94AA0BE2CF819F35
:10416000C001112488519E4F0E94F61E882301F33E
:104170008091180290E00196877099278093180229
:10418000D1CF2091E70130E0C901019687709927CE
:10419000409118024817190679F60E94D80D10921E
:1041A000E7011092180286E0E1EEF1E0DF011D92D6
:1041B0008A95E9F7B6CFACE0B0E0E1EEF0E20C941E
:1041C000B72A8E010F5F1F4F88E0D8011D928A9594
:1041D000E9F787E8C82E81E0D82EF12CE12CAA243B
:1041E000A394B12C23E9822E21E0922EF601819135
:1041F0006F018F3F09F442C0F894E82FE295EF7009
:10420000F0E021A18F70A50102C0440F551F8A95CF
:10421000E2F7CA01922F982B91A392A1809589234E
:1042200082A3789400C0EBE8F1E0712C31E0219199
:104230002F3F09F46BC0A22FA295AF70B0E090960B
:104240008C9190E02F7002C0959587952A95E2F7A2
:1042500080FD5CC0832F782A330F8E169F0639F7B6
:10426000F601319780818F3F11F00E94A50950EA35
:104270005A95F1F7F801EE0DFF1D70828FEFE81AE5
:10428000F80A94E0E916F10409F0B0CF48E050E0F4
:10429000B80181E692E00E94182B009741F028E0D7
:1042A000F801A1E6B2E001900D922A95E1F70091A4
:1042B0006A02892B69F181E0809327020E94C51868
:1042C00090932602809325028091250290912602E8
:1042D0000E94B618059700F110E00E581D4F44E0FB
:1042E00050E061E672E0C8010E94182BF12C892B86
:1042F00051F084E0E1E6F2E0D80101900D928A9558
:10430000E1F7FF24F3941092270207C080E0A3CFC7
:10431000809127028111D8CFF12C0E947B12E82EC8
:10432000E0916A02882309F494C019861A861B86D4
:104330001C860E2F10E00E581D4F80915C028A30B3
:1043400008F051C04DEB56E1BE01675F7F4FC801D9
:104350000E944812882309F46BC044E656E1BE016E
:10436000675F7F4FC8010E944812882309F460C02C
:1043700048EA54E1BE01675F7F4FC8010E944812BE
:10438000882309F455C041E955E1BE01675F7F4FBD
:10439000C8010E944812882309F44AC042E755E147
:1043A000BE01675F7F4FC8010E944812882309F44D
:1043B0003FC010925C028091690290E044E050E0BE
:1043C000BE01675F7F4F8E589D4F0E94182B21E0E2
:1043D00020932E02892BF1F4E12C8E2D8F292C961F
:1043E000EDE00C94D32A80912802909129020E943A
:1043F000B618843F914008F0A5CF80912E02882303
:1044000059F3FE01399684E0DF011D928A95E9F7A0
:1044100010922E02E0916902F0E0EE58FD4F89857E
:104420009A85AB85BC8580839183A283B383D5CFE6
:1044300080915C028F3F31F08F5F80935C028A3005
:1044400008F4B9CF0E94C5189093290280932802DE
:10445000D4CFF0E0EE58FD4F84E0ADE3B2E0019040
:104460000D928A95E1F764E070E08DE392E00E949E
:10447000780980933C024091880250E06091870265
:1044800070E06D577D4FCE0109960E94252B8985DE
:104490008093420261E070E0CE0109960E947809A3
:1044A000809341028090430290904402A090450284
:1044B000B090460280912A0290912B02A0912C028A
:1044C000B0912D0288169906AA06BB06D1F08092FB
:1044D0002A0290922B02A0922C02B0922D020E94EE
:1044E0007B1281110EC00E942609861A970AA80A1B
:1044F000B90A80925D0290925E02A0925F02B09231
:10450000600280914E028823F1F080FF0DC08091FF
:1045100047029091130380FF1DC091609093130395
:1045200060E086950E94501480914E0281FF09C080
:1045300020E040914A0260914902809148020E9425
:10454000091310924E0280914F028823B9F00E9405
:10455000731143CF9E7F909313038091D6028160A5
:104560008093D602BFEFE0E7F2E0B150E040F040C8
:10457000E1F700C000000E94FD11D6CF0E94581143
:104580002CCF1F921FB61F9211248F939F93AF932E
:10459000BF9380912403811113C0809125039091D2
:1045A0002603A0912703B09128034196A11DB11DB8
:1045B0008093250390932603A0932703B0932803A9
:1045C000BF91AF919F918F911F901FBE1F90189523
:1045D000CDB7DEB72C970FB6F894DEBF0FBECDBFB8
:1045E00085B7806885BF85B7806885BF84B7877FBA
:1045F00084BF0FB6F894A89580916000886180937D
:104600006000109260000FBE80E890E00FB6F89452
:1046100080936100909361000FBE83EA99E09093CC
:10462000B7018093B6010E949D070E94680880919F
:10463000E20084608093E2007894809139038823BB
:10464000A1F01091E9001F709091EC00892F81700A
:1046500090FD80E8182B1092E9008091E80083FD1E
:104660000E94E40D1F701093E90082E084BD93E086
:1046700095BD9AEF97BD80936E0010925D021092E7
:104680005E0210925F02109260020E947B12809381
:10469000380180913801882309F43EC110924E01FF
:1046A0008AE080934F010E947B1281110E943C2975
:1046B000809138018091380194E0811190E09093CD
:1046C0006A0284E0891B8093690284E30E94A50941
:1046D00086EC0E94A50987E90E94A50984E90E9449
:1046E000A5090BE811E0A3E9EA2EA1E0FA2ED80112
:1046F0008D918D018F3F11F00E94A509E016F10602
:10470000B1F788E0E2E7F2E0DF01082F1D920A9599
:10471000E9F7E1E6F2E0DF011D928A95E9F790E022
:1047200080E00E943C2B883E9E4F11F00E94F116C3
:1047300082E090E00E942E2B80937A020E949A14CD
:1047400090936C0280936B0283E090E00E942E2B8A
:1047500090E00E94D10D82E08093CF0280E88093A8
:1047600046030E94F6276DE070E08FEB92E00E9416
:104770002E11892BE9F58091CF0263E070E081FD75
:10478000CFC08CEB92E00E942E11892B89F56DE051
:1047900070E08CEA92E00E942E11892B49F50E946C
:1047A0002609605A75418F4F9F4F6093180370938D
:1047B000190380931A0390931B03E9E4F3E080E06C
:1047C00094E0DF018C011D9201501040E1F7F0935D
:1047D0005007E0934F078FEF9FEF9093480380932C
:1047E000470381E080931D0380931C031092D00245
:1047F00080916D02811139C090E080E00E943C2BD5
:10480000883E9E4F21F00E94F1160E94821488E09B
:1048100090E00E94362B60931303709314038093EF
:104820001503909316038091D60283608093D6027D
:104830006E7F71F40E94821488E090E00E94362B13
:1048400060931303709314038093150390931603DE
:104850000E9494098091130380FF04C060E0869554
:104860000E94501481E080936D029091380181E0A4
:10487000982790938702282F291B20936F029091ED
:104880003801809388029091380180936E02809164
:104890003801811106C085E38093460186E6809346
:1048A000450120914601E22FE295EF70F0E061A111
:1048B0002F7081E090E0AC0101C0440F2A95EAF727
:1048C000342F3095362331A322A1242B22A320910B
:1048D0004501E22FE295EF70F0E031A12F7001C0A9
:1048E000880F2A95EAF7982F9095932391A392A188
:1048F000892B82A38FE891E00197F1F700C00000B7
:104900001091880269E872E046E451E085E4E82EFF
:1049100081E0F82EFB012FC08AE080934E01C1CECA
:1049200089EB92E030CFDA012D91AD01822F829593
:104930008F7090E0DC0190968C9190E02F7002C017
:10494000959587952A95E2F78170D7019D917D0114
:10495000292F22952F7030E0D90190962C9130E0CC
:104960009F7002C0359527959A95E2F790E020FD5B
:1049700092E0892B81938E2F861B8117A0F20E94D3
:104980007B12811102C00E943F2989E391E090933C
:10499000210380932003F0E4DF2E8091390300E1AE
:1049A00012E1853009F488C00E94DB207BE7E72E06
:1049B00072E0F72EE2E7AE2EE2E0BE2E23E832E010
:1049C000D501F70191918D912E173F0709F47EC013
:1049D0009817C1F30E947B12782E10E0D5010D913B
:1049E0005D01F70181907F01801629F1C12C992486
:1049F00093948026882D8921B1F07720A1F0CE8272
:104A00001F8391E0892D802309F490E098870E940C
:104A1000C5188160782F9A8789874E815F81688564
:104A20008A850E945720C394990CF8E0CF12E2CFF8
:104A3000F701319700831F5F183081F60E94260925
:104A4000EE24E39464C080913903843029F10E94FC
:104A5000581110922403E8E1F0E00FB6F894A895FD
:104A6000E09360000FBED092600083B7817F8460C6
:104A700083BF83B7816083BF7894889583B78E7F27
:104A800083BF0FB6F894A8958091600088618093E9
:104A90006000109260000FBE80913803882361F09F
:104AA0000E94DB20E2E7F2E08191811189C22AE7CE
:104AB00032E02E173F07C1F780913903853009F4A2
:104AC000C2CF0E94D80D0E949E126ECF981382CF43
:104AD0000E94C5188C018091700290917102081794
:104AE0001907A1F08FEF89838A831B820E94C51862
:104AF0008160782F9D838C8349815A816B818D8160
:104B00000E9457201093710200937002E12C0E94C2
:104B10007B12B12CF12C80918802B81608F442C0A7
:104B2000F1100E949A0B80911D03882351F180910E
:104B3000D1029091D2020E94B618C29708F0A3C089
:104B400020914703309148032115310509F066C1D2
:104B500080911C038823A9F00E9426090091180364
:104B60001091190320911A0330911B03601B710BE4
:104B7000820B930B6F3F7F4F8F4F9F4710F40E9424
:104B80005811E11001C0F1100E9473110E949E1291
:104B90009091D302891709F400CF8093D3020E9429
:104BA0002609FBCE0B2D10E0F801EA5BFE4F808159
:104BB000E82FE295EF70F0E0E0A1F0E08F7002C026
:104BC000F595E7958A95E2F7E170D801AB5BBE4FAA
:104BD0002C91A22FA295AF70B0E090968C9190E0AE
:104BE0002F7002C0959587952A95E2F780FD49C000
:104BF00080E08E2BD801A757BD4FEC919E2F93706C
:104C00008917E9F1EE0FEE0FE82BEC93C0908702C5
:104C1000CB0CEF70F0E0ED56FE4F0B571D4F80812F
:104C2000D8019C91890F8C9320E0843064F0EC2DA6
:104C3000F0E0ED57FD4F80818F5F808360E08C2D29
:104C40000E94C71221E0F80180818D3F64F4EC2DB1
:104C5000F0E0ED57FD4F80818150808361E08C2D25
:104C60000E94C71221E0D8018C91082E000C990BEC
:104C700064E070E00E94F52AF8018083F22AB39480
:104C80004ACF82E0B6CF0E94C5189093D20280939B
:104C9000D10289E493E09093500780934F070E94DC
:104CA0007B12882309F47CC085E597E00E94340DCF
:104CB0008EE497E00E94340D87E497E00E94340D63
:104CC0008FE397E00E94340D80918D0290918E02C7
:104CD00020918B0230918C02822B932B292F33272A
:104CE000E0E02115310511F0C901E8E09C0154E034
:104CF000369527955A95E1F72115310511F0EC5FAE
:104D0000C9019C01369527953695279521153105C2
:104D100011F0EE5FC90196958795892B09F0EF5F39
:104D20008CEF96E0E73038F4F0E0E257F44D0C9465
:104D3000092B87E397E00E94340D0E949E12182FE2
:104D40008CEE96E010FF02C084EF96E00E94340DD6
:104D50008CED96E011FF02C084EE96E00E94340DC7
:104D60008CEC96E012FF02C084ED96E00E94340DB8
:104D700080911D03882309F4EBCEE2CE8FE297E009
:104D8000DACF83E297E0D7CF8EE197E0D4CF89E105
:104D900097E0D1CF8FE097E0CECF87E097E0CBCF01
:104DA00080914F0790915007895493409C013C5F3C
:104DB00021303440B0F020E034E0281B390B409122
:104DC000470350914803ECECF2E0280F391F61E0F3
:104DD00070E08217930740F05093480340934703D5
:104DE000C7CF20E034E0EBCF1491DC01A75BBC4FD0
:104DF0000C91101781F01C93DC0116E0B695A79575
:104E00001A95E1F78B0102C0000F111FAA95E2F776
:104E1000D801402B5B2B01963196DBCF8091D002DD
:104E200061E070E0811194CE082F10E02B01082E74
:104E300002C0440C551C0A94E2F7A90144215521F3
:104E4000452B09F447C09091CF0290FD45C0829553
:104E5000880F880F807480934901980136952795B3
:104E600020934C01815C80934A0110924D0124E60D
:104E700030E047E050E067E471E088E70E94962860
:104E8000892B09F065CEA80136E0440F551F3A95ED
:104E9000E1F78091CF0280FD2DC0475B5C4F04E6B7
:104EA00010E020E430E060E488E70E94B728892B16
:104EB00009F04ECE0E947311C201809590954090EA
:104EC0004703509048034822592250924803409289
:104ED00047033ECE8F5FA8CF880F880F880F80933F
:104EE000490110924C01895F80934A0187E08093C9
:104EF0004D01BDCFEFE8F2E0DF010D2D1D920A95C7
:104F0000E9F72BEA31E03C872B8703EA11E023EB3A
:104F1000822E21E0922EAB85BC852D91BC87AB877C
:104F2000F80121908F01240E352E311CC101875BC1
:104F30009C4F1C01E22FF0E0E157FD4F30E020E0F4
:104F400097E0692E621ACC24C394022E01C0CC0CC7
:104F50000A94EAF7510190E0D5018D915D018C2111
:104F6000662D691B6770762E062E000C770BB82F06
:104F700001C0BB0F7A94EAF77B2E71956195710998
:104F80006770772701C086956A95EAF7782A80814D
:104F9000782A70829F5F9830F9F62F5F3F4F3196E5
:104FA0002830310569F6EB85FC858E169F0609F0E1
:104FB000B2CF04E610E020E430E04FE852E073CFD7
:104FC00009BD19BD09B400FEFDCF8091D8008F7DC9
:104FD0008093D8008091E00082608093E00080910F
:104FE000E00081FDFCCF0E94D80D66CD1092B90083
:104FF0008CE08093B8000895B0E0A0E0E2E0F8E231
:105000000C94B92AB82EEB010E94C5186C01EE244D
:10501000E394F12CC431D10560F025E0E22EF12CAF
:10502000CF3FDC0731F0CE0164E170E00E949E2AA0
:105030007B0184EAA82E94E8992E1092BC00A092DD
:10504000BC000E94C5188C018091BC0087FF0DC078
:105050008091B900887F8830F9F08091B900887F0D
:105060008031D1F00FEF1FEF08C0C8010E94B618C1
:10507000E816F90648F70EEF1FEFCF3FDC07E9F21D
:10508000C6010E94B618C817D907B8F6C801CDB72F
:10509000DEB7EBE00C94D52AB092BB009092BC0036
:1050A0000E94C5188C018091BC0087FF0AC08091C6
:1050B000B900887F883111F08034A1F610E000E05B
:1050C000E5CFC8010E94B618E816F90660F7D3CFFD
:1050D0000F931F93CF93DF93EB018093BB0084E882
:1050E0008093BC000E94C5188C018091BC0087FF92
:1050F00011C02091B900287F81E090E0283211F49E
:1051000090E080E0919581959109DF91CF911F9179
:105110000F910895CF3FDC0741F3C8010E94B618F4
:10512000C817D90710F78EEF9FEFEFCFB0E0A0E0E0
:10513000ECE9F8E20C94BC2A6B018A017901B9010F
:105140000E94FC27E6010C0D1D1DC017D10711F0B0
:1051500097FF08C024E92093BC00CDB7DEB7E8E094
:105160000C94D82AB70189910E946828EECFB0E04C
:10517000A0E0EDEBF8E20C94BC2AC62F6A0179019D
:10518000B8010E94FC2797FD0CC0B8018C2F0E942B
:105190006828E601EC0CFD1CCE15DF0511F097FF29
:1051A00008C024E92093BC00CDB7DEB7E8E00C943A
:1051B000D82AB80189910E946828EECF84E98093AB
:1051C000BC0008958EE14A9B02C08150E1F74A9BE2
:1051D000FECF08955A9880E28A95F1F75A9A089579
:1051E000FC013BE03A95F1F798E020E080E031E007
:1051F00040E14A95F1F7880F4A9B02C0816023275E
:1052000042E04A95F1F7000040E14A95F1F79150EC
:1052100079F790E19A95F1F799B132E03A95F1F783
:10522000000040E14A95F1F792FB992790F9922707
:105230002081920F90830895A1E0B0E0E2E2F9E2CC
:105240000C94BE2A19828C017C01E60EF11C0E150D
:105250001F0541F481E09981911180E02196E6E0FB
:105260000C94DA2A0E94E228CE0101960E94F028CE
:10527000F80181938F01EBCF529A5A9A0895529870
:105280005A9AEA9AE9E6F0E080818F7C808308955B
:105290006150770B91E001C0990F6A95EAF720E021
:1052A00031E0911108C0222391F05A9A80E28A9548
:1052B000F1F75A980895492F482339F05A9A23272D
:1052C00040E24A95F1F79695ECCF5A98F9CF5A9863
:1052D000EDCFFF920F931F93CF93DF93EC018C01DF
:1052E000060F111DC017D10729F4CDB7DEB7E5E0D1
:1052F0000C94DB2AF9900E94EA2868E08F2D0E9426
:105300004829F0CF1F920F920FB60F9211240F93DE
:105310001F932F933F934F935F936F937F938F933D
:105320009F93AF93BF93EF93FF93CF93DF930F922E
:10533000CDB7DEB719820E94E228CE0101960E9405
:10534000F028082F069506950695282F229525709A
:10535000902F9570290F922F937026952695920F76
:10536000982797708981982B09F05CC0083008F065
:1053700059C080E18A95F1F75A9A529A82E08A954B
:10538000F1F700C05A9888E0089F80011124D801E5
:10539000A050BF4F1696ED91FC9117973097A9F04A
:1053A000609185017091860114962D913C9115971D
:1053B000260F371F11968D919C911297680F791FB8
:1053C00013964C9113978C910995F801E050FF4F7B
:1053D0006381662351F0209185013091860184819B
:1053E0009581820F931F0E9469290E94EA2880E11B
:1053F0008A95F1F75A9852985A9A80E18A95F1F76E
:10540000F801E050FF4F6081662351F02091850143
:105410003091860181819281820F931F0E941C2905
:105420000E94E2280F90DF91CF91FF91EF91BF9101
:10543000AF919F918F917F916F915F914F913F912C
:105440002F911F910F910F900FBE0F901F901895E5
:105450000F931F93CF93DF93EC0108970CF04CC090
:10546000F894529A5A9885E08A95F1F700009C2F9B
:10547000969595708C2F8570980F892F83709695CF
:10548000969523E0CC0FDD1F2A95E1F7980F8E014A
:10549000092B0E94EA2800C068E0802F0E9448295A
:1054A00080E18A95F1F752985A9A4A9B1EC087E08C
:1054B00090E04A991CC0FE01E050FF4F63816623D3
:1054C000F9F0209185013091860184819581820FC8
:1054D000931F0E941C29811113C0529A5A9A7894E2
:1054E000DF91CF911F910F91089500C0DECF0197FA
:1054F00029F4529A5A9A789480E0F2CF00C0D9CF1A
:105500000E94E22880E28A95F1F75A98529A80E147
:105510008A95F1F7C050DF4F6881662351F02091E2
:1055200085013091860189819A81820F931F0E94A3
:1055300069290E94EA28789481E0D2CFAA1BBB1B7C
:1055400051E107C0AA1FBB1FA617B70710F0A61B83
:10555000B70B881F991F5A95A9F780959095BC01A4
:10556000CD0108952F923F924F925F926F927F925A
:105570008F929F92AF92BF92CF92DF92EF92FF9263
:105580000F931F93CF93DF93CDB7DEB7CA1BDB0B0F
:105590000FB6F894DEBF0FBECDBF09942A883988B4
:1055A00048885F846E847D848C849B84AA84B984BB
:1055B000C884DF80EE80FD800C811B81AA81B981C7
:1055C000CE0FD11D0FB6F894DEBF0FBECDBFED01DB
:1055D0000895991B79E004C0991F961708F0961B4F
:1055E000881F7A95C9F78095089597FB072E16F4C2
:1055F000009407D077FD09D00E949E2A07FC05D0B1
:105600003EF4909581959F4F0895709561957F4FD9
:105610000895EE0FFF1F0590F491E02D0994FB0112
:10562000DC0102C005900D9241505040D8F708951A
:10563000FB01DC0104C08D910190801921F44150DF
:105640005040C8F7881B990B0895FB01DC0102C08C
:1056500001900D9241505040D8F70895F999FECF2E
:1056600092BD81BDF89A992780B50895A6E1B0E072
:1056700044E050E00C94682BA8E1B0E042E050E038
:105680000C94682B262FF999FECF92BD81BDF89A14
:10569000019700B4021639F01FBA20BD0FB6F89476
:1056A000FA9AF99A0FBE08950396272F0E94432B6A
:1056B0000E94422B252F0E94432B242F0C94432B16
:1056C0000196272F0E94432B0C94422BDC01CB0127
:1056D000FC01F999FECF06C0F2BDE1BDF89A319602
:1056E00000B40D9241505040B8F70895F894FFCFA0
:1056F000C30EEB0E8310EB0E83101E0F3F0F8310B3
:105700003C104910EE1BEE1B271C271CC91C551C06
:10571000551C551CE31C6B1D7A1D7A1D9926BE264F
:0A572000C126C426C726CA26CD26DE
:10572A000000000100000000000000040100000069
:10573A000000000105000000000000010600000052
:10574A000407000000000000080B00000000000031
:10575A000113000000000000012309D0112209CB27
:10576A0011C611210935660021007F2200070014A5
:10577A0000141401818283E200E900EA00B500B650
:10578A0000B700CD008301CC008A01920194012167
:10579A0002230224022502260227022A02B300B4A7
:1057AA00006F0070003C0234C6979436323331F7EA
:1057BA00F6F5F400FF0100010000FFFF0000010000
:1057CA0001FF000008101820283038383028201827
:0657DA00100800000100B0
:00000001FF
