:100000000C94A7070C94DF070C94DF070C94372996
:100010000C94DF070C94DF070C94DF070C94DF07C8
:100020000C94DF070C94DF070C9425180C94E1174F
:100030000C9486220C94DF070C94DF070C94DF07E6
:100040000C94DF070C94DF070C94DF070C94DF0798
:100050000C94DF070C94FE180C94DF070C94DF0758
:100060000C94DF070C94DF070C94DF070C94DF0778
:100070000C94DF070C94DF070C94DF070C94DF0768
:100080000C94DF070C94DF070C94DF070C94DF0758
:100090000C94DF070C94DF070C94DF070C94DF0748
:1000A0000C94DF070C94DF070C94DF0700000000BE
:1000B0001700150008001A001400000000000000DE
:1000C0000A000900070016000400000000000000FC
:1000D0000500190006001B001D00000000004C2157
:1000E0002C42282200000000000000000000000058
:1000F0001C0018000C00120013000000000000009B
:100100000B000D000E000F00310000000000000089
:1001100011001000360037001F02000000002B43C2
:100120002A4128320000000000000000000000000A
:100130006414271424141F141E0201000000000080
:100140002E022602250221142002010001000100D6
:100150003502261425143414220201000100010086
:10016000010001000100000000000000000000008C
:100170002900E30052002913160A010000000000C4
:100180000000500051004F004452010001000100E6
:100190004C050000000000003D04010001000100CA
:1001A000000001000100000000000000000000004D
:1001B0003800260025002400240201000000000071
:1001C0002D00230022002100310201000100010066
:1001D000270020001F001E00370001000100010061
:1001E000000001000100000000000000000000000D
:1001F000640064022D143802370201000000000080
:100200002214230227022D02360201000100010000
:1002100020143000340033002F00010001000100E1
:1002200000000100010000000000000000000000CC
:1002300001004500440043004200010000000000AE
:100240000100410040003F003E00010001000100AC
:1002500001003D003C003B003A00010001000100AC
:10026000010000000100000000000000000000008C
:1002700001007000710072007300010000000000B6
:1002800001006C006D006E006F00010001000100B4
:100290000100680069006A006B00010001000100B4
:1002A000010001000100000000000000000000004B
:1002B0000100010001000100010001000000000038
:1002C0000100010001000100010001000100010026
:1002D0000100010001000100010001000100010016
:1002E000010001000100000000000000000000000B
:1002F00001000100520001000100010000000000A7
:100300000100500051004F000100010001000100F8
:1003100001000100010001000100010001000100D5
:1003200040520100010000000000000000DA1281CC
:10033000FFD9F1DB20A4A62EAF00A0C000A1C80009
:10034000AED580A83FD300408D14200000000000EF
:100350000000000000000000008080C0E0F0707825
:10036000383C1C1E0E0E0E07070707070707070776
:10037000070707070707070E0E0E1E1C3C3878708C
:10038000F0E0C080800000000000000000000000DD
:10039000000000000000000000000000000000005D
:1003A000000000000000000000000000000000004D
:1003B000000000000000000000000000000000003D
:1003C000000000000000000000000000000000002D
:1003D000000000C0E0F07C3E1F0F07030180C0E07A
:1003E000F078383C1C1E0E0E070787E77F1FFFFFC3
:1003F0001F7FE78707070E0E1E1C3C3878F0E0C011
:10040000800103070F1F3E7CF0E0C00000000000E9
:1004100000000000000000000000000000000000DC
:1004200000000000000000000000000000000000CC
:1004300000000000000000000000000000000000BC
:1004400000000000000000000000000000000000AC
:10045000F0FCFF1F07010000C0F0FCFEFFF7F3B146
:10046000B03030303030303078FE87010000FFFF90
:1004700000000187FE7830303030303030B0B1F3DA
:10048000F7FFFEFCF0C0000001071FFFFCF00000BA
:10049000000000000000000000000000000000005C
:1004A000000000000000000000000000000000004C
:1004B000000000000000000000000000000000003C
:1004C000000000000000000000000000000000FF2D
:1004D000FFFF0000000000FEFFFF0101071E78E1A2
:1004E00081838386868C8C9898B1B7FEF8E0FFFFF5
:1004F000E0F8FEB7B198988C8C8686838381E1788A
:100500001E070101FFFFFE0000000000FFFFFF00CB
:10051000000000FFFF0000C0C030300000F0F0001D
:100520000000000000F0F00000F0F0C0C0303030FB
:1005300030C0C000003030F3F30000000000003095
:100540003030303030C0C00000000000000000FF3C
:10055000FFFF00000000007FFFFF8080E0781E8723
:1005600081C1C16161313119198DED7F1F07FFFF15
:10057000071F7FED8D191931316161C1C181871E5E
:1005800078E08080FFFF7F0000000000FFFFFF0099
:100590000000003F3F03030C0C303000000000332C
:1005A00033333333330F0F00003F3F0000000000B0
:1005B000000000000030303F3F303000000C0C33B2
:1005C00033333333333F3F000000000000000000AE
:1005D0000F3FFFF8E0800000030F3F7FFFEFCF8D5C
:1005E0000D0C0C0C0C0C0C0C1E7FE1800000FFFFAE
:1005F000000080E17F1E0C0C0C0C0C0C0C0D8DCF40
:10060000EFFF7F3F0F03000080E0F8FF3F0F000087
:1006100000000000000000000000000000000000DA
:1006200000000000000000000000000000000000CA
:1006300000000000000000000000000000000000BA
:1006400000000000000000000000000000000000AA
:1006500000000003070F3E7CF8F0E0C080010307B4
:100660000F1E1C3C38787070E0E0E1E7FEF8FFFFF9
:10067000F8FEE7E1E0E0707078383C1C1E0F0703DD
:100680000180C0E0F0F87C3E0F070300000000008E
:10069000000000000000000000000000000000005A
:1006A000000000000000000000000000000000004A
:1006B000000000000000000000000000000000003A
:1006C000000000000000000000000000000000002A
:1006D000000000000000000000010103070F0E1ED3
:1006E0001C3C3878707070E0E0E0E0E0E0E0E0E0D2
:1006F000E0E0E0E0E0E0E070707078383C1C1E0E56
:100700000F070301010000000000000000000000CE
:1007100000000000000000000000000000000000D9
:1007200000000000000000000000000000000000C9
:1007300000000000000000000000000000000000B9
:100740000000000000000000000000002020202029
:10075000202020005343524C434B200020202020D7
:10076000202020004341504C434B200020202020DB
:10077000202020004E554D4C434B2000556E6465A3
:1007800066696E65640A0041646A7573740A00469E
:10079000756E6374696F6E0A0053796D0A004E615D
:1007A000760A00436F6C656D616B2D44480A004406
:1007B000766F72616B0A005157455254590A004CCA
:1007C000617965723A2000726576310A0A004B79C8
:1007D0007269612000808182838485868788898A06
:1007E0008B8C8D8E8F9091929394A0A1A2A3A4A59F
:1007F000A6A7A8A9AAABACADAEAFB0B1B2B3B4C016
:10080000C1C2C3C4C5C6C7C8C9CACBCCCDCECFD060
:10081000D1D2D3D400000101010101010101010283
:1008200002020202020202020303030303030303A0
:10083000040404040404040505050505060606066B
:1008400006070707070708080808090909090A0A27
:100850000A0B0B0B0C0C0C0D0D0D0E0E0E0F0F0FCB
:100860001010111111121213131414151516161756
:1008700017181819191A1A1B1B1C1D1D1E1E1F20C4
:1008800020212222232424252626272829292A2B11
:100890002C2D2D2E2F303132323334353637383936
:1008A0003A3B3C3D3E3F4041424344454647484930
:1008B0004A4C4D4E4F50515354555658595A5B5D02
:1008C0005E5F616264656668696B6C6D6F707273A0
:1008D0007577787A7B7D7E8082838587888A8C8E07
:1008E0008F91939596989A9C9EA0A2A3A5A7A9AB39
:1008F000ADAFB1B3B5B7BABCBEC0C2C4C6C9CBCD2B
:10090000CFD1D4D6D8DBDDDFE2E4E7E9EBEEF0F3DC
:10091000F5F8FAFDFF00AF00AE05010980A10185E1
:100920000319012AB700150126B70095017510813A
:1009300000C0050C0901A101850419012AA00215B6
:100940000126A002950175108100C005010906A1CC
:1009500001050719E029E7150025019508750181B2
:10096000029501750881010507190029FF15002668
:10097000FF009506750881000508190129059505F0
:1009800075019102950175039101C009023B0002B6
:100990000100A0FA0904000001030101000921116E
:1009A000010001224000070581030800010904013C
:1009B000000103000000092111010001223200079B
:1009C00005820320000112010002000000081D8DB5
:1009D0009D9D00010102000116034B007900720089
:1009E000690061002000720065007600310000009F
:1009F0001803730070006C00690074006B006200E3
:100A00002E0063006F006D00000004030904070856
:100A10007F0807003E5B4F5B3E003E6B4F6B3E0026
:100A20001C3E7C3E1C00183C7E3C18001C577D5729
:100A30001C001C5E7F5E1C0000183C180000FFE7D5
:100A4000C3E7FF00001824180000FFE7DBE7FF0002
:100A500030483A060E00262979292600407F0505F0
:100A60000700407F05253F005A3CE73C5A007F3E87
:100A70001C1C0800081C1C3E7F0014227F2214004E
:100A80005F5F005F5F0006097F017F000066899558
:100A90006A0060606060600094A2FFA29400080495
:100AA0007E04080010207E20100008082A1C080080
:100AB000081C2A0808001E10101010000C1E0C1E26
:100AC0000C0030383E383000060E3E0E06000000A6
:100AD0000000000000005F000000000700070000A9
:100AE000147F147F1400242A7F2A12002313086421
:100AF0006200364956205000000807030000001C21
:100B0000224100000041221C00002A1C7F1C2A00F8
:100B100008083E0808000080703000000808080837
:100B200008000000606000002010080402003E5130
:100B300049453E0000427F40000072494949460055
:100B40002141494D33001814127F100027454545B7
:100B500039003C4A49493100412111090700364911
:100B600049493600464949291E000000140000008A
:100B70000040340000000008142241001414141432
:100B800014000041221408000201590906003E41E8
:100B90005D594E007C1211127C007F494949360094
:100BA0003E41414122007F4141413E007F49494948
:100BB00041007F09090901003E41415173007F084E
:100BC00008087F0000417F4100002040413F0100B4
:100BD0007F08142241007F40404040007F021C02F9
:100BE0007F007F0408107F003E4141413E007F09A5
:100BF000090906003E4151215E007F09192946007E
:100C000026494949320003017F0103003F4040402B
:100C10003F001F2040201F003F4038403F0063142A
:100C2000081463000304780403006159494D43002C
:100C3000007F414141000204081020000041414171
:100C40007F000402010204004040404040000003D5
:100C5000070800002054547840007F28444438009E
:100C6000384444442800384444287F0038545454BD
:100C7000180000087E09020018A4A49C78007F08D0
:100C80000404780000447D4000002040403D000006
:100C90007F102844000000417F4000007C0478045D
:100CA00078007C0804047800384444443800FC1878
:100CB0002424180018242418FC007C0804040800CC
:100CC00048545454240004043F4424003C40402031
:100CD0007C001C2040201C003C4030403C0044284C
:100CE000102844004C9090907C004464544C440084
:100CF000000836410000000077000000004136087F
:100D000000000201020402003C2623263C000000F1
:100D100000000000404040F0F8F8FF38FFF8F83FCE
:100D2000F8F8FF38FFF8F8F04040400000000000FD
:100D30000080C0C0C0800000C0C08000000080C033
:100D4000C000C0C0000080C0C00000000000C0C0E3
:100D5000C0C0C000C0C000000000000000000000D3
:100D60000000000000000000000000000000000083
:100D70000000000000000000000000000000000073
:100D800000000000000000000000000000C0F0F8BB
:100D9000FC3E1E06010000007F4141417F007F4173
:100DA00041417F000080C0E07E5B4F5BFEC00000E1
:100DB000C000DCD7DEDEDED7DC00C00000000000B3
:100DC0000000000000000000000000000000000023
:100DD00000000000494949FFFFFFFFE0DFBFBF00FF
:100DE000BFBFDFE0FFFFFFFF4949490000000000EF
:100DF0001F3F6060E0BF1F007F7F071E381E077F18
:100E00007F007F7F0E1F3B716000000000007F7F2E
:100E10000C0C0C007E7E007F7E0303007F7E0303AC
:100E20007E7E03037F7E000F3E703C063C703E0FCB
:100E300000327B49493F7E007F7E0303001E3F69ED
:100E4000696F2600000000000000000000030F1F73
:100E50003F3C7870600000007F4141417F007F414E
:100E600041417F00307B7F7830202030787F3B000D
:100E700003000F7F0F0F0F7F0F0003000000000023
:100E80000000000000000000000000000000000062
:100E900000000000010101070F0F7F0F7F0F0F7E81
:100EA0000F0F7F0F7F0F0F070101010000000000EF
:100EB0000000000000010100000000000000000030
:100EC0000000000000000000000000000000000022
:100ED0000000000000000000000000000000000012
:100EE0000000000000000000000000000000000002
:100EF00000000000000000000000000000000000F2
:100F000000000000000000000000000000000000E1
:100F100000000000000000000000000000000000D1
:100F200000000000000000000000000000000000C1
:100F300000000000000000000000000000000000B1
:100F4000000000000000000000000000000011246C
:100F50001FBECFEFDAE0DEBFCDBF04B603FE18C080
:100F60008091520790915307A0915407B091550773
:100F70008730904BA740B04B59F410925207109213
:100F800053071092540710925507E0E0F8E30995D3
:100F900011E0A0E0B1E0E0E1F7E502C005900D92BC
:100FA000AA3BB107D9F727E0AAEBB1E001C01D9237
:100FB000A235B207E1F70E94AD220C942B2B0C94C2
:100FC0000000E8EDF0E080818E7F80831092E200E7
:100FD0001092DA001092E100A0EEB0E08C918160F6
:100FE0008C9380818F77808319BCA7EDB0E08C91C2
:100FF0008E7F8C9380818F7E808310922D03089545
:101000002091E4003091E50095E6A9012091EC00E3
:10101000822F817020FF06C08091E80080FF06C00B
:1010200080E008952091E80022FD1AC080913A03E3
:10103000882389F0853089F08091EB0085FD0FC011
:101040002091E4003091E50042175307F9F29150E6
:10105000E1F684E0089582E0089583E0089581E058
:10106000089580913C0387FF13C08091E80082FFC0
:1010700006C08091E8008B778093E80004C08091DF
:101080003A038111F2CF089580913A038823D9F36E
:101090008091E80080FFF8CF8091E8008E77ECCF58
:1010A000982F9093E900242F762F50E0891731F084
:1010B0007091EC002091ED005091F00021FD07C0EF
:1010C0009F5F973071F78093E90081E00895309138
:1010D000EB003E7F3093EB003091ED003D7F30938D
:1010E000ED003091EB0031603093EB007093EC0039
:1010F0002093ED005093F0002091EE0027FDE0CF0B
:1011000080E00895B0E0A0E0E8E8F8E00C94712AEF
:10111000C8EDD0E088818F7E8883E7EDF0E08081A4
:101120008160808384E082BF81E080932D03888189
:101130008E7F888302EE10E0F80110821092DA00B0
:1011400081EEC82ED12CF601108288818F7788839A
:1011500088818068888388818F7D888319BC1092FC
:101160003A0310923B03109239031092380390EE29
:10117000E92EF12CF70180818B7F8083888181604B
:10118000888342E060E080E00E945008F6018081A0
:101190008E7F8083F8018081816080838081886078
:1011A0008083F70180818E7F80838881806188833E
:1011B000CDB7DEB7E8E00C948D2AFC0180914203A4
:1011C0009091430386179707A0F06115710529F4E4
:1011D0009091E8009E779093E80090E0611571058A
:1011E00051F4911108C08091E80082FF34C080E082
:1011F0000895BC01F2CF80913A038823C1F1853074
:10120000C1F18091E80083FD30C08091E80082FD4B
:10121000EACF8091E80080FFE1CF8091F300209138
:10122000F200382F6115710519F02830310558F09A
:1012300091E02830310509F090E02091E8002E7708
:101240002093E800CBCF81918093F1006150710928
:101250002F5F3F4FE7CF80913A03882341F08530DD
:1012600041F08091E80083FFBECF81E0089582E0E5
:10127000089583E00895089580912F0308952FB76E
:10128000F8946091290370912A0380912B03909127
:101290002C032FBF08959C01FC0132969FEF80E044
:1012A0004191461751F09F3F19F4411101C0982F09
:1012B0008F5F8630A9F79F3F09F40895290F311DEC
:1012C00097FD3A95F90162830895A3E0B0E0EBE65B
:1012D000F9E00C94772A20912603309127032817F0
:1012E0003907A1F09093270380932603E09124030C
:1012F000F0912503309751F024E029839B838A8362
:101300000680F781E02DCE01019609952396E2E053
:101310000C94932AA3E0B0E0E0E9F9E00C94772A7A
:10132000209122033091230328173907A1F09093CD
:10133000230380932203E0912403F0912503309747
:1013400051F023E029839B838A830680F781E02D77
:10135000CE01019609952396E2E00C94932AFC01B4
:10136000680F791F8FEF91E32191822728E030E009
:1013700087FF09C0880F892721503109C9F7E6176F
:10138000F70791F70895880FF7CFFA01811101C08F
:10139000FB010995089580911703982F9E7F39F4DA
:1013A00080911703817082608093170308958430C1
:1013B000B8F7089580E00895F894E82FE295EF706B
:1013C000F0E031A1282F2F7081E090E001C0880F5C
:1013D0002A95EAF7982F9095932391A392A1892BB0
:1013E00082A3789408959091730292FF06C0282FEB
:1013F00028712830F9F4877F846093FF06C0282F76
:1014000028712831F1F4877E84612091740220FFD5
:1014100006C0382F38713830D9F4877F816021FFBA
:1014200006C0282F28712831D1F4877E816194FD70
:10143000877E0895282F24712430F9F68B7F8860E9
:10144000DCCF282F2471243101F78B7E8861DDCF1A
:10145000382F3171313019F78E7F8860E0CF282F17
:101460002171213121F78E7E8861E1CF823891058B
:10147000B9F1B0F48133910509F47DC048F48932A3
:10148000910509F46DC08A32910509F47BC0089575
:101490008533910509F45FC08933910509F10895F9
:1014A000833E9105D9F138F4803E910529F1823EC1
:1014B000910579F10895863E9105D9F1873E910510
:1014C00009F43EC0843E910541F52091740221FF4C
:1014D00024C08091730284FD19C087EE90E00895C6
:1014E00020917302237009F05AC02091740223FFE7
:1014F00014C089E290E008952091730220FD38C065
:101500003091740230FF09C024FF43C090E080E0B6
:1015100008952091730222FDF7CF08952091730260
:1015200022FD3AC03091740230FD39C024FFF5CF5E
:10153000EDCF2091730223FFF0CF24FDE7CFCDCF75
:101540002091730223FD2EC03091740231FFEECF43
:1015500084EE90E008952091730225FFDECFC9CF7D
:101560002091730225FD21C02091740223FFD5CF65
:1015700089E390E0D2CF2091730226FFCECF8AE29A
:1015800090E008952091730226FFC7CF81E390E099
:10159000089583EE90E0089582EE90E0089580EE45
:1015A00090E0089586EE90E0089585E390E0089538
:1015B0007830C0F46830B0F48530B8F498E0899F92
:1015C000F0011124E70FF11D83E0EE0FFF1F8A9554
:1015D000E1F7E60FF11DEE0FFF1FE455FF4F859178
:1015E0009491089580E090E0089581E0FCCF1F93EE
:1015F000CF93DF930E94360AEC01C11580E5D8072E
:10160000F0F5C11580E4D80708F09CC0C03ED105B4
:1016100020F5CD3CD10508F082C0C83AD10578F458
:10162000C53AD10508F073C0C130D10519F1209732
:1016300009F1C430D105F0F4D0E0C0E01BC0C33CD8
:10164000D105D0F7C85AD0E0CC0FDD1FCD5ADE4F00
:101650000990D881C02DD4640DC0C11580E2D8078F
:1016600008F0D1C0C11581E0D80708F05AC0C83EC3
:10167000D10510F7CE01DF91CF911F910895C036AB
:1016800082E5D80718F5C03482E5D80708F06BC0AA
:10169000C03282E5D80708F05FC0C11582E5D807DF
:1016A00008F497C02C2F2695269580E2289F90015C
:1016B00011248C2F8370C1E0D0E002C0CC0FDD1F5D
:1016C0008A95E2F7C22BD32BDD68D4CFC03A82E5EE
:1016D000D80760F4C03882E5D80708F459C0CF7144
:1016E000D0E0DC2FCC27C46FD06AC4CFC03C82E5E9
:1016F000D80708F462C0C03E82E5D80708F09CCF46
:10170000DC2FCC27CC27DF71C06FD06AB3CFC55A8E
:10171000D0E0C05BDE4FC881D0E0D064ABCFD065F5
:10172000A9CF8D2F0E94F309182FCE0199270E946F
:10173000360AC12FD0E0DC2FCC27CC27DF71C82B95
:10174000D92B98CFCE0199270E94360ACC27DF707B
:10175000C82BD92BD06A8ECFCF71D0E0DC2FCC270D
:10176000C16FD06A87CF2C2F26952695277080E2EF
:10177000289F900111248C2F8370C1E0D0E002C01B
:10178000CC0FDD1F8A95E2F7C22BD32BDC6872CF1A
:101790002C2F26952695277080E2289F90011124F2
:1017A0008C2F8370C1E0D0E002C0CC0FDD1F8A9582
:1017B000E2F7C22BD32BDA685DCF8C2F8F710E949A
:1017C000F309C82FD0E0DC2FCC27CC27DF71D06203
:1017D00051CF8C2F8F710E94F30955E0D695C79594
:1017E0005A95E1F7CF70D0E0DC2FCC27282F30E0DE
:1017F00084FF05C044E0220F331F4A95E1F7C22B56
:10180000D32BD06937CF8D2F8F710E94F309182FFA
:10181000CE0199270E94360AC12FD0E0DC2FCC27B9
:10182000CC27DF71C82BD92BD2CF0E943F09089556
:10183000809128028111109228020895809590913C
:101840002702982390932702089520911C029091DB
:10185000EB0156E0291302C080E0089530E0529F6A
:10186000F001539FF00D1124E451FE4F7181761366
:1018700006C07081781303C07281741304C02F5F97
:101880003F4F2770E7CF81E0089580911C0290912F
:10189000EB01981301C008958F5F8770FACFB0E015
:1018A000A0E0E5E5FCE00C94702A7C010091910237
:1018B0001091920280918F0290919002082B192B27
:1018C000CFE0D0E0CC24C394D12CBC2EC6010C2E8A
:1018D00002C0880F991F0A94E2F780239123892B75
:1018E00049F4219790F7B12C8B2DCDB7DEB7E9E005
:1018F0000C948C2AB7018C2F0E94D80A0E94F70AF8
:10190000019779F3F1CFCF93DF93EC010E944F0C55
:10191000BE010E94D80A0E94F70ADF91CF91089574
:10192000983070F5883060F528E0929FF00111241E
:10193000E80FF11D6E2F677083E0F695E7958A95A5
:10194000E1F7EE0FFF1FEE0FFF1FEB53FE4F50E0CE
:1019500040E080E0219130E0062E02C036952795C8
:101960000A94E2F721703327042E01C0220F0A9453
:10197000EAF7822B4F5F5F4F4430510559F70895C6
:1019800080E00895983090F5883080F528E0929FA7
:10199000F0011124E80FF11D2E2F277041E001C046
:1019A000440F2A95EAF783E0F695E7958A95E1F7E3
:1019B000EE0FFF1FEE0FFF1FEB53FE4F30E020E056
:1019C00070E05191DF011197CB01022E02C0969574
:1019D00087950A94E2F7817081958527842385276E
:1019E0008C932F5F3F4F2430310559F70895909322
:1019F000920280939102089521E030E002C0220F0C
:101A0000331F8A95E2F7209530958091910290914D
:101A10009202822393230E94F70C089590911D0255
:101A20008095892380931D02282F277091F4282FF9
:101A3000082E000C330B9217130659F09091740284
:101A400092FF07C08595859585950E94FC0C1092A4
:101A50001D02089521E030E002C0220F331F8A9555
:101A6000E2F78091910290919202822B932B0E9437
:101A7000F70C08959093900280938F020895FC01D3
:101A800083819481892B29F08081918189238F3FE3
:101A900051F480E00895843FE1F717C0883EA8F034
:101AA000813FB9F712C0808191810E94830C929589
:101AB0009F70963099F358F4925F9F70923048F778
:101AC000803F19F040F7883E20F781E008959A5F43
:101AD000F4CFCF93DF93C0915007D09151078A3054
:101AE000C1F420914703CE018A549340622F70E0E5
:101AF0000E94532A281B822F66E00E949E2AC82F2C
:101B0000C15018F4DF91CF91089580E20E94690DD1
:101B1000F7CF8D30E9F4CA54D34020914703622FA8
:101B200070E0CE010E94532A281B822F9E01280FAD
:101B3000311D2115344018F080E0D0E0C0E0C80F1E
:101B4000D11DC65BDC4FD0935107C0935007DACF4D
:101B500096E0FE01AAE4B7E001900D929A95E1F7B4
:101B6000803E08F458C086E0FE0111928A95E9F79C
:101B7000C0915007D091510746E050E0BE018AE481
:101B800097E00E94CD2A9E012A543340892B41F1CF
:101B9000C90146E0969587954A95E1F741E050E006
:101BA000BA0102C0660F771F8A95E2F7CB016091F8
:101BB000480370914903862B972BB9016B5F7F4FC8
:101BC000E6E076956795EA95E1F702C0440F551F68
:101BD0006A95E2F7842B952B9093490380934803F1
:101BE0002A5F3F4F40914703642F70E0C9010E9474
:101BF000532A481B463010F4240F311D211574E080
:101C0000370710F030E020E0265B3C4F309351075F
:101C10002093500777CFF6E08F9FB0011124625FC9
:101C2000754F46E050E0CE010E94C42AA1CFCF9369
:101C3000DF93EC01FE018491811103C0DF91CF910C
:101C400008950E94690D2196F5CF80912702909109
:101C50002602892B8093BC0190912802992391F050
:101C6000892B8093BC0120E08EEB91E0FC01319147
:101C7000CF0131112F5FF1E0843C9F07B9F72111AB
:101C80000E94180C48E050E06EE172E08CEB91E0AD
:101C90000E94CD2A892BA9F088E0ECEBF1E0AEE1BF
:101CA000B2E001900D928A95E1F7E0912403F09162
:101CB0002503309731F00280F381E02D8CEB91E029
:101CC0000995089510922702EEEBF1E086E0DF011E
:101CD0001D928A95E9F790E080E00E948A0990E0E1
:101CE00080E00E946509109226020E94250E089548
:101CF000AAE2B0E0EEE7FEE00C94762A8CE393E0F3
:101D00002091F100FC012193CF01F3E084349F077F
:101D1000B9F780913D03833009F470C0B8F4813085
:101D200009F447C0823009F4B1C08091E80083FF14
:101D30007EC280913C0390913D039A3008F077C2B7
:101D4000E92FF0E0E35DF44D0C94BE2A8A3009F4EB
:101D50008CC08B3009F46FC0893039F780913C0317
:101D6000813219F780914003909141030297E8F680
:101D70008091E800877F8093E8008091E80082FFEF
:101D800038C09091F3008091F200029731F4809175
:101D9000F100813011F0863021F48091F1008093C0
:101DA0002F038091E8008B778093E8000E94310830
:101DB000BCCF80913C03813A09F0B7CF8091E80015
:101DC000877F8093E8008091400390914103892BA5
:101DD00061F468E080E393E070E00E94DD088091A8
:101DE000E8008B778093E800A0CF60E090E080E08F
:101DF000F3CF80913A038111C0CF97CF80913C03FC
:101E0000813A09F092CF8091400390914103892B50
:101E100009F08BCF8091E800877F8093E800809164
:101E2000E80080FFFCCF80914F018093F10080910A
:101E3000E8008E77B9CF80913C03813209F075CFED
:101E40008091400390914103892B09F06ECF8091DE
:101E5000E800877F8093E8000E94310880913E036C
:101E600080934F010E94620E60CF80913C038132CB
:101E700009F05BCF8091E800877F8093E8000E94A3
:101E8000310880913F0380932E034FCF80913C0314
:101E9000813A09F04ACF8091E800877F8093E8007B
:101EA0008091E80080FFFCCF80912E03BECF803868
:101EB00099F0823809F0BBC1809140038F70873060
:101EC00008F0B5C18093E9008091EB0085FB88277D
:101ED00080F91092E90006C080913803909139038F
:101EE000911182609091E800977F9093E800809331
:101EF000F1001092F1008091E8008E7794C1882360
:101F000009F482C1823009F092C180913E038111AF
:101F100085C1809140038F702FEF280F263008F085
:101F200086C18093E9002091EB0020FF77C19330B8
:101F300031F48091EB0080628093EB006FC190914F
:101F4000EB0090619093EB0021E030E001C0220FA4
:101F50008A95EAF72093EA001092EA008091EB005C
:101F60008860EACF811163C110913E031F77809191
:101F7000E3008078812B8093E3008091E800877FE5
:101F80008093E8000E9431088091E80080FFFCCF38
:101F90008091E30080688093E30082E0111183E088
:101FA00080933A0344C18058823008F040C1809148
:101FB0003E0390913F038C3D23E09207A1F583E01F
:101FC0008A838AE289834FB7F894DE01139620E072
:101FD0003EE051E2E32FF0E050935700E49120FF00
:101FE00003C0E295EF703F5FEF708E2F90E0EA3014
:101FF000C0F0C7968D939D932F5F243159F74FBF43
:102000008091E800877F8093E8006AE270E0CE016B
:1020100001960E94DD088091E8008B778093E800AC
:1020200006C1C096E7CF4091400350914103292F4C
:1020300033272330310509F444C078F521303105C8
:1020400009F46FC08BE390E0EBE8F9E02230310552
:1020500009F0EDC02091E800277F2093E80020914F
:102060004203309143038217930708F49C0140E038
:102070002115310509F064C0411162C08091E8006A
:1020800082FDC9CF80913A03882329F2853019F265
:102090008091E80083FFF2CFBECF21323105A9F154
:1020A0002232310509F0C3C04115510509F443C07E
:1020B0004130510509F0BBC082E390E0E9E1F9E06D
:1020C000C9CF992781309105C1F0009759F0029747
:1020D00009F0ADC0E8EDF9E0E4918E2F90E0E8ED75
:1020E000F9E007C0EAE0FAE0E4918E2F90E0EAE040
:1020F000FAE0009709F49BC0ADCFE0EFF9E0E4917E
:102100008E2F90E0E0EFF9E0F4CF4115510571F02A
:102110004130510509F08BC089E090E0E6EBF9E031
:1021200099CF82E190E0E6ECF9E094CF89E090E08D
:10213000EDE9F9E08FCF80E490E0EBE4F9E08ACFBD
:1021400080913A03882309F466CF853009F463CF80
:102150008091E80083FD5FCF8091E80082FD8ECF03
:102160008091E80080FF84CF9091F3008091F2008D
:102170002115310519F08830910550F041E008979C
:1021800009F040E08091E8008E778093E80070CFFE
:1021900044914093F1003196215031090196E8CFE6
:1021A000803809F044C08091E800877F8093E80080
:1021B00080913B038093F1009ECE811138C0109135
:1021C0003E031230A0F58091E800877F8093E800FD
:1021D00010933B030E943108112311F084E005C0E5
:1021E0008091E30087FDFACF81E080933A0342E0DB
:1021F00061EC81E00E94500842E261EC82E00E94C2
:10220000500880913A0313C080913E03813079F4E5
:1022100081E0933009F080E0809339031092E90067
:102220008091E800877F8093E8000E9431088091C8
:10223000E80083FF0AC08091E800877F8093E80070
:102240008091EB0080628093EB00AA96E3E00C940F
:10225000922A882321F00E941E0C0E94250E0895C8
:10226000882339F090912702982B909327020E949F
:10227000250E0895882391F19CEF980F913A80F4F0
:10228000EEEBF1E024EC31E09191891303C0DF0122
:1022900011971C922E173F07B9F70E94250E08953B
:1022A00090E2980F983050F4877091E001C0990F38
:1022B0008A95EAF7892F0E941E0CEFCF9BE5980FB5
:1022C000933028F490E080E00E948A090895885AAB
:1022D0008B3120F490E080E00E9465090895CF934F
:1022E000C82F8823B1F08CEF8C0F813A00F5EEEB0C
:1022F000F1E084EC91E0DF012D91C21761F08A17C3
:102300009B07D1F76C2F8CEB91E00E944B090E9448
:10231000250ECF9108952191C21303C0DF011197BB
:102320001C928E179F07B9F70E94250EEBCF80E213
:102330008C0F883068F4C77021E030E001C0220FB4
:10234000CA95EAF780912702822B80932702DFCF7C
:10235000EBE5EC0FE33040F4F0E0E05BFE4F808112
:1023600090E00E948A09D5CFC85ACB3190F6EC2F65
:10237000F0E0EE0FFF1FED5AFE4F808191810E9429
:102380006509C7CFB0E0A0E0E8ECF1E10C94712A58
:102390006C017B0164E670E088E70E94B127EC01E4
:1023A00097FD12C010E000E0F601E00FF11F8491EC
:1023B00064E670E00E941D28EC01892B29F40F5F70
:1023C0001F4F0E151F0581F70E949328CE01CDB730
:1023D000DEB7E8E00C948D2A8091200390912103D0
:1023E000911103C091E089270895882369F062E084
:1023F00070E087E199E00E94C211892B19F0809169
:10240000200308951092200380912003EBCFCF93F7
:10241000C0912003809121038823D1F00E943F09BD
:10242000605A75418F4F9F4F60931C0370931D033B
:1024300080931E0390931F03C11108C062E070E0F7
:1024400085E199E00E94C211892B29F0C0912003F7
:102450008C2FCF91089581E080932003F7CF0F93C5
:102460001F93CF93DF938B01EA0190913A0394304D
:1024700061F58093E9008FEF9091E800815095FD20
:1024800006C095ED9A95F1F700008111F5CF809186
:10249000E80085FF1AC00E940008811111C08091D8
:1024A000E80085FD06C08091E8008E778093E80003
:1024B000F2CFF80181918F018093F100219779F794
:1024C0008091E8008E778093E800DF91CF911F9193
:1024D0000F91089543E050E0BC0182E00E942F126A
:1024E0000895CF93DF93EC0148E050E0BC0181E018
:1024F0000E942F1288E0FE01A0E3B3E001900D924C
:102500008A95E1F7DF91CF91089560914B01809119
:10251000170380FF20C080914A0143E0849FC001DF
:10252000112485529D4F539A2BB1277F3BB13860C0
:102530005FB7F894FC01649FE00DF11D1124BF0109
:1025400068177907D1F45FBF8FE594E00197F1F741
:1025500000C00000089580914C0190914D0123E04E
:10256000829FF0011124E552FD4F8917A0F61182D8
:10257000108212828F5F3396F8CFFC014191CF0118
:10258000E8E03BB9000000C047FF2BB9440F000052
:1025900000C000C000C02BB900C0EA9591F7D0CFB1
:1025A000B0E0A0E0E6EDF2E10C946F2A7C015B0163
:1025B0006A018091620201E010E08A3010F40AE0C2
:1025C00010E0C1E0D0E0B501C701F6010995811125
:1025D00004C021960C171D072CF4CDB7DEB7EAE036
:1025E0000C948B2ACC9F9001CD9F300D300D11247F
:1025F00090E080E045E34A95F1F7000001968217EC
:102600009307C1F7E0CF80913502811110C080910E
:10261000D80080618093D8008AE18A95F1F700C0E4
:102620008091D90080FF0AC081E08093350281E06B
:1026300090913502913009F080E0089582E0809316
:1026400035020E94E10710923A03F1CF0E94031372
:10265000882359F0E0912403F0912503309729F065
:102660000190F081E02D0995089580E008951F9371
:10267000CF93DF93182FEB010E946F11209739F44D
:10268000812F0E943A11DF91CF911F9108958FE918
:102690009FE00197F1F700C000002197EFCF811173
:1026A0000CC070E0662331F060E089EA0E943713C5
:1026B00081E0089560E08AEAF9CF8130C9F770E0DF
:1026C000662319F060E08EE4F1CF60E08BE4EECF9A
:1026D0000E94620E2FEF84E39CE0215080409040E6
:1026E000E1F700C0000088E19CE00FB6F894A895DF
:1026F000809360000FBE90936000FFCFCF92DF9277
:10270000EF92FF926B017C010E94CB09B701A601F9
:1027100088E090E00E94092BFF90EF90DF90CF902F
:102720000895B0E0A0E0E7E9F3E10C946D2AD82F1A
:10273000C62F142F822E0091170300FF49C08091ED
:1027400018038D1308C080911903861304C080916B
:102750001A03841729F08091DA0282608093DA02EA
:10276000E02FE695F0E0E954FE4F80818093D80297
:10277000802F8E7F8230D1F4E12FF0E0EB5EF74FB7
:10278000C1112BC02491F22FE22F00FF0FC08091C6
:102790004C0190914D0133E0839FD0011124A5524B
:1027A000BD4F891708F48EC00E948512D09318037C
:1027B000C093190310931A03882051F060911703F6
:1027C000709118038091190390911A030E947E134F
:1027D000CDB7DEB7ECE00C94892AEC2EF12CE49115
:1027E0009E2ECE2ED12C26E0D29FC00111242FEF99
:1027F00030E0B9010E94532A8D2F90E0880F991F75
:10280000F5E5F69FA001F79F500D1124841B950B51
:10281000B82EBB0CB80EA9014E195F094C9DC00122
:102820004D9D900D5C9D900D1124F92FCB9DA00125
:102830001124452F5527D901A41BB50BAC9DA00130
:10284000AD9D500DBC9D500D1124D901AB19B1099E
:102850005D01AE9CD001AF9CB00DBE9CB00D1124AB
:10286000AB2FBB272A1B3B0B2C9DD0012D9DB00D00
:102870003C9DB00D11242B2F62307105A1F050F456
:102880006115710509F481CF6130710581F0292F3F
:10289000F52F7BCF6430710569F080F066307105EB
:1028A00009F473CFF4CF2E2FE92FFB2F6ECF2E2FED
:1028B000E52F6BCF292FFE2FEB2F67CFE92FF92DB7
:1028C000252F63CF1196EC9311972C931296FC93BE
:1028D00012978F5F139665CFE7E1F3E0438121E123
:1028E000421B08F440E021E0628181810E94911343
:1028F0000895E7E1F3E0438121E1420F08F44FEF4F
:1029000021E0628181810E9491130895E7E1F3E063
:10291000628121E1621B08F460E021E04381818152
:102920000E9491130895E7E1F3E0628121E1620FD3
:1029300008F46FEF21E0438181810E949113089593
:10294000E7E1F3E0818121E04381628188500E94C8
:1029500091130895E7E1F3E0818121E043816281F1
:10296000885F0E949113089580911B03882319F0BA
:10297000815080931B03609117037091180380911D
:10298000190390911A030E947E13089580911B03EE
:10299000833018F48F5F80931B036091170370914D
:1029A00018038091190390911A030E947E130895D1
:1029B0008091170380FF1EC081708260809317038F
:1029C0008091DA0281608093DA02662351F060918F
:1029D0001703709118038091190390911A030E94B4
:1029E0007E1320E040911A0360911903809118032F
:1029F0000E9491130895809117038695815009F4E0
:102A000081E061E00E94D814089561E081E00E94B5
:102A1000D8140895E7E1F3E083E0808311828FEF1B
:102A2000828383831482A8EDB2E012968C91129770
:102A3000836012968C9360817181828193810E9460
:102A40007E130895A4E0B0E0E8E2F5E10C94752A65
:102A5000409156025091570260915802709159026C
:102A60002FB7F8948091290390912A03A0912B030A
:102A7000B0912C032FBF841B950BA60BB70B11E055
:102A800084369105A105B10590F10E9403138823B6
:102A900099F10E943F096E5F7F4F8F4F9F4F69836F
:102AA0007A838B839C8380912101909122018E5B9C
:102AB0009D4F4091200150E04530510510F044E019
:102AC00050E0BE016F5F7F4F0E94DA2A84E090E001
:102AD0000E94DD29182F882351F00E943F0960933E
:102AE0005602709357028093580290935902812F97
:102AF0002496E4E00C94912A0E943F09009163021D
:102B0000109164022091650230916602600F711F7E
:102B1000821F931FC0CF4F925F926F927F928F92CE
:102B20009F92AF92BF92EF92FF920F931F93CF931A
:102B3000DF937B01FB0140805180628073809FB7EF
:102B4000F8948090290390902A03A0902B03B090D2
:102B50002C039FBF84189508A608B708F4E68F16C3
:102B60009104A104B10418F4C1E0442329F1C82F51
:102B7000880FDD0BFE0183E0EE0FFF1F8A95E1F762
:102B8000E050FF4F818192818E5B9D4F408150E0EC
:102B90000417150708F4A801B9010E94DA2ACE012A
:102BA0000E94DD29C82F882339F00E943F09F701D0
:102BB00060837183828393838C2FDF91CF911F91E8
:102BC0000F91FF90EF90BF90AF909F908F907F906C
:102BD0006F905F904F900895A1E0B0E0E2EFF5E1D3
:102BE0000C94752A8091200389832091550290E0EE
:102BF00041E02817190609F440E001E010E09E01C9
:102C00002F5F3F4F6EE572E086E00E948B152196A4
:102C1000E4E00C94912AA8E0B0E0E1E1F6E10C9444
:102C2000752A85E0E7E1F3E0DE01119601900D924F
:102C30008A95E1F78091D8029091D902A091DA02A9
:102C40008E839F83A88741E08885811101C040E081
:102C500008E010E09E012F5F3F4F6AE572E085E0DB
:102C60000E948B1581111092DA022896E4E00C94F0
:102C7000912A4F925F927F928F929F92AF92BF92D2
:102C8000CF92DF92EF92FF920F931F93CF93DF9338
:102C90000F92CDB7DEB7C62E4A015901482E880FD4
:102CA0005508C2010E94DD29782E882309F480C0CE
:102CB000C20133E0880F991F3A95E1F7FC01E0501B
:102CC000FF4F438150E04115510511F041E050E0C4
:102CD00080509F4FFC01648175816E5B7D4FCE01FA
:102CE00001960E94DA2AF401408151816281738148
:102CF0002FB7F8948091290390912A03A0912B0378
:102D0000B0912C032FBF841B950BA60BB70B8436F9
:102D10009105A105B10540F4B701C8010E94AF09B2
:102D20009981891709F444C00C2C000CDD08C601F8
:102D30000E94DD29782E811113C0712C872D0F90F0
:102D4000DF91CF911F910F91FF90EF90DF90CF9087
:102D5000BF90AF909F908F907F905F904F9008951D
:102D6000C60123E0880F991F2A95E1F7FC01E05086
:102D7000FF4F438150E0E416F50608F4A7018050A8
:102D80009F4FFC01648175816E5B7D4FC5010E9480
:102D9000DA2AB701C8010E94AF0999818913CDCF02
:102DA0000E943F09F4016083718382839383C6CFBD
:102DB000A701B801C5010E94DA2AC0CFA1E0B0E0A6
:102DC000E4EEF6E10C94702AEE24E394F12C08E48E
:102DD00012E09E012F5F3F4F4EE352E063E082E03E
:102DE0000E943916C82E882339F100E080E01DC00A
:102DF000D0906802D00E2D2D30E0A90149575D4FCB
:102E00007A01E1E0F0E0EC0FFD1FE00FF11D108111
:102E1000FA019081191BB12E1B149CF0912F17FD04
:102E200090E0191B111118C00F5F909167020917EC
:102E3000F8F281110E94150C8C2D2196E9E00C947A
:102E40008C2ABA94F70180818F5F808360E08D2D9A
:102E50000E944F138C2DE0CF1F5FF70180818150BE
:102E6000808361E08D2D0E944F138C2DDBCFA4E079
:102E7000B0E0EDE3F7E10C94712A6B0184E0E82EF9
:102E8000F12C03E412E09E012F5F3F4F4AE352E032
:102E900061E080E00E943916882361F049815A81FF
:102EA0006B817C81409336025093370260933802E5
:102EB0007093390240913602509137026091380286
:102EC00070913902F60140835183628373832496A3
:102ED000E8E00C948D2A9091740292FB222720F94D
:102EE000281779F080FB92F9909374026091730235
:102EF0007091740284E090E00E94152B82E00E94A1
:102F00000E0D089567EE7EEF90E080E00E94152B95
:102F100060E082E090E00E94F72A60E083E090E0C9
:102F20000E94F72A1092900210928F0260E074E1E2
:102F300084E090E00E94152B60E086E090E00E9423
:102F4000F72A6FEF87E090E00E94F72A40E050E018
:102F5000BA0188E090E00E94092B60E08DE090E0EB
:102F60000E94F72A40E050E0BA0188E190E00E9418
:102F7000092B60E087E190E00E94F72A40E050E0F2
:102F8000BA018CE190E00E94092B70E060E080E2E1
:102F900090E00E94152B40E050E0BA0188E190E0FB
:102FA0000E94092B40E050E0BA018FE090E00E94BF
:102FB000092B40E050E0BA0183E190E00E94092B28
:102FC00008951F920F920FB60F9211242F933F93E3
:102FD0004F935F936F937F938F939F93AF93BF9321
:102FE000CF93DF93EF93FF93D091E900DF7080914F
:102FF000EC00C82FC17080FDC0E81092E9008091FC
:10300000F000877F8093F00078940E94780E1092F1
:10301000E9008091F00088608093F000CD2BCF70A4
:10302000C093E900FF91EF91DF91CF91BF91AF91F4
:103030009F918F917F916F915F914F913F912F91D0
:103040000F900FBE0F901F9018951F920F920FB602
:103050000F9211242F933F934F935F936F937F931E
:103060008F939F93AF93BF93EF93FF938091E10072
:1030700082FF09C08091E20082FF05C08091E100DB
:103080008B7F8093E1008091DA0080FF24C08091E3
:10309000D80080FF20C08091DA008E7F8093DA0014
:1030A0008091D90080FF9DC080E189BD82E189BD0A
:1030B00009B400FEFDCF81E080933A0380912D0397
:1030C000811109C00E94E1070E9482088091E200FC
:1030D00084608093E2008091E10080FF17C08091BE
:1030E000E20080FF13C08091E2008E7F8093E200B7
:1030F0008091E20080618093E2008091D80080623C
:103100008093D80019BC85E080933A038091E10058
:1031100084FF2BC08091E20084FF27C080E189BD3D
:1031200082E189BD89B5982F917080FFFBCF809196
:10313000D8008F7D8093D8008091E1008F7E8093AE
:10314000E1008091E2008F7E8093E2008091E200B6
:1031500081608093E20080913B03882309F447C09B
:1031600084E080933A0380913A038091E10083FFE9
:1031700027C08091E20083FF23C08091E100877F18
:103180008093E10082E080933A0310923B038091A8
:10319000E1008E7F8093E1008091E2008E7F80933A
:1031A000E2008091E20080618093E20042E060E012
:1031B00080E00E9450088091F00088608093F000C9
:1031C000FF91EF91BF91AF919F918F917F916F91FF
:1031D0005F914F913F912F910F900FBE0F901F90D5
:1031E000189519BC10923A0310922D0374CF809158
:1031F000E30087FD93E090933A03B5CF78941F9254
:103200001FB61F9211248F939F93AF93BF9380910A
:10321000290390912A03A0912B03B0912C030196CE
:10322000A11DB11D8093290390932A03A0932B0322
:10323000B0932C03BF91AF919F918F911F901FBEB0
:103240001F9018959C014FB7F89480912903909195
:103250002A03A0912B03B0912C034FBF821B930B29
:1032600008952FB7F8948091290390912A03A09193
:103270002B03B0912C032FBF08950F931F93CF936F
:10328000DF93C62FD42F022FFC0182818823A9F05F
:10329000609346030E943119909345038093440341
:1032A000C77081E001C0880FCA95EAF70E9430110B
:1032B000DF91CF911F910F9108958091460368137C
:1032C00034C080914403909145030E942219883CA8
:1032D000910558F510E21D0FCD17B9F080E28C0F63
:1032E000883040F4C77081E001C0880FCA95EAF7C2
:1032F0000E942911183048F481E09D2F977001C079
:10330000880F9A95EAF70E94301170E060E0802FF4
:103310000E943713183060F6D77081E001C0880F23
:10332000DA95EAF70E942911C3CFC77081E001C086
:10333000880FCA95EAF7F6CFA5E0B0E0E2EAF9E136
:103340000C946D2A7C01FC0183819481892B31F0DE
:103350008081918189238F3F09F02DC42596ECE06F
:103360000C94892A0E944F0C182F682F89819A810A
:103370000E94C20C69817A81812F0E94D80A8C0137
:10338000FC01E851FC47E730F10588F5E95CF44DB4
:103390000C94BE2A26E241EE61EEC7010E943D195F
:1033A00080911D028770D1F2F70182818823B1F2EA
:1033B0008091740282FFD2CF82E00E940E0DCECFA8
:1033C00027E245EE65EEE9CF26E241EE60EEE5CF7D
:1033D00027E245EE64EEE1CF26E241EE62EEDDCF7C
:1033E00027E245EE66EED9CF28E241E0EBCFF701C8
:1033F0008281882309F406C410924603C8019057BD
:10340000839708F0E9C384E090E00E94F12A90934A
:10341000740280937302F801E150F047E232F10543
:1034200020F4E25CF44D0C94BE2A8091730281601A
:103430008093730295C080917402886080937402B7
:103440008FC0809173028260F3CF80917302846099
:10345000EFCF809173028860EBCF8091740281601E
:10346000EDCF809174028260E9CF80917302806118
:10347000DFCF809173028062DBCF80917302806422
:10348000D7CF0E94620E809173028068D1CF809165
:1034900073028C60CDCF809174028360CFCF809116
:1034A00073028E7FC5CF80917402877FC7CF8091D2
:1034B00073028D7FBDCF809173028B7FB9CF8091D6
:1034C0007302877FB5CF809174028E7FB7CF8091D2
:1034D00074028D7FB3CF809173028F7EA9CF8091CC
:1034E00073028F7DA5CF809173028F7BA1CF0E9445
:1034F000620E809173028F779BCF80917302837FDE
:1035000097CF809174028C7F99CF8091730282FB58
:10351000992790F921E0922790FB82F990FB83F99B
:1035200087CF80917402982F909591708E7F892B10
:1035300090FB81F983CF90917302892F8F7B96FF47
:10354000806476CF0E94620E90917302892F97FB60
:1035500087F980586DCF61E08EE090E00E94F72AF5
:10356000609173027091740284E090E00E94152BC8
:103570000E94620E15CF60E0EFCF90917302892F09
:103580008F7E94FF806154CF90917302892F8E7F3C
:1035900090FF81604DCF90917402892F877F93FFB8
:1035A00088604CCF8091C40181110FC089E2EEEB9D
:1035B000F1E024EC31E09191891303C0DF01119710
:1035C0001C922E173F07B9F71AC385E3F0CF8091FD
:1035D000170380FF15C08E7F809317036091170338
:1035E000709118038091190390911A030E947E1321
:1035F0008091DA0281608093DA020E948512D0CE37
:1036000081608093170361E086950E94D814C8CE2C
:103610004BEF54E165E075E10E94C509C1CE45E07C
:1036200055E16BEF74E1F8CF40EA54E16AEA74E1E6
:10363000F3CF4AEA54E160EA74E1EECF46E854E1A0
:1036400063E974E1E9CF43E954E166E874E1E4CF6A
:103650004CE654E169E774E1DFCF49E754E16CE6F9
:1036600074E1DACF44EB54E166EC74E1D5CF46EC7B
:1036700054E164EB74E1D0CF61E081E0C6CF0E94F9
:10368000620EFFEF24E33CE0F15020403040E1F7D0
:1036900000C0000081E08093E00080E28093D800C9
:1036A0001092C9008FE19EE40197F1F700C000007D
:1036B00087E090EBDC018093520790935307A0932F
:1036C0005407B093550788E19CE00FB6F894A8958D
:1036D000809360000FBE90936000FFCF6FEF7FEF8D
:1036E00090E080E00E94152B0E9468138091740284
:1036F00082FB882780F991E089270E946B17F701E8
:10370000828100811181882309F449C0C8010E9487
:103710004F0CD82E682FC8010E94C20CB8018D2D05
:103720000E94D80A0E94F70A8C01882EF701A28015
:10373000958092943FE0932280911D028770F1F072
:10374000CA2CAA20E1F0812F807F803451F080E2E2
:10375000800F883098F0911004C0812F807E8032D5
:1037600069F08091740282FF09C082E00E940E0D10
:1037700080911D028770CC24C3948111C12CB12E7D
:10378000B2942FE0B222FBE0FB1508F474C0EB2DDD
:10379000F0E0E05AF44D0C94BE2A80E0AECFC801B0
:1037A0000E94900CD82EBACF212F2F70D22E107FCE
:1037B00019F0D29490EFD922AA20B9F0DD2069F057
:1037C00080E2800F883010F0811009C080912702BC
:1037D000D82AD09227020E94250E802F4AC08091BD
:1037E0002602D82AD0922602F6CF802F0E943A11C4
:1037F000DD2009F440C0005E083010F0811004C0E4
:103800008D2D0E941E0C06C0D09480912602D822D5
:10381000D09226020E94250E2EC0312F3F70D32E4B
:10382000107F103219F0D29480EFD822882089F0CE
:1038300081E0881609F47CC0AA2009F486C099208A
:1038400009F47CC0F701858180FFC7CF8F70858325
:1038500075C02091740222FD43C0AA20D9F1DD2059
:1038600039F080912702D82AD09227020E94250E93
:1038700080E00E946F11EB2DE850FF0B349710F49D
:103880000E942613CC20A9F080911D0280FD11C05A
:10389000F70112828595859585950E942A0DC701AD
:1038A0000E949C1980911D028595859585950E94A1
:1038B000FC0C85E0F701DE01119601900D928A95CE
:1038C000E1F709811A81C8010E94900CB8010E9499
:1038D000D80A44CD80E00E943A11DD2061F290CFF9
:1038E000AA20A1F0909128028D2D892B911003C060
:1038F0000E943011C0CFE1E09E12FACF22FFBBCF71
:10390000891709F4B8CF80932802B5CF911006C06B
:103910000E94180C8D2D0E942911ADCFF1E09F1649
:1039200009F4A9CF8D2D0E9429110E94180CA3CF54
:10393000AA2031F025E0291508F49DCF8D2DD8CF90
:1039400034E0391508F497CFE5CF992019F3F9E35E
:103950008F122AC12FEF37EE83E021503040804094
:10396000E1F700C0000020C1812F86958695837005
:1039700061F0813009F07FCFC8019370A11002C0BF
:1039800080E090E00E94650976CFC8019370A11095
:1039900002C080E090E00E948A096DCF812F837081
:1039A00009F03FC0A11067CF402F42954695477060
:1039B000440F440F802F8F7090E0042E02C0880FB8
:1039C000991F0A94E2F730E020E004FF09C02FE0DD
:1039D00030E002C0220F331F4A95E2F72095309560
:1039E000169516951370123099F078F440918F0265
:1039F00050919002113039F0822B932B8423952320
:103A00000E943A0D38CF842B952B822B932BF8CF25
:103A1000822B932B20918F02309190028227932743
:103A2000EFCF8695AA2011F0812F8170882309F4A9
:103A300022CF402F429546954770440F440F802F68
:103A40008F7090E0042E02C0880F991F0A94E2F74D
:103A500030E020E004FF09C02FE030E002C0220F78
:103A6000331F4A95E2F720953095169516951370F9
:103A7000123099F078F440919102509192021130F5
:103A800039F0822B932B842395230E94F70CF3CEDD
:103A9000842B952B822B932BF8CF822B932B209169
:103AA00091023091920282279327EFCF1F70AA20B4
:103AB00029F0812F0E942A0D802F1ACF802F0E947B
:103AC0002911812F0E94FC0CD6CE802F92EF8916EF
:103AD00099F1981570F0E0EF8E16D1F0F1EF8F1696
:103AE00091F0AA2009F45BC0911077CE812F8F71DD
:103AF00027C023EF821639F134EF8312F2CF809181
:103B0000740282FD2EC0812F8F71AA20D9F218C0B5
:103B1000AA2069F084E0891508F4ADCE1F7181E018
:103B200090E002C0880F991F1A95E2F7B8CF95E090
:103B3000991508F4A0CEF2CF812F8F71A110C2CFBA
:103B40000E942A0D98CE90E080E0AA2009F49DCF33
:103B50001F7181E090E002C0880F991F1A95E2F76B
:103B600094CFAA2089F01F71812F0E942A0D809185
:103B7000740282FF07C0E8E01E9FC0011124836029
:103B800080931D02812FDCCF81E00E940E0DF1E0B9
:103B9000F91508F070CE82E00E940E0D6CCE9920CF
:103BA00039F0893309F4D6CE802F0E943A1163CEC2
:103BB000812F8F7187CF85E0DE01119601900D92E4
:103BC0008A95E1F7F701228189819A812111CACB77
:103BD0000E94900C182FCECB0631FCE71F0729F569
:103BE000809127028A7A91E009F490E09093C401D1
:103BF00069E2811165E38CEB91E00E944B090E9420
:103C0000250ECECB06312CE7120709F4CBCC8091E0
:103C100027028272F801E052F847E531F10508F019
:103C20006ECDE459F44D0C94BE2A03303CE71307E3
:103C300009F454CD50F401159CE7190709F41FCD80
:103C400001301C4709F450CD5ACD0B35FCE71F0756
:103C500009F4A3CD0C352CE7120709F447CD0A353A
:103C60001C4709F04CCD81E048CD1F93CF93DF93E3
:103C70008091EA01807F09F04BC08091E7018823A1
:103C800009F446C080911C02C091EB014091E5010E
:103C90005091E6016091E8017091E901D42FD5239C
:103CA00016E0C817A9F190E061157105A9F1DF3F91
:103CB00099F1189FF001199FF00D1124DF01A45113
:103CC000BE4F11962C911197251326C02C912413C9
:103CD00023C012962C91129721111EC013962D917C
:103CE0003C91261B370B283C3105B0F48091EA014A
:103CF0008F7080618093EA01EF50FE4F80818F705A
:103D00008061808385EE91E00E949C190E94450CA1
:103D1000DF91CF911F91089501968770C2CFA1E1E5
:103D2000B0E0E5E9FEE10C946D2A8C0185E0F80134
:103D3000DE011D9601900D928A95E1F7F801E2806F
:103D400085EE882E81E0982E4091E8015091E9019E
:103D50004115510509F430C19091E5012091E6012A
:103D6000892F82238F3F09F427C1D080C180A3808F
:103D7000B480F090E701B501641B750BFF2009F4D6
:103D8000E7C08091EA01382F307F683C710508F068
:103D9000ABC0311178C0FE2C2C1114C09D1112C083
:103DA000E11010C08F7080618093EA01C4010E940D
:103DB0009C198091EA01F80185838F2D6196ECE0D2
:103DC0000C94892AA114B104C9F18D2D8C218F3F47
:103DD000A9F181E08E2580FF05C04E2D6C2D8D2D23
:103DE0000E94250CA114B10459F18D2D8C218F3F17
:103DF00039F181E08E25F82FF170BF2E80FF39C098
:103E00004E2D6C2D8D2D0E94250CA82E811131C0B8
:103E1000DD86CE868D859E850E94830C292F229576
:103E20002F70243078F49F702230A8F09923B9F0D5
:103E3000F8019581907F99F4FA2CBFCF80E0CBCF29
:103E400080E0D9CF2A5F2F70223068F0C8010E942D
:103E50009C19AB2CF1CF992311F0882369F3805E74
:103E6000883050F3F3CF803F38F3815F833070F7B1
:103E7000E3CFEE2009F4A1CF8091EA018160809325
:103E8000EA01F12C9ACF2C1105C09D1103C0EE2040
:103E900009F477C0C8010E943F0D882309F1EE2084
:103EA000F9F08091EA01803270F02091E5013091C3
:103EB000E60138872F831986BB86AA868C87CE01B8
:103EC00007960E949C1986E0F801A5EEB1E00190EA
:103ED0000D928A95E1F70E94351EFF24F3946DCF71
:103EE000C8010E949C19F9CF31110AC085EE91E0FA
:103EF0000E949C1986E0F40111928A95E9F7C1CFDE
:103F00002C110EC09D110CC0E1100AC08583C801A0
:103F10000E949C1986E0F40111928A95E9F74DCF31
:103F2000C8010E943F0D8823D9F2EE20C9F280918A
:103F3000EA01803240F22091E5013091E6013A83B6
:103F400029831B82BD82AC828E83CE010196B9CFBC
:103F5000683C7105F8F6FE2CEE2011F22C111EC003
:103F60009D111CC08091EA0180FD0FC0982F907FA9
:103F700061F08583903F31F0982F907F905F8F7034
:103F8000892B8583C8010E949C1986E0F801A5EE63
:103F9000B1E001900D928A95E1F70FCFC8010E9420
:103FA0003F0D811190CF8091EA0181608093EA01F9
:103FB000C8010E949C1901CFEE2009F491CFC801DD
:103FC0000E943F0DF82E882309F48ACF86E0F8017D
:103FD000A5EEB1E001900D928A95E1F78091E5019F
:103FE0009091E6010E94830C0E94351EE6CEA7E167
:103FF000B0E0EDEFFFE10C94762A4B8B5C8B6D8B80
:104000007E8B8F8B6111109226021A8A198A85E0A5
:10401000FE017396DE011D9601900D928A95E1F7DF
:1040200086E0FE013D96DE01179601900D928A957D
:10403000E1F7CE0107960E948F1E811112C086E023
:10404000FE013796DE01119601900D928A95E1F7F7
:104050008A859B85892B29F088859F8189238F3FBD
:1040600081F516E080911C029091EB01891317C035
:104070006796E3E00C94922A96E0929FD001939F7A
:10408000B00D1124A451BE4FFE01319601900D9246
:104090009A95E1F78093EB010E94450CE2CF819F56
:1040A000C001112484519E4F0E948F1E882301F36A
:1040B00080911C0290E001968770992780931C02E2
:1040C000D1CF2091EB0130E0C9010196877099278B
:1040D00040911C024817190679F60E94620E109250
:1040E000EB0110921C0286E0E5EEF1E0DF011D928B
:1040F0008A95E9F7B6CFA0E1B0E0E1E8F0E20C94F0
:104100006C2A8E01075F1F4F88E0D8011D928A95A7
:10411000E9F78BE8C82E81E0D82EF12CE12CAA24F7
:10412000A394B12C27E9822E21E0922EF6018191F1
:104130006F018F3F09F442C0F894E82FE295EF70C9
:10414000F0E021A18F70A50102C0440F551F8A9590
:10415000E2F7CA01922F982B91A392A1809589230F
:1041600082A3789400C0EFE8F1E0712C31E0219156
:104170002F3F09F46BC0A22FA295AF70B0E09096CC
:104180008C9190E02F7002C0959587952A95E2F763
:1041900080FD5CC0832F782A330F8E169F0639F777
:1041A000F601319780818F3F11F00E94DC0950EABF
:1041B0005A95F1F7F801EE0DFF1D70828FEFE81AA6
:1041C000F80AA4E0EA16F10409F0B0CF48E050E0A4
:1041D000B80189E692E00E94CD2A009741F028E0DC
:1041E000F801A9E6B2E001900D922A95E1F700915D
:1041F0007202892B69F181E080932D020E943119AE
:1042000090932C0280932B0280912B0290912C0290
:104210000E942219059700F110E00A581D4F44E052
:1042200050E069E672E0C8010E94CD2AF12C892B8A
:1042300051F084E0E9E6F2E0D80101900D928A9510
:10424000E1F7FF24F39410922D0207C080E0A3CF82
:1042500080912D028111D8CFF12C0E940313E82EFA
:10426000E0917202882309F494C019821A821B8299
:104270001C820E2F10E00A581D4F809162028A3076
:1042800008F051C047E357E1BE016F5F7F4FC8019F
:104290000E94D012882309F46BC04EED56E1BE0196
:1042A0006F5F7F4FC8010E94D012882309F460C05D
:1042B00042E255E1BE016F5F7F4FC8010E94D012FC
:1042C000882309F455C04BE056E1BE016F5F7F4F74
:1042D000C8010E94D012882309F44AC04CEE55E16F
:1042E000BE016F5F7F4FC8010E94D012882309F47E
:1042F0003FC0109262028091710290E044E050E071
:10430000BE016F5F7F4F8A589D4F0E94CD2A21E0EA
:1043100020933402892BF1F4E12C8E2D8F296096A5
:10432000EDE00C94882A80912E0290912F020E9439
:104330002219843F914008F0A5CF80913402882350
:1043400059F384E0FE013196DF011D928A95E9F769
:1043500010923402E0917102F0E0EA58FD4F898139
:104360009A81AB81BC8180839183A283B383D5CFB3
:10437000809162028F3F31F08F5F809362028A30BA
:1043800008F4B9CF0E94311990932F0280932E0226
:10439000D4CFF0E0EA58FD4F84E0A3E4B2E001900E
:1043A0000D928A95E1F764E070E083E492E00E9468
:1043B000AF098093420240918C0250E060918B02E1
:1043C00070E069577D4FCE0101960E94DA2A8981FB
:1043D0008093480261E070E0CE0101960E94AF092F
:1043E000809347028090490290904A02A0904B022D
:1043F000B0904C028091300290913102A091320233
:10440000B091330288169906AA06BB06D1F08092B5
:10441000300290923102A0923202B09233020E9496
:10442000031381110EC00E943F09861A970AA80A39
:10443000B90A8092630290926402A0926502B092DF
:10444000660288E0EDE4F2E0DE01119601900D9243
:104450008A95E1F72981822F86950A81DB80CC80BD
:104460001885109254021123A1F010FF0AC09091F8
:10447000170320FF15C091609093170360E00E941E
:10448000D81411FF06C020E04C2D6D2D802F0E9406
:10449000911380915502882371F00E9407123DCF3D
:1044A0009E7F909317038091DA0281608093DA02F5
:1044B0000E948512E6CF0E94EC112FCFA5E0B0E05C
:1044C000E4E6F2E20C94752A0E9431198C01809185
:1044D000290290912A0280179107A1F08FEF89831A
:1044E0008A831B820E9431198160782F9D838C837F
:1044F00049815A816B818D810E94F71F10932A0296
:10450000009329022596E4E00C94912A1F921FB68D
:104510001F9211248F939F93AF93BF938091280391
:10452000811113C08091290390912A03A0912B033C
:10453000B0912C034196A11DB11D80932903909346
:104540002A03A0932B03B0932C03BF91AF919F91AB
:104550008F911F901FBE1F90189500D000D000D0E3
:104560000F92CDB7DEB785B7806885BF85B7806805
:1045700085BF84B7877F84BF0FB6F894A8958091D4
:104580006000886180936000109260000FBE80E838
:1045900090E00FB6F89480936100909361000FBE95
:1045A0008AED99E09093BB018093BA010E94E107E4
:1045B0000E9482088091E20084608093E2007894F7
:1045C00080913A038823A1F01091E9001F70909127
:1045D000EC00892F817090FD80E8182B1092E90083
:1045E0008091E80083FD0E94780E1F701093E9000F
:1045F00082E084BD93E095BD9AEF97BD80936E00F5
:104600001092630210926402109265021092660288
:104610000E9403138093380180913801882309F4A4
:1046200061C010924A018AE080934B010E940313FB
:1046300081110E94F1289091380181E09827909390
:104640008B02282F291B20936802909138018093B8
:104650008C0290913801809367028091380181111A
:1046600006C085E38093420186E680934101209154
:104670004201E22FE295EF70F0E061A12F7081E03E
:1046800090E0AC0101C0440F2A95EAF7342F309531
:10469000362331A322A1242B22A320914101E22F12
:1046A000E295EF70F0E031A12F7001C0880F2A95DC
:1046B000EAF7982F9095932391A392A1892B82A337
:1046C0008FE891E00197F1F700C0000010918C0293
:1046D0006DE872E042E451E081E4E82E81E0F82EDA
:1046E000FB012CC08AE080934A019ECFDA012D9114
:1046F000AD01822F82958F7090E0DC0190968C91B5
:1047000090E02F7002C0959587952A95E2F7817009
:10471000D7019D917D01292F22952F7030E0D9017D
:1047200090962C9130E09F7002C0359527959A9510
:10473000E2F790E020FD92E0892B81938E2F861B7B
:104740008117A0F2809138018091380194E08111A5
:1047500090E09093720284E0891B8093710284E35D
:104760000E94DC0986EC0E94DC0987E90E94DC09D2
:1047700084E90E94DC090FE811E0F80181918F01C2
:104780008F3F11F00E94DC09F1E007391F07A9F7FC
:1047900088E0E6E7F2E0DF01282F1D922A95E9F78D
:1047A000E9E6F2E0DF011D928A95E9F790E080E00A
:1047B0000E94F12A873E9E4F11F00E94821782E0EC
:1047C00090E00E94E32A80937E0284E090E00E94C1
:1047D000F12A909374028093730283E090E00E9428
:1047E000E32A90E00E943A0D82E08093D30280E8B1
:1047F000809347030E94AB276DE070E08FE393E066
:104800000E94C211892BE9F58091D30263E070E028
:1048100081FDDBC08CE393E00E94C211892B89F5F6
:104820006DE070E08CE293E00E94C211892B49F5A3
:104830000E943F09605A75418F4F9F4F60931C0340
:1048400070931D0380931E0390931F03EAE4F3E02B
:1048500080E094E0DF019C011D9221503040E1F79F
:10486000F0935107E09350078FEF9FEF9093490328
:104870008093480381E0809321038093200310926A
:10488000D40280917502811139C090E080E00E94CD
:10489000F12A873E9E4F21F00E9482170E940A153E
:1048A00088E090E00E94EB2A60931703709318034E
:1048B0008093190390931A038091DA0283608093A6
:1048C000DA026E7F71F40E940A1588E090E00E947F
:1048D000EB2A609317037093180380931903909346
:1048E0001A030E94CB098091170380FF04C060E087
:1048F00086950E94D81481E0809375020E9403136C
:10490000811102C00E94F42889E391E0909325036D
:104910008093240350E4E52E22242394312C8091AB
:104920003A0300E112E1853009F48AC00E947B203D
:104930003FE7C32E32E0D32E46E7A42E42E0B42E4A
:10494000D501F60191918D9127E832E02E173F07AE
:1049500009F480C09817B1F30E940313782E10E079
:10496000D5010D915D01F60181906F01801629F14D
:10497000F12C992493948026882D8921B1F07720F9
:10498000A1F0F9821A8391E0802F892109F490E047
:104990009B830E9431198160782F9D838C8349818C
:1049A0005A816B818D810E94F71FF394990CF8E076
:1049B000FF12E2CFF601319700831F5F183081F6B6
:1049C0000E943F09DD24D3944AC089E393E024CFB9
:1049D00080913A03843029F10E94EC11109228034F
:1049E00088E190E00FB6F894A895809360000FBE20
:1049F000E092600083B7817F846083BF83B781606A
:104A000083BF7894889583B78E7F83BF0FB6F89461
:104A1000A89580916000886180936000109260008A
:104A20000FBE80913903882359F00E947B20E6E76E
:104A3000F2E08191811179C292E0EE37F907C9F76E
:104A400080913A03853009F4C3CF0E94620E0E9420
:104A500026136CCF981380CF0E945E22D12C0E9427
:104A60000313B12CF12C80918C02B81608F468C0A5
:104A7000F1100E94150C80912103882309F41FC1B5
:104A80008091D5029091D6020E942219C29708F413
:104A9000F6C00E9431199093D6028093D5028AE421
:104AA00093E090935107809350070E94031388234B
:104AB00009F428C185ED97E00E94170E8EEC97E06F
:104AC0000E94170E87EC97E00E94170E8FEB97E07D
:104AD0000E94170E809191029091920220918F0274
:104AE00030919002822B932B292F3327E0E0211560
:104AF000310511F0C901E8E09C0104E036952795E5
:104B00000A95E1F72115310511F0EC5FC9019C010F
:104B100036952795369527952115310511F0EE5FCD
:104B2000C90196958795892B09F0EF5F8CE797E08F
:104B3000E73008F087C0F0E0EF57F44D0C94BE2A40
:104B40000B2D10E0F801EE5BFE4F8081E82FE2951F
:104B5000EF70F0E0E0A1F0E08F7002C0F595E7950E
:104B60008A95E2F7E170D801AF5BBE4F2C91A22F7E
:104B7000A295AF70B0E090968C9190E02F7002C03B
:104B8000959587952A95E2F780FD52C080E08E2B9F
:104B9000D801A357BD4FEC919E2F9370891709F44C
:104BA00045C0EE0FEE0FE82BEC93C0908B02CB0CC0
:104BB000EF70F0E0E956FE4F07571D4F8081D80196
:104BC0009C91890F8C93A12C843084F0EC2DF0E023
:104BD000E957FD4F80818F5F80830E940313A82EC9
:104BE000882341F160E08C2D0E944F13F8018081F1
:104BF0008D3F84F4EC2DF0E0E957FD4F808181502A
:104C000080830E940313A82E8823B9F061E08C2DC5
:104C10000E944F13D8018C91082E000C990B64E070
:104C200070E00E94AA2AF8018083FA28B3941BCF6F
:104C300082E0ADCFAA24A394D9CFAA24A394EACF2B
:104C400087EB97E00E94170E0E942613182F8CE620
:104C500097E010FF02C084E797E00E94170E8CE5F2
:104C600097E011FF02C084E697E00E94170E8CE4E3
:104C700097E012FF02C084E597E00E94170E809132
:104C8000480390914903892B09F078C08091200353
:104C90008823A9F00E943F0900911C0310911D0375
:104CA00020911E0330911F03601B710B820B930B2D
:104CB0006F3F7F4F8F4F9F4710F40E94EC11D11030
:104CC00001C0F1100E9407120E9426139091D70292
:104CD000891709F424CE8093D7020E943F091FCE82
:104CE0008FEA97E0AFCF83EA97E0ACCF8EE997E009
:104CF000A9CF89E997E0A6CF8FE897E0A3CF87E80F
:104D000097E0A0CF80915007909151078A5493402B
:104D10009C013C5F21303440A0F020E034E0281BAF
:104D2000390B4091480350914903ECE4F3E0280F1C
:104D3000391F8217930740F050934903409348036B
:104D40009ECF20E034E0EDCF6491DC01A65BBC4F48
:104D50007C91671781F06C93BC01A6E0769567950E
:104D6000AA95E1F7D10102C0AA0FBB1F6A95E2F72D
:104D7000BD014A2B572B01963196DBCF8091210341
:104D8000882309F483CF8091D40281117FCF0E94C0
:104D9000071220914803309149032115310509F488
:104DA00075CF80E0082F10E02101082E02C0440CCE
:104DB000551C0A94E2F7A20142235323452B11F418
:104DC0008F5FF0CF9091D30290FF97C0880F880F2C
:104DD000880F8093450110924801895F80934601B6
:104DE00087E08093490124E630E047E050E063E447
:104DF00071E088E70E944B28892B09F047CFA80172
:104E000026E0440F551F2A95E1F78091D30280FFD9
:104E100085C0E3E9F2E0DF012E2D1D922A95E9F726
:104E20008FEA91E09F838E8307EA11E0AE81BF8114
:104E30006D91BF83AE83F80181918F01840F952F0F
:104E4000911D9C01265B3C4F3901E62FF0E0ED56A9
:104E5000FD4F30E020E097E0992E921AC22C022EEE
:104E600001C0CC0C0A94EAF7530190E0D5018D9172
:104E70005D018C21692D691B6770862E062E000C42
:104E8000770BB82F01C0BB0F8A94EAF78B2E719570
:104E9000619571096770772701C086956A95EAF771
:104EA000882A8081882A80829F5F9830F9F62F5F58
:104EB0003F4F31962830310571F6EE81FF81E75B77
:104EC000F14009F0B3CF04E610E020E430E043E91C
:104ED00052E060E488E70E946C28892B09F0D6CE66
:104EE000409450948091480390914903482259225C
:104EF0005092490340924803C9CE8295880F880F8B
:104F00008074809345019801369527952093480138
:104F1000815C809346011092490165CF465B5C4FEE
:104F200004E610E020E430E0D4CF09BD19BD09B497
:104F300000FEFDCF8091D8008F7D8093D8008091B6
:104F4000E00082608093E0008091E00081FDFCCF72
:104F50000E94620E75CD1092B9008CE08093B8006B
:104F60000895B0E0A0E0E7EBF7E20C946E2AB82ECB
:104F7000EB010E9431196C01EE24E394F12CC43151
:104F8000D10560F025E0E22EF12CCF3FDC0731F0B7
:104F9000CE0164E170E00E94532A7B0184EAA82ECE
:104FA00094E8992E1092BC00A092BC000E94311986
:104FB0008C018091BC0087FF0DC08091B900887F73
:104FC0008830F9F08091B900887F8031D1F00FEFFF
:104FD0001FEF08C0C8010E942219E816F90648F719
:104FE0000EEF1FEFCF3FDC07E9F2C6010E94221946
:104FF000C817D907B8F6C801CDB7DEB7EBE00C94F7
:105000008A2AB092BB009092BC000E9431198C0198
:105010008091BC0087FF0AC08091B900887F8831E9
:1050200011F08034A1F610E000E0E5CFC8010E9445
:105030002219E816F90660F7D3CF0F931F93CF9389
:10504000DF93EB018093BB0084E88093BC000E9457
:1050500031198C018091BC0087FF11C02091B900EB
:10506000287F81E090E0283211F490E080E0919573
:1050700081959109DF91CF911F910F910895CF3FB5
:10508000DC0741F3C8010E942219C817D90710F79D
:105090008EEF9FEFEFCFB0E0A0E0E1E5F8E20C94F7
:1050A000712A6B018A017901B9010E94B127E601D9
:1050B0000C0D1D1DC017D10711F097FF08C024E982
:1050C0002093BC00CDB7DEB7E8E00C948D2AB70181
:1050D00089910E941D28EECFB0E0A0E0E2E7F8E25F
:1050E0000C94712AC62F6A017901B8010E94B12778
:1050F00097FD0CC0B8018C2F0E941D28E601EC0C16
:10510000FD1CCE15DF0511F097FF08C024E92093A0
:10511000BC00CDB7DEB7E8E00C948D2AB8018991C8
:105120000E941D28EECF84E98093BC0008958EE193
:105130004A9B02C08150E1F74A9BFECF08955A98DE
:1051400080E28A95F1F75A9A0895FC013BE03A957E
:10515000F1F798E020E080E031E040E14A95F1F796
:10516000880F4A9B02C08160232742E04A95F1F7ED
:10517000000040E14A95F1F7915079F790E19A9556
:10518000F1F799B132E03A95F1F7000040E14A9524
:10519000F1F792FB992790F992272081920F908343
:1051A0000895A1E0B0E0E7EDF8E20C94732A1982CB
:1051B0008C017C01E60EF11C0E151F0541F481E007
:1051C0009981911180E02196E6E00C948F2A0E944B
:1051D0009728CE0101960E94A528F80181938F019E
:1051E000EBCF529A5A9A089552985A9AEA9AE9E657
:1051F000F0E080818F7C808308956150770B91E08F
:1052000001C0990F6A95EAF720E031E0911108C0DA
:10521000222391F05A9A80E28A95F1F75A980895DC
:10522000492F482339F05A9A232740E24A95F1F74B
:105230009695ECCF5A98F9CF5A98EDCFFF920F93ED
:105240001F93CF93DF93EC018C01060F111DC01744
:10525000D10729F4CDB7DEB7E5E00C94902AF99098
:105260000E949F2868E08F2D0E94FD28F0CF1F929A
:105270000F920FB60F9211240F931F932F933F930A
:105280004F935F936F937F938F939F93AF93BF934E
:10529000EF93FF93CF93DF930F92CDB7DEB71982D1
:1052A0000E949728CE0101960E94A528082F0695F6
:1052B00006950695282F22952570902F9570290F19
:1052C000922F937026952695920F98279770898133
:1052D000982B09F05CC0083008F059C080E18A952D
:1052E000F1F75A9A529A82E08A95F1F700C05A98DB
:1052F00088E0089F80011124D801A050BF4F169666
:10530000ED91FC9117973097A9F060918901709108
:105310008A0114962D913C911597260F371F1196EF
:105320008D919C911297680F791F13964C9113974A
:105330008C910995F801E050FF4F6381662351F08D
:105340002091890130918A0184819581820F931F78
:105350000E941E290E949F2880E18A95F1F75A98A1
:1053600052985A9A80E18A95F1F7F801E050FF4F80
:105370006081662351F02091890130918A018181F9
:105380009281820F931F0E94D1280E9497280F902C
:10539000DF91CF91FF91EF91BF91AF919F918F914D
:1053A0007F916F915F914F913F912F911F910F913D
:1053B0000F900FBE0F901F9018950F931F93CF93D0
:1053C000DF93EC0108970CF04CC0F894529A5A986D
:1053D00085E08A95F1F700009C2F969595708C2FAB
:1053E0008570980F892F83709695969523E0CC0F42
:1053F000DD1F2A95E1F7980F8E01092B0E949F2847
:1054000000C068E0802F0E94FD2880E18A95F1F7B6
:1054100052985A9A4A9B1EC087E090E04A991CC055
:10542000FE01E050FF4F63816623F9F0209189016E
:1054300030918A0184819581820F931F0E94D12827
:10544000811113C0529A5A9A7894DF91CF911F918B
:105450000F91089500C0DECF019729F4529A5A9A0D
:10546000789480E0F2CF00C0D9CF0E94972880E2E4
:105470008A95F1F75A98529A80E18A95F1F7C050CF
:10548000DF4F6881662351F02091890130918A01B4
:1054900089819A81820F931F0E941E290E949F2852
:1054A000789481E0D2CFAA1BBB1B51E107C0AA1F91
:1054B000BB1FA617B70710F0A61BB70B881F991FB5
:1054C0005A95A9F780959095BC01CD0108952F922A
:1054D0003F924F925F926F927F928F929F92AF9284
:1054E000BF92CF92DF92EF92FF920F931F93CF93D1
:1054F000DF93CDB7DEB7CA1BDB0B0FB6F894DEBF68
:105500000FBECDBF09942A88398848885F846E848D
:105510007D848C849B84AA84B984C884DF80EE80D7
:10552000FD800C811B81AA81B981CE0FD11D0FB6E0
:10553000F894DEBF0FBECDBFED010895991B79E051
:1055400004C0991F961708F0961B881F7A95C9F713
:105550008095089597FB072E16F4009407D077FDE9
:1055600009D00E94532A07FC05D03EF490958195FE
:105570009F4F0895709561957F4F0895EE0FFF1F1F
:105580000590F491E02D0994FB01DC0102C0059027
:105590000D9241505040D8F70895FB01DC0104C042
:1055A0008D910190801921F441505040C8F7881B1B
:1055B000990B0895FB01DC0102C001900D9241504E
:1055C0005040D8F70895F999FECF92BD81BDF89A61
:1055D000992780B50895A6E1B0E044E050E00C942E
:1055E0001D2BA8E1B0E042E050E00C941D2B262FCB
:1055F000F999FECF92BD81BDF89A019700B40216C9
:1056000039F01FBA20BD0FB6F894FA9AF99A0FBE76
:1056100008950396272F0E94F82A0E94F72A252F23
:105620000E94F82A242F0C94F82A0196272F0E9412
:10563000F82A0C94F72ADC01CB01FC01F999FECF82
:1056400006C0F2BDE1BDF89A319600B40D9241500A
:105650005040B8F70895F894FFCF570F7F0F1711F8
:105660007F0F1711B20FD30F1711D010DD10E419EF
:10567000E819CA19E019EC19F019F4194F1AC41AEB
:10568000571A211A251A5B1A291A5F1A6B1A351A2A
:10569000BD1A391A6F1A3D1A731A9B1A411A771AD2
:1056A000A21A471A7D1A851A2D1A631A311A671A17
:1056B0004B1A811A911AAB1ABB1A1B1A531ACB1A1E
:1056C000D41BD41B0D1C0D1CB41C3B1C3B1C3B1CD5
:1056D000CE1C561D651D651DE71A081B0F1B141BEC
:1056E000191B1E1B231B281B2D1B321B371B3C1B8E
:1056F000D019D019D019D019D019D019D019D01962
:10570000D019202670267326762679267C267F26B9
:105710000000000100000000000000040100000083
:10572000000000010500000000000001060000006C
:105730000407000000000000080B0000000000004B
:105740000113000000000000013C0971123B096ACE
:105750001235660021007F22000700140014140196
:10576000818283E200E900EA00B500B600B700CD0F
:10577000008301CC008A01920194012102230224BA
:10578000022502260227022A02B300B4006F00702D
:10579000009F01CB019F02A002420234C6979436BB
:1057A000323331F7F6F5F400FF0100010000FFFF8E
:1057B0000000010001FF00000810182028303838D0
:0A57C0003028201810080000010036
:00000001FF
