:100000000C94AA070C94E2070C94E2070C94012AC2
:100010000C94E2070C94E2070C94E2070C94E207BC
:100020000C94E2070C94E2070C948E180C944A1876
:100030000C94D0240C94E2070C94E2070C94E20791
:100040000C94E2070C94E2070C94E2070C94E2078C
:100050000C94E2070C9467190C94E2070C94E207E5
:100060000C94E2070C94E2070C94E2070C94E2076C
:100070000C94E2070C94E2070C94E2070C94E2075C
:100080000C94E2070C94E2070C94E2070C94E2074C
:100090000C94E2070C94E2070C94E2070C94E2073C
:1000A0000C94E2070C94E2070C94E20700000000B5
:1000B0001700150008001A001400000000000000DE
:1000C0000A000900070016000400000000000000FC
:1000D0000500190006001B001D00000000004C2157
:1000E0002C42282200000000000000000000000058
:1000F0001C0018000C00120013000000000000009B
:100100000B000D000E000F00310000000000000089
:1001100011001000360037001F02000000002B43C2
:100120002A4128320000000000000000000000000A
:100130006414271424141F141E0201000000000080
:100140002E022602250221142002010001000100D6
:100150003502261425143414220201000100010086
:10016000010001000100000000000000000000008C
:100170002900E30052002913160A010000000000C4
:100180000000500051004F004452010001000100E6
:100190004C0519082B041D043D0401000100010059
:1001A000000001000100000000000000000000004D
:1001B0003800260025002400240201000000000071
:1001C0002D00230022002100310201000100010066
:1001D000270020001F001E00370001000100010061
:1001E000000001000100000000000000000000000D
:1001F000640064022D143802370201000000000080
:100200002214230227022D02360201000100010000
:1002100020143000340033002F00010001000100E1
:1002200000000100010000000000000000000000CC
:1002300001004500440043004200010000000000AE
:100240000100410040003F003E00010001000100AC
:1002500001003D003C003B003A00010001000100AC
:10026000010000000100000000000000000000008C
:1002700001007000710072007300010000000000B6
:1002800001006C006D006E006F00010001000100B4
:100290000100680069006A006B00010001000100B4
:1002A000010001000100000000000000000000004B
:1002B0000100010001000100010001000000000038
:1002C0000100010001000100010001000100010026
:1002D0000100010001000100010001000100010016
:1002E000010001000100000000000000000000000B
:1002F00001000100520001000100010000000000A7
:100300000100500051004F000100010001000100F8
:1003100001000100010001000100010001000100D5
:1003200040520100010000000000000000DA1281CC
:10033000FFD9F1DB20A4A62EAF00A0C0D30000A1FE
:10034000C8D30000AED580A83F408D142000000126
:100350000101010101010101020202020202020285
:100360000203030303030303030404040404040457
:10037000050505050506060606060707070707081B
:10038000080808090909090A0A0A0B0B0B0C0C0CCE
:100390000D0D0D0E0E0E0F0F0F1010111111121268
:1003A00013131414151516161717181819191A1AE5
:1003B0001B1B1C1D1D1E1E1F202021222223242446
:1003C000252626272829292A2B2C2D2D2E2F303182
:1003D0003232333435363738393A3B3C3D3E3F4094
:1003E0004142434445464748494A4C4D4E4F50517F
:1003F0005354555658595A5B5D5E5F616264656639
:1004000068696B6C6D6F7072737577787A7B7D7EBF
:100410008082838587888A8C8E8F91939596989A0F
:100420009C9EA0A2A3A5A7A9ABADAFB1B3B5B7BA27
:10043000BCBEC0C2C4C6C9CBCDCFD1D4D6D8DBDDFB
:10044000DFE2E4E7E9EBEEF0F3F5F8FAFDFF00AFE9
:1004500000AE00000000000000000000000000806E
:1004600080C0E0F07078383C1C1E0E0E0E070707A7
:10047000070707070707070707070707070E0E0EF7
:100480001E1C3C387870F0E0C08080000000000046
:10049000000000000000000000000000000000005C
:1004A000000000000000000000000000000000004C
:1004B000000000000000000000000000000000003C
:1004C000000000000000000000000000000000002C
:1004D000000000000000000000C0E0F07C3E1F0FA4
:1004E00007030180C0E0F078383C1C1E0E0E0707A1
:1004F00087E77F1FFFFF1F7FE78707070E0E1E1C82
:100500003C3878F0E0C0800103070F1F3E7CF0E02C
:10051000C00000000000000000000000000000001B
:1005200000000000000000000000000000000000CB
:1005300000000000000000000000000000000000BB
:1005400000000000000000000000000000000000AB
:10055000000000000000F0FCFF1F07010000C0F0D9
:10056000FCFEFFF7F3B1B03030303030303078FE81
:1005700087010000FFFF00000187FE783030303037
:10058000303030B0B1F3F7FFFEFCF0C000000107DF
:100590001FFFFCF000000000000000000000000051
:1005A000000000000000000000000000000000004B
:1005B000000000000000000000000000000000003B
:1005C000000000000000000000000000000000002B
:1005D0000000000000FFFFFF0000000000FEFFFF22
:1005E0000101071E78E181838386868C8C9898B1FF
:1005F000B7FEF8E0FFFFE0F8FEB7B198988C8C8664
:1006000086838381E1781E070101FFFFFE00000061
:100610000000FFFFFF00000000FFFF0000C0C0302F
:10062000300000F0F0000000000000F0F00000F0EA
:10063000F0C0C030303030C0C000003030F3F300C4
:100640000000000000303030303030C0C00000000A
:100650000000000000FFFFFF00000000007FFFFF20
:100660008080E0781E8781C1C16161313119198DA7
:10067000ED7F1F07FFFF071F7FED8D1919313161D6
:1006800061C1C181871E78E08080FFFF7F0000008C
:100690000000FFFFFF000000003F3F03030C0C3091
:1006A00030000000003333333333330F0F00003F8B
:1006B0003F0000000000000000000030303F3F30ED
:1006C0003000000C0C3333333333333F3F00000032
:1006D0000000000000000F3FFFF8E0800000030F63
:1006E0003F7FFFEFCF8D0D0C0C0C0C0C0C0C1E7F04
:1006F000E1800000FFFF000080E17F1E0C0C0C0C6D
:100700000C0C0C0D8DCFEFFF7F3F0F03000080E03E
:10071000F8FF3F0F00000000000000000000000094
:1007200000000000000000000000000000000000C9
:1007300000000000000000000000000000000000B9
:1007400000000000000000000000000000000000A9
:1007500000000000000000000003070F3E7CF8F0DE
:10076000E0C0800103070F1E1C3C38787070E0E089
:10077000E1E7FEF8FFFFF8FEE7E1E0E070707838AF
:100780003C1C1E0F07030180C0E0F0F87C3E0F0701
:100790000300000000000000000000000000000056
:1007A0000000000000000000000000000000000049
:1007B0000000000000000000000000000000000039
:1007C0000000000000000000000000000000000029
:1007D0000000000000000000000000000000000118
:1007E0000103070F0E1E1C3C3878707070E0E0E0CB
:1007F000E0E0E0E0E0E0E0E0E0E0E0E0E070707049
:1008000078383C1C1E0E0F07030101000000000099
:1008100000000000000000000000000000000000D8
:1008200000000000000000000000000000000000C8
:1008300000000000000000000000000000000000B8
:1008400000000000000000000000000000000000A8
:10085000000020202020202020005343524C434BF6
:10086000200020202020202020004341504C434BDA
:10087000200020202020202020004E554D4C434BAE
:100880002000556E646566696E65640A0041646A9D
:100890007573740A0046756E6374696F6E0A00534F
:1008A000796D0A004E61760A00436F6C656D616B6D
:1008B0002D44480A0044766F72616B0A0051574517
:1008C0005254590A004C617965723A20007265767B
:1008D000310A0A004B797269612000808182838429
:1008E00085868788898A8B8C8D8E8F909192939440
:1008F000A0A1A2A3A4A5A6A7A8A9AAABACADAEAF80
:10090000B0B1B2B3B4C0C1C2C3C4C5C6C7C8C9CAF6
:10091000CBCCCDCECFD0D1D2D3D40005010980A18C
:1009200001850319012AB700150126B70095017545
:10093000108100C0050C0901A101850419012AA03C
:1009400002150126A002950175108100C00501095C
:1009500006A101050719E029E7150025019508758D
:100960000181029501750881010507190029FF150C
:100970000026FF0095067508810005081901290564
:1009800015002501950575019102950175039101E9
:10099000C009023B00020100A0FA090400000103A3
:1009A0000101000921110100012244000705810312
:1009B00008000109040100010300000009211101E0
:1009C000000122320007058203200001120100020B
:1009D000000000081D8D9D9D00010102000116030D
:1009E0004B00790072006900610020007200650010
:1009F0007600310000001803730070006C0069007D
:100A000074006B0062002E0063006F006D00000038
:100A10000403090407087F0807003E5B4F5B3E00A4
:100A20003E6B4F6B3E001C3E7C3E1C00183C7E3CE7
:100A300018001C577D571C001C5E7F5E1C000018B0
:100A40003C180000FFE7C3E7FF000018241800006F
:100A5000FFE7DBE7FF0030483A060E002629792938
:100A60002600407F05050700407F05253F005A3CD2
:100A7000E73C5A007F3E1C1C0800081C1C3E7F00FF
:100A800014227F2214005F5F005F5F0006097F0170
:100A90007F00006689956A0060606060600094A2D3
:100AA000FFA2940008047E04080010207E2010009D
:100AB00008082A1C0800081C2A0808001E1010102C
:100AC00010000C1E0C1E0C0030383E383000060E94
:100AD0003E0E060000000000000000005F00000065
:100AE000000700070000147F147F1400242A7F2AC7
:100AF0001200231308646200364956205000000893
:100B000007030000001C224100000041221C0000DD
:100B10002A1C7F1C2A0008083E080800008070304C
:100B200000000808080808000000606000002010AD
:100B3000080402003E5149453E0000427F4000004B
:100B40007249494946002141494D33001814127F2A
:100B500010002745454539003C4A494931004121AB
:100B600011090700364949493600464949291E00FE
:100B700000001400000000403400000000081422AF
:100B8000410014141414140000412214080002013E
:100B9000590906003E415D594E007C1211127C003D
:100BA0007F49494936003E41414122007F41414150
:100BB0003E007F49494941007F09090901003E4142
:100BC000415173007F0808087F0000417F41000009
:100BD0002040413F01007F08142241007F404040F7
:100BE00040007F021C027F007F0408107F003E410E
:100BF00041413E007F09090906003E4151215E0046
:100C00007F091929460026494949320003017F011D
:100C100003003F4040403F001F2040201F003F4056
:100C200038403F0063140814630003047804030091
:100C30006159494D4300007F4141410002040810C1
:100C40002000004141417F000402010204004040B5
:100C50004040400000030708000020545478400042
:100C60007F28444438003844444428003844442809
:100C70007F0038545454180000087E09020018A45C
:100C8000A49C78007F080404780000447D400000A4
:100C90002040403D00007F102844000000417F407C
:100CA00000007C04780478007C0804047800384450
:100CB00044443800FC182424180018242418FC008C
:100CC0007C080404080048545454240004043F449D
:100CD00024003C4040207C001C2040201C003C4064
:100CE00030403C004428102844004C9090907C00F8
:100CF0004464544C44000008364100000000770072
:100D000000000041360800000201020402003C26F7
:100D100023263C00000000000000404040F0F8F8AE
:100D2000FF38FFF8F83FF8F8FF38FFF8F8F04040D8
:100D30004000000000000080C0C0C0800000C0C0B3
:100D40008000000080C0C000C0C0000080C0C000A3
:100D500000000000C0C0C0C0C000C0C00000000053
:100D60000000000000000000000000000000000083
:100D70000000000000000000000000000000000073
:100D80000000000000000000000000000000000063
:100D9000000000C0F0F8FC3E1E06010000007F418C
:100DA00041417F007F4141417F000080C0E07E5B88
:100DB0004F5BFEC00000C000DCD7DEDEDED7DC000B
:100DC000C000000000000000000000000000000063
:100DD00000000000000000000000494949FFFFFF3B
:100DE000FFE0DFBFBF00BFBFDFE0FFFFFFFF4949FC
:100DF0004900000000001F3F6060E0BF1F007F7FD0
:100E0000071E381E077F7F007F7F0E1F3B7160002B
:100E1000000000007F7F0C0C0C007E7E007F7E03B4
:100E200003007F7E03037E7E03037F7E000F3E7000
:100E30003C063C703E0F00327B49493F7E007F7E7E
:100E40000303001E3F69696F2600000000000000D8
:100E5000000000030F1F3F3C7870600000007F41DE
:100E600041417F007F4141417F00307B7F783020CE
:100E70002030787F3B0003000F7F0F0F0F7F0F00A4
:100E8000030000000000000000000000000000005F
:100E900000000000000000000000010101070F0F2A
:100EA0007F0F7F0F0F7E0F0F7F0F7F0F0F07010147
:100EB000010000000000000000000001010000002F
:100EC0000000000000000000000000000000000022
:100ED0000000000000000000000000000000000012
:100EE0000000000000000000000000000000000002
:100EF00000000000000000000000000000000000F2
:100F000000000000000000000000000000000000E1
:100F100000000000000000000000000000000000D1
:100F200000000000000000000000000000000000C1
:100F300000000000000000000000000000000000B1
:100F400000000000000000000000000000000000A1
:100F50000000000011241FBECFEFDAE0DEBFCDBFDE
:100F600004B603FE18C08091620790916307A091B8
:100F70006407B09165078730904BA740B04B59F498
:100F8000109262071092630710926407109265072F
:100F9000E0E0F8E3099511E0A0E0B1E0E0E3F9E575
:100FA00002C005900D92AA3BB107D9F727E0AAEB42
:100FB000B1E001C01D92A236B207E1F70E94F7240A
:100FC0000C943B2C0C940000482F209153039091DB
:100FD0001A0357E0291302C080E0089530E0529FC1
:100FE000F001539FF00D1124E55EFC4F81816813E1
:100FF00006C08081481303C085818111EECF2F5F29
:101000003F4F2770E7CFE8EDF0E080818E7F80834F
:101010001092E2001092DA001092E100A0EEB0E02F
:101020008C9181608C9380818F77808319BCA7ED30
:10103000B0E08C918E7F8C9380818F7E8083109224
:10104000030308952091E4003091E50095E6A9019D
:101050002091EC00822F817020FF06C08091E80073
:1010600080FF06C080E008952091E80022FD1AC0AC
:1010700080911003882389F0853089F08091EB00FE
:1010800085FD0FC02091E4003091E5004217530721
:10109000F9F29150E1F684E0089582E0089583E04A
:1010A000089581E008958091120387FF13C0809115
:1010B000E80082FF06C08091E8008B778093E8000B
:1010C00004C0809110038111F2CF08958091100324
:1010D0008823D9F38091E80080FFF8CF8091E80061
:1010E0008E77ECCF982F9093E900242F762F50E045
:1010F000891731F07091EC002091ED005091F000D3
:1011000021FD07C09F5F973071F78093E90081E070
:1011100008953091EB003E7F3093EB003091ED006D
:101120003D7F3093ED003091EB0031603093EB0068
:101130007093EC002093ED005093F0002091EE00AE
:1011400027FDE0CF80E00895B0E0A0E0EAEAF8E013
:101150000C943B2BC8EDD0E088818F7E8883E7ED2F
:10116000F0E080818160808384E082BF81E08093B1
:10117000030388818E7F888302EE10E0F8011082DD
:101180001092DA0081EEC82ED12CF60110828881EF
:101190008F77888388818068888388818F7D888322
:1011A00019BC109210031092110310920F031092A9
:1011B0000E0390EEE92EF12CF70180818B7F808366
:1011C00088818160888342E060E080E00E9472084C
:1011D000F60180818E7F8083F80180818160808329
:1011E000808188608083F70180818E7F8083888101
:1011F00080618883CDB7DEB7E8E00C94572BFC0103
:10120000809118039091190386179707A0F0611534
:10121000710529F49091E8009E779093E80090E0A2
:101220006115710551F4911108C08091E80082FFA9
:1012300034C080E00895BC01F2CF80911003882370
:10124000C1F18530C1F18091E80083FD30C080910B
:10125000E80082FDEACF8091E80080FFE1CF809135
:10126000F3002091F200382F6115710519F0283034
:10127000310558F091E02830310509F090E02091D7
:10128000E8002E772093E800CBCF81918093F10086
:10129000615071092F5F3F4FE7CF80911003882382
:1012A00041F0853041F08091E80083FFBECF81E0BE
:1012B000089582E0089583E00895089580910503DC
:1012C00008952FB7F8946091FF0270910003809108
:1012D0000103909102032FBF08959C01FC013296F7
:1012E0009FEF80E04191461751F09F3F19F4411163
:1012F00001C0982F8F5F8630A9F79F3F09F40895AA
:10130000290F311D97FD3A95F90162830895A3E0F5
:10131000B0E0EDE8F9E00C94412B2091FC02309113
:10132000FD0228173907A1F09093FD028093FC027B
:10133000E091FA02F091FB02309751F024E029830A
:101340009B838A830680F781E02DCE010196099563
:101350002396E2E00C945D2BA3E0B0E0E2EBF9E031
:101360000C94412B2091F8023091F902281739078B
:10137000A1F09093F9028093F802E091FA02F091C3
:10138000FB02309751F023E029839B838A830680F8
:10139000F781E02DCE01019609952396E2E00C94A9
:1013A0005D2BFC01680F791F8FEF91E3219182275C
:1013B00028E030E087FF09C0880F892721503109D4
:1013C000C9F7E617F70791F70895880FF7CFFA01E5
:1013D000811101C0FB01099508958091A202982F07
:1013E0009E7F39F48091A202817082608093A20274
:1013F00008958430B8F7089580E00895F894E82FB0
:10140000E295EF70F0E031A1282F2F7081E090E09D
:1014100001C0880F2A95EAF7982F9095932391A3FE
:1014200092A1892B82A3789408959091460292FF0D
:1014300010C041E0282F2471243009F040E031E051
:10144000282F2871283009F030E0431711F02CE0E4
:10145000822793FF10C041E0282F2471243109F026
:1014600040E031E0282F2871283109F030E043179F
:1014700011F02CE082273091470230FF10C051E07C
:10148000282F2171213009F050E041E0282F2871E8
:10149000283009F040E0541711F029E0822731FF8D
:1014A00010C041E0282F2171213109F040E031E0E6
:1014B000282F2871283109F030E0431711F029E076
:1014C000822794FD877E089582389105B9F1B0F4A2
:1014D0008133910509F47DC048F48932910509F4FE
:1014E0006DC08A32910509F47BC00895853391055A
:1014F00009F45FC08933910509F10895833E910590
:10150000D9F138F4803E910529F1823E910579F1B7
:101510000895863E9105D9F1873E910509F43EC0B4
:10152000843E910541F52091470221FF24C080911E
:10153000460284FD19C087EE90E00895209146028E
:10154000237009F05AC02091470223FF14C089E29A
:1015500090E008952091460220FD38C03091470266
:1015600030FF09C024FF43C090E080E0089520913F
:10157000460222FDF7CF08952091460222FD3AC08F
:101580003091470230FD39C024FFF5CFEDCF2091D7
:10159000460223FFF0CF24FDE7CFCDCF20914602B6
:1015A00023FD2EC03091470231FFEECF84EE90E054
:1015B00008952091460225FFDECFC9CF2091460233
:1015C00025FD21C02091470223FFD5CF89E390E07C
:1015D000D2CF2091460226FFCECF8AE290E0089536
:1015E0002091460226FFC7CF81E390E0089583EE65
:1015F00090E0089582EE90E0089580EE90E00895E6
:1016000086EE90E0089585E390E008957830C0F488
:101610006830B0F48530B8F498E0899FF001112467
:10162000E70FF11D83E0EE0FFF1F8A95E1F7E60F4C
:10163000F11DEE0FFF1FE455FF4F85919491089522
:1016400080E090E0089581E0FCCF1F93CF93DF937B
:101650000E94640AEC01C11580E5D807F0F5C115B8
:1016600080E4D80708F09CC0C03ED10520F5CD3CF1
:10167000D10508F082C0C83AD10578F4C53AD10541
:1016800008F073C0C130D10519F1209709F1C430B9
:10169000D105F0F4D0E0C0E01BC0C33CD105D0F7C9
:1016A000C85AD0E0CC0FDD1FCD5ADE4F0990D8814B
:1016B000C02DD4640DC0C11580E2D80708F0D1C098
:1016C000C11581E0D80708F05AC0C83ED10510F70F
:1016D000CE01DF91CF911F910895C03682E5D807E2
:1016E00018F5C03482E5D80708F06BC0C03282E537
:1016F000D80708F05FC0C11582E5D80708F497C085
:101700002C2F2695269580E2289F900111248C2F5E
:101710008370C1E0D0E002C0CC0FDD1F8A95E2F7F4
:10172000C22BD32BDD68D4CFC03A82E5D80760F452
:10173000C03882E5D80708F459C0CF71D0E0DC2F5B
:10174000CC27C46FD06AC4CFC03C82E5D80708F468
:1017500062C0C03E82E5D80708F09CCFDC2FCC27C2
:10176000CC27DF71C06FD06AB3CFC55AD0E0C05B61
:10177000DE4FC881D0E0D064ABCFD065A9CF8D2F2C
:101780000E94150A182FCE0199270E94640AC12FC2
:10179000D0E0DC2FCC27CC27DF71C82BD92B98CFFA
:1017A000CE0199270E94640ACC27DF70C82BD92B61
:1017B000D06A8ECFCF71D0E0DC2FCC27C16FD06A3A
:1017C00087CF2C2F26952695277080E2289F9001A1
:1017D00011248C2F8370C1E0D0E002C0CC0FDD1F3C
:1017E0008A95E2F7C22BD32BDC6872CF2C2F26957B
:1017F0002695277080E2289F900111248C2F8370FA
:10180000C1E0D0E002C0CC0FDD1F8A95E2F7C22B09
:10181000D32BDA685DCF8C2F8F710E94150AC82FE9
:10182000D0E0DC2FCC27CC27DF71D06251CF8C2FBA
:101830008F710E94150A55E0D695C7955A95E1F724
:10184000CF70D0E0DC2FCC27282F30E084FF05C0FC
:1018500044E0220F331F4A95E1F7C22BD32BD06906
:1018600037CF8D2F8F710E94150A182FCE0199271F
:101870000E94640AC12FD0E0DC2FCC27CC27DF7177
:10188000C82BD92BD2CF80959091F80198239093B3
:10189000F80108958091530390911A03981301C0A1
:1018A00008958F5F8770FACFB0E0A0E0EAE5FCE032
:1018B0000C943A2B7C010091AC021091AD02809106
:1018C000AA029091AB02082B192BCFE0D0E0CC24D8
:1018D000C394D12CBC2EC6010C2E02C0880F991FB8
:1018E0000A94E2F780239123892B49F4219790F7FA
:1018F000B12C8B2DCDB7DEB7E9E00C94562BB70198
:101900008C2F0E94060B0E94250B019779F3F1CFD3
:10191000CF93DF93EC010E94540CBE010E94060B92
:101920000E94250BDF91CF910895983070F5883093
:1019300060F528E0929FF0011124E80FF11D6E2F51
:10194000677083E0F695E7958A95E1F7EE0FFF1F44
:10195000EE0FFF1FEA53FE4F50E040E080E0219180
:1019600030E0062E02C0369527950A94E2F72170E2
:101970003327042E01C0220F0A94EAF7822B4F5F0F
:101980005F4F4430510559F7089580E0089598302D
:1019900090F5883080F528E0929FF0011124E80F3F
:1019A000F11D2E2F277041E001C0440F2A95EAF760
:1019B00083E0F695E7958A95E1F7EE0FFF1FEE0FAE
:1019C000FF1FEA53FE4F30E020E070E05191DF014D
:1019D0001197CB01022E02C0969587950A94E2F7E3
:1019E000817081958527842385278C932F5F3F4FB6
:1019F0002430310559F708959093AD028093AC02DD
:101A0000089521E030E002C0220F331F8A95E2F7EB
:101A1000209530958091AC029091AD028223932362
:101A20000E94FC0C08959091ED018095892380938C
:101A3000ED01282F277069F4891759F0909147021A
:101A400092FF07C08695869586950E94010D10929B
:101A5000ED01089521E030E002C0220F331F8A9586
:101A6000E2F78091AC029091AD02822B932B0E9401
:101A7000FC0C08959093AB028093AA020895FC0198
:101A800024812223C1F0808191810E94880C92954B
:101A90009F70963091F058F4925F9F70923058F496
:101AA000803F19F030F4883E30F481E008959A5F69
:101AB000F4CF843FD1F380E00895883EB0F3813FB6
:101AC000D1F7F3CFA6E0B0E0E8E6FDE00C94402BC0
:101AD00049835A8349815A819923A1F0222391F0A5
:101AE000CA010E94540C182F682F89819A810E9484
:101AF000C70C69817A81812F0E94060B2696E3E04C
:101B00000C945C2BCA010E94950C182FF2CFCF9336
:101B1000DF93C0916007D09161078A30C1F42091B2
:101B20005703CE018A559340622F70E00E941D2B0F
:101B3000281B822F66E00E94682BC82FC15018F422
:101B4000DF91CF91089580E20E94870DF7CF8D300D
:101B5000E9F4CA55D34020915703622F70E0CE01BB
:101B60000E941D2B281B822F9E01280F311D21153D
:101B7000344018F080E0D0E0C0E0C80FD11DC65A54
:101B8000DC4FD0936107C0936007DACF96E0FE0187
:101B9000AAE5B7E001900D929A95E1F7803E08F42E
:101BA00058C086E0FE0111928A95E9F7C09160075E
:101BB000D091610746E050E0BE018AE597E00E94BF
:101BC000CD2B9E012A553340892B41F1C90146E0B6
:101BD000969587954A95E1F741E050E0BA0102C039
:101BE000660F771F8A95E2F7CB01609158037091D9
:101BF0005903862B972BB9016B5F7F4FE6E07695F3
:101C00006795EA95E1F702C0440F551F6A95E2F720
:101C1000842B952B90935903809358032A5F3F4F51
:101C200040915703642F70E0C9010E941D2B481B8F
:101C3000463010F4240F311D211574E0370710F0E1
:101C400030E020E0265A3C4F309361072093600734
:101C500077CFF6E08F9FB00111246C5E754F46E0A0
:101C600050E0CE010E94C42BA1CFCF93DF93EC01B3
:101C7000FE018491811103C0DF91CF9108950E94EC
:101C8000870D2196F5CF8091F8019091F701892B6E
:101C90008093BC019091F601992391F0892B809358
:101CA000BC0120E08EEB91E0FC013191CF013111BC
:101CB0002F5FF1E0843C9F07B9F721111092F601E4
:101CC00048E050E06EEE71E08CEB91E00E94CD2B8D
:101CD000892BA9F088E0ECEBF1E0AEEEB1E00190E9
:101CE0000D928A95E1F7E091FA02F091FB023097AC
:101CF00031F00280F381E02D8CEB91E0099508959D
:101D00001092F801EEEBF1E086E0DF011D928A957A
:101D1000E9F790E080E00E94AC0990E080E00E944A
:101D200087091092F7010E94430E0895AAE2B0E0DD
:101D3000ECE9FEE00C94402B82E193E02091F1006D
:101D4000FC012193CF01F3E08A319F07B9F780911D
:101D50001303833009F470C0B8F4813009F447C02C
:101D6000823009F4B1C08091E80083FF7EC2809187
:101D70001203909113039A3008F077C2E92FF0E034
:101D8000E35CF34D0C94882B8A3009F48CC08B30C3
:101D900009F46FC0893039F780911203813219F745
:101DA00080911603909117030297E8F68091E8005E
:101DB000877F8093E8008091E80082FF38C090918F
:101DC000F3008091F200029731F48091F1008130AC
:101DD00011F0863021F48091F10080930503809109
:101DE000E8008B778093E8000E945308BCCF809175
:101DF0001203813A09F0B7CF8091E800877F809382
:101E0000E8008091160390911703892B61F468E034
:101E100086E093E070E00E94FF088091E8008B77F5
:101E20008093E800A0CF60E090E080E0F3CF809165
:101E300010038111C0CF97CF80911203813A09F02E
:101E400092CF8091160390911703892B09F08BCFC5
:101E50008091E800877F8093E8008091E80080FF10
:101E6000FCCF80914F018093F1008091E8008E7744
:101E7000B9CF80911203813209F075CF809116039A
:101E800090911703892B09F06ECF8091E800877F2E
:101E90008093E8000E9453088091140380934F01BF
:101EA0000E94800E60CF80911203813209F05BCFD7
:101EB0008091E800877F8093E8000E94530880911A
:101EC0001503809304034FCF80911203813A09F0E8
:101ED0004ACF8091E800877F8093E8008091E800F6
:101EE00080FFFCCF80910403BECF803899F0823808
:101EF00009F0BBC1809116038F70873008F0B5C11F
:101F00008093E9008091EB0085FB882780F910928F
:101F1000E90006C080910E0390910F039111826039
:101F20009091E800977F9093E8008093F1001092E1
:101F3000F1008091E8008E7794C1882309F482C172
:101F4000823009F092C180911403811185C1809182
:101F500016038F702FEF280F263008F086C180936C
:101F6000E9002091EB0020FF77C1933031F480919C
:101F7000EB0080628093EB006FC19091EB00906169
:101F80009093EB0021E030E001C0220F8A95EAF740
:101F90002093EA001092EA008091EB008860EACF7B
:101FA000811163C1109114031F778091E300807841
:101FB000812B8093E3008091E800877F8093E80085
:101FC0000E9453088091E80080FFFCCF8091E300DD
:101FD00080688093E30082E0111183E08093100316
:101FE00044C18058823008F040C180911403909120
:101FF00015038C3D23E09207A1F583E08A838AE2F2
:1020000089834FB7F894DE01139620E03EE051E259
:10201000E32FF0E050935700E49120FF03C0E295D6
:10202000EF703F5FEF708E2F90E0EA30C0F0C79600
:102030008D939D932F5F243159F74FBF8091E80016
:10204000877F8093E8006AE270E0CE0101960E94EB
:10205000FF088091E8008B778093E80006C1C09666
:10206000E7CF4091160350911703292F33272330D0
:10207000310509F444C078F52130310509F46FC009
:102080008BE390E0E1E9F9E02230310509F0EDC0A1
:102090002091E800277F2093E800209118033091D9
:1020A00019038217930708F49C0140E021153105BC
:1020B00009F064C0411162C08091E80082FDC9CF7F
:1020C00080911003882329F2853019F28091E8006D
:1020D00083FFF2CFBECF21323105A9F12232310583
:1020E00009F0C3C04115510509F443C04130510501
:1020F00009F0BBC082E390E0EBE1F9E0C9CF99279A
:1021000081309105C1F0009759F0029709F0ADC0F8
:10211000EEEDF9E0E4918E2F90E0EEEDF9E007C0EE
:10212000E0E1FAE0E4918E2F90E0E0E1FAE0009740
:1021300009F49BC0ADCFE6EFF9E0E4918E2F90E07B
:10214000E6EFF9E0F4CF4115510571F0413051054A
:1021500009F08BC089E090E0ECEBF9E099CF82E1E7
:1021600090E0ECECF9E094CF89E090E0E3EAF9E06C
:102170008FCF84E490E0EDE4F9E08ACF8091100302
:10218000882309F466CF853009F463CF8091E80095
:1021900083FD5FCF8091E80082FD8ECF8091E800C3
:1021A00080FF84CF9091F3008091F20021153105DA
:1021B00019F08830910550F041E0089709F040E0AF
:1021C0008091E8008E778093E80070CF449140932F
:1021D000F1003196215031090196E8CF803809F09D
:1021E00044C08091E800877F8093E80080911103CC
:1021F0008093F1009ECE811138C0109114031230EB
:10220000A0F58091E800877F8093E8001093110388
:102210000E945308112311F084E005C08091E3006F
:1022200087FDFACF81E08093100342E061EC81E00A
:102230000E94720842E261EC82E00E947208809182
:10224000100313C080911403813079F481E093303E
:1022500009F080E080930F031092E9008091E8007C
:10226000877F8093E8000E9453088091E80083FFF5
:102270000AC08091E800877F8093E8008091EB009E
:1022800080628093EB00AA96E3E00C945C2B882399
:1022900021F00E94430C0E94430E0895882339F0D8
:1022A0009091F801982B9093F8010E94430E0895A5
:1022B000882391F19CEF980F913A80F4EEEBF1E0D6
:1022C00024EC31E09191891303C0DF0111971C9236
:1022D0002E173F07B9F70E94430E089590E2980F1A
:1022E000983050F4877091E001C0990F8A95EAF711
:1022F000892F0E94430CEFCF9BE5980F933028F471
:1023000090E080E00E94AC090895885A8B3120F457
:1023100090E080E00E9487090895CF93C82F88231A
:10232000B1F08CEF8C0F813A00F5EEEBF1E084EC2C
:1023300091E0DF012D91C21761F08A179B07D1F759
:102340006C2F8CEB91E00E946D090E94430ECF919F
:1023500008952191C21303C0DF0111971C928E17BB
:102360009F07B9F70E94430EEBCF80E28C0F8830B5
:1023700068F4C77021E030E001C0220FCA95EAF787
:102380008091F801822B8093F801DFCFEBE5EC0F11
:10239000E33040F4F0E0E05BFE4F808190E00E948B
:1023A000AC09D5CFC85ACB3190F6EC2FF0E0EE0F48
:1023B000FF1FED5AFE4F808191810E948709C7CF90
:1023C0000F931F93CF93DF938B01EA01909110033A
:1023D000943061F58093E9008FEF9091E80081508F
:1023E00095FD06C095ED9A95F1F700008111F5CFA6
:1023F0008091E80085FF1AC00E942208811111C057
:102400008091E80085FD06C08091E8008E7780937A
:10241000E800F2CFF80181918F018093F1002197BC
:1024200079F78091E8008E778093E800DF91CF9173
:102430001F910F91089543E050E0BC0182E00E949B
:10244000E0110895CF93DF93EC0148E050E0BC0128
:1024500081E00E94E01188E0FE01A6E0B3E0019077
:102460000D928A95E1F7DF91CF9108956091440133
:102470008091A20280FF20C08091430143E0849FAD
:10248000C00111248A599D4F539A2BB1277F3BB12C
:1024900038605FB7F894FC01649FE00DF11D1124D2
:1024A000BF0168177907D1F45FBF8FE594E001970A
:1024B000F1F700C000000895809145019091460118
:1024C00023E0829FF0011124EA59FD4F8917A0F6FD
:1024D0001182108212828F5F3396F8CFFC014191F6
:1024E000CF01E8E03BB9000000C047FF2BB9440F23
:1024F000000000C000C000C02BB900C0EA9591F7F1
:10250000D0CFB0E0A0E0E7E8F2E10C94392B7C01F9
:102510005B016A018091350201E010E08A3010F41D
:102520000AE010E0C1E0D0E0B501C701F60109956D
:10253000811104C021960C171D072CF4CDB7DEB70E
:10254000EAE00C94552BCC9F9001CD9F300D300DBF
:10255000112490E080E045E34A95F1F700000196F0
:1025600082179307C1F7E0CF80910502811110C057
:102570008091D80080618093D8008AE18A95F1F734
:1025800000C08091D90080FF0AC081E080930502DD
:1025900081E090910502913009F080E0089582E099
:1025A000809305020E94030810921003F1CF0E944D
:1025B000B412882359F0E091FA02F091FB023097AF
:1025C00029F00190F081E02D0995089580E00895AB
:1025D0000F931F930E94B412882329F00E9461096F
:1025E0001F910F9108950E94610900913602109188
:1025F00037022091380230913902600F711F821F1B
:10260000931FEECF0E94E81208951F93CF93DF939C
:10261000182FEB010E948D11209739F4812F0E9411
:102620005811DF91CF911F9108958FE99FE0019795
:10263000F1F700C000002197EFCF81110CC070E0CE
:10264000662331F060E089EA0E94051381E0089575
:1026500060E08AEAF9CF8130C9F770E0662319F0AB
:1026600060E08EE4F1CF60E08BE4EECF0E94800E5C
:102670002FEF84E39CE0215080409040E1F700C0C0
:10268000000088E19CE00FB6F894A8958093600064
:102690000FBE90936000FFCFB0E0A0E0E2E5F3E171
:1026A0000C943B2B6C017B0164E670E088E70E9490
:1026B0007B288C01E601EC0CFD1C17FD0BC0FE0114
:1026C000849164E670E00E94E7288C012196CE1583
:1026D000DF0599F70E945D2981E00115110509F0D8
:1026E00080E0CDB7DEB7E8E00C94572B8091F40280
:1026F0009091F702911103C091E0892708958823F2
:1027000069F062E070E080E594E00E944C13811172
:1027100003C08091F40208951092F4028091F402B3
:10272000EBCFCF93C091F4028091F7028823D1F0D0
:102730000E946109605A75418F4F9F4F6093F0026C
:102740007093F1028093F2029093F302C11108C0DA
:1027500062E070E08EE494E00E944C13811105C0A9
:10276000C091F4028C2FCF91089581E08093F40200
:10277000F7CFB0E0A0E0EFEBF3E10C94372B490189
:102780005A016B017C010E94ED098401A4016A2DAC
:102790007B2D88E090E00E94192C94014A2D5B2D3E
:1027A000B601C70100E20E94A92B622F84E290E0EB
:1027B0000E94072CCDB7DEB7ECE00C94532BB0E0B1
:1027C000A0E0E5EEF3E10C94372BD82FC62F142FA1
:1027D000822E0091A20200FF4EC08091A3028D13B1
:1027E00008C08091A402861304C08091A5028417BA
:1027F00029F080916502826080936502E02FE69562
:10280000F0E0E955FE4F808180936302802F8E7F38
:102810008230D1F4E12FF0E0E25BFC4FC11130C017
:102820002491F22FE22F00FF0FC08091450190917B
:10283000460133E0839FD0011124AA59BD4F891767
:1028400008F493C00E943612D093A302C093A4024E
:102850001093A502882079F02091A2026091A6022F
:102860007091A7023D2F4C2F512F8091A80290917B
:10287000A9020E94B913CDB7DEB7ECE00C94532B3C
:10288000EC2EF12CE4919E2ECE2ED12C26E0D29F60
:10289000C00111242FEF30E0B9010E941D2B8D2FB4
:1028A00090E0880F991FF5E5F69FA001F79F500D66
:1028B0001124841B950BB82EBB0CB80EA9014E1920
:1028C0005F094C9DC0014D9D900D5C9D900D1124A4
:1028D000F92FCB9DA0011124452F5527D901A41B09
:1028E000B50BAC9DA001AD9D500DBC9D500D1124AC
:1028F000D901AB19B1095D01AE9CD001AF9CB00DFF
:10290000BE9CB00D1124AB2FBB272A1B3B0B2C9D6B
:10291000D0012D9DB00D3C9DB00D11242B2F6230A8
:102920007105A1F050F46115710509F47CCF613097
:10293000710581F0292FF52F76CF6430710569F08C
:1029400080F06630710509F46ECFF4CF2E2FE92F99
:10295000FB2F69CF2E2FE52F66CF292FFE2FEB2FD0
:1029600062CFE92FF92D252F5ECF1196EC931197A9
:102970002C931296FC9312978F5F139660CFE2EA26
:10298000F2E0438121E1421B08F440E021E0628152
:1029900081810E94DF130895E2EAF2E0438121E1A0
:1029A000420F08F44FEF21E0628181810E94DF1322
:1029B0000895E2EAF2E0628121E1621B08F460E03E
:1029C00021E0438181810E94DF130895E2EAF2E071
:1029D000628121E1620F08F46FEF21E04381818180
:1029E0000E94DF130895E2EAF2E0818121E0438151
:1029F000628188500E94DF130895E2EAF2E081814B
:102A000021E043816281885F0E94DF1308958091F5
:102A1000A602882319F081508093A6022091A20279
:102A20003091A3024091A4025091A5026091A602A8
:102A30007091A7028091A8029091A9020E94B913F7
:102A400008958091A602833018F48F5F8093A602C8
:102A50002091A2023091A3024091A4025091A502BC
:102A60006091A6027091A7028091A8029091A9029C
:102A70000E94B91308952091A20220FF24C0217062
:102A800022602093A202809165028160809365029A
:102A9000662381F03091A3024091A4025091A502D7
:102AA0006091A6027091A7028091A8029091A9025C
:102AB0000E94B91320E04091A5026091A402809188
:102AC000A3020E94DF1308958091A202869581508F
:102AD00009F481E061E00E943B15089561E081E026
:102AE0000E943B150895E2EAF2E083E080831182C0
:102AF0008FEF828383831482A3E6B2E012968C91D7
:102B00001297836012968C93758123E030E04FEF2B
:102B10005FEF60E0868197810E94B9130895A4E079
:102B2000B0E0E5E9F5E10C94402B40912902509189
:102B30002A0260912B0270912C022FB7F894809199
:102B4000FF0290910003A0910103B09102032FBFF7
:102B5000841B950BA60BB70B11E084369105A105DC
:102B6000B10570F10E94E8126E5F7F4F8F4F9F4F4B
:102B700069837A838B839C838091210190912201C8
:102B80008E5E9D4F4091200150E04530510510F080
:102B900044E050E0BE016F5F7F4F0E94DA2B84E07B
:102BA00090E00E94A72A182F882351F00E94610903
:102BB0006093290270932A0280932B0290932C0237
:102BC000812F2496E3E00C945C2B4F925F926F92DE
:102BD0007F928F929F92AF92BF92EF92FF920F934C
:102BE0001F93CF93DF937B01FB0140805180628074
:102BF00073809FB7F8948090FF0290900003A0909C
:102C00000103B09002039FBF84189508A608B70877
:102C1000F4E68F169104A104B10418F4C1E0442332
:102C200029F1C82F880FDD0BFE0183E0EE0FFF1F97
:102C30008A95E1F7E050FF4F818192818E5E9D4F32
:102C4000408150E00417150708F4A801B9010E945B
:102C5000DA2BCE010E94A72AC82F882339F00E94C0
:102C60006109F70160837183828393838C2FDF91E5
:102C7000CF911F910F91FF90EF90BF90AF909F90D9
:102C80008F907F906F905F904F900895A1E0B0E09B
:102C9000ECE4F6E10C943F2B8091F40289832091BF
:102CA000280290E041E02817190609F440E001E00D
:102CB00010E09E012F5F3F4F61E372E086E00E94CB
:102CC000E5152196E4E00C945B2BABE0B0E0EBE67D
:102CD000F6E10C943F2B88E0E2EAF2E0DE01119687
:102CE00001900D928A95E1F78091630290916402C0
:102CF000A091650289879A87AB8741E08B85811116
:102D000001C040E00BE010E09E012F5F3F4F6DE2FD
:102D100072E085E00E94E5158111109265022B9604
:102D2000E4E00C945B2B4F925F927F928F929F9284
:102D3000AF92BF92CF92DF92EF92FF920F931F93C9
:102D4000CF93DF930F92CDB7DEB7C62E4A0159015C
:102D5000482E880F5508C2010E94A72A782E882382
:102D600009F480C0C20133E0880F991F3A95E1F75A
:102D7000FC01E050FF4F438150E04115510511F037
:102D800041E050E080509F4FFC01648175816E5E90
:102D90007D4FCE0101960E94DA2BF40140815181D2
:102DA000628173812FB7F8948091FF0290910003A4
:102DB000A0910103B09102032FBF841B950BA60BBA
:102DC000B70B84369105A105B10540F4B701C801E0
:102DD0000E94D1099981891709F444C00C2C000C78
:102DE000DD08C6010E94A72A782E811113C0712C1C
:102DF000872D0F90DF91CF911F910F91FF90EF9052
:102E0000DF90CF90BF90AF909F908F907F905F901A
:102E10004F900895C60123E0880F991F2A95E1F786
:102E2000FC01E050FF4F438150E0E416F50608F442
:102E3000A70180509F4FFC01648175816E5E7D4FBC
:102E4000C5010E94DA2BB701C8010E94D1099981FE
:102E50008913CDCF0E946109F4016083718382835D
:102E60009383C6CFA701B801C5010E94DA2BC0CF5A
:102E7000A1E0B0E0EEE3F7E10C943A2BEE24E3940A
:102E8000F12C08E112E09E012F5F3F4F4EE052E02F
:102E900063E082E00E949316C82E882339F100E097
:102EA00080E01DC0D0903B02D00E2D2D30E0A90156
:102EB000465A5D4F7A01E1E0F0E0EC0FFD1FE00FB4
:102EC000F11D1081FA019081191BB12E1B149CF089
:102ED000912F17FD90E0191B111118C00F5F9091F1
:102EE0003A020917F8F281110E9402138C2D2196E3
:102EF000E9E00C94562BBA94F70180818F5F8083B0
:102F000060E08D2D0E941D138C2DE0CF1F5FF70117
:102F100080818150808361E08D2D0E941D138C2D56
:102F2000DBCFA4E0B0E0E7E9F7E10C943B2B6B01C9
:102F300084E0E82EF12C03E112E09E012F5F3F4F69
:102F40004AE052E061E080E00E949316882361F03D
:102F500049815A816B817C8140930602509307021C
:102F60006093080270930902409106025091070293
:102F70006091080270910902F601408351836283D7
:102F800073832496E8E00C94572BA8E0B0E0EBECB8
:102F9000F7E10C94412B66EE7EEF90E080E00E941A
:102FA000252C60E082E090E00E94072C60E083E046
:102FB00090E00E94072C1092AB021092AA0260E0EF
:102FC00074E184E090E00E94252C60E086E090E0CF
:102FD0000E94072C6FEF87E090E00E94072C40E0F2
:102FE00050E0BA0188E090E00E94192C60E084E291
:102FF00090E00E94072C60E087E190E00E94072C9F
:1030000060E08CE090E00E94072C60E08DE090E0B2
:103010000E94072C19821A821B821C821D821E822A
:103020001F82188648E050E068E170E0CE0101960A
:103030000E94F72B40E050E0BA0180E290E00E944D
:10304000192C40E050E0BA018FE090E00E94192C6A
:1030500040E050E0BA0183E190E00E94192C2896EC
:10306000E2E00C945D2B9091470292FB222720F91D
:10307000281779F080FB92F99093470260914602FD
:103080007091470284E090E00E94252C82E00E942B
:10309000130D08951F920F920FB60F9211242F93C4
:1030A0003F934F935F936F937F938F939F93AF93D0
:1030B000BF93CF93DF93EF93FF93D091E900DF703D
:1030C0008091EC00C82FC17080FDC0E81092E9002B
:1030D0008091F000877F8093F00078940E94960E94
:1030E0001092E9008091F00088608093F000CD2B71
:1030F000CF70C093E900FF91EF91DF91CF91BF9125
:10310000AF919F918F917F916F915F914F913F917F
:103110002F910F900FBE0F901F9018951F920F9236
:103120000FB60F9211242F933F934F935F936F939A
:103130007F938F939F93AF93BF93EF93FF93809170
:10314000E10082FF09C08091E20082FF05C080910A
:10315000E1008B7F8093E1008091DA0080FF24C042
:103160008091D80080FF20C08091DA008E7F80930C
:10317000DA008091D90080FF9DC080E189BD82E1A5
:1031800089BD09B400FEFDCF81E0809310038091DA
:103190000303811109C00E9403080E94A4088091C2
:1031A000E20084608093E2008091E10080FF17C01C
:1031B0008091E20080FF13C08091E2008E7F8093B7
:1031C000E2008091E20080618093E2008091D8006B
:1031D00080628093D80019BC85E0809310038091B1
:1031E000E10084FF2BC08091E20084FF27C080E1D2
:1031F00089BD82E189BD89B5982F917080FFFBCF91
:103200008091D8008F7D8093D8008091E1008F7EDF
:103210008093E1008091E2008F7E8093E2008091B4
:10322000E20081608093E20080911103882309F419
:1032300047C084E080931003809110038091E100E7
:1032400083FF27C08091E20083FF23C08091E100CB
:10325000877F8093E10082E0809310031092110336
:103260008091E1008E7F8093E1008091E2008E7F6B
:103270008093E2008091E20080618093E20042E06E
:1032800060E080E00E9472088091F0008860809386
:10329000F000FF91EF91BF91AF919F918F917F913E
:1032A0006F915F914F913F912F910F900FBE0F90B3
:1032B0001F90189519BC109210031092030374CF3D
:1032C0008091E30087FD93E090931003B5CF78944D
:1032D0001F921FB61F9211248F939F93AF93BF939A
:1032E0008091FF0290910003A0910103B09102032D
:1032F0000196A11DB11D8093FF0290930003A0933E
:103300000103B0930203BF91AF919F918F911F90E2
:103310001FBE1F9018959C014FB7F8948091FF0233
:1033200090910003A0910103B09102034FBF821B53
:10333000930B08952FB7F8948091FF0290910003AA
:10334000A0910103B09102032FBF08950F931F9323
:10335000CF93DF93C62FD42F022FFC0185818823C2
:10336000A9F0609356030E949A1990935503809395
:103370005403C77081E001C0880FCA95EAF70E9424
:103380004E11DF91CF911F910F91089580915603B7
:10339000681334C080915403909155030E948B1997
:1033A000883C910558F510E21D0FCD17B9F080E269
:1033B0008C0F883040F4C77081E001C0880FCA9537
:1033C000EAF70E944711183048F481E09D2F97706A
:1033D00001C0880F9A95EAF70E944E1170E060E0F4
:1033E000802F0E940513183060F6D77081E001C06D
:1033F000880FDA95EAF70E944711C3CFC77081E0C2
:1034000001C0880FCA95EAF7F6CFB0E0A0E0EBE084
:10341000FAE10C94392B8C01FC018481882341F161
:1034200021E0408151816281738195810E94620D0A
:10343000EC01FC01E851FC47E730F105A8F5E95B38
:10344000F34D0C94882B26E241EE61EEC8010E94F8
:10345000A6198091ED01877059F0F80185818823C4
:1034600039F08091470282FF03C082E00E94130D71
:10347000CDB7DEB7EAE00C94552B27E245EE65EEBA
:10348000E5CF26E241EE60EEE1CF27E245EE64EEC5
:10349000DDCF26E241EE62EED9CF27E245EE66EEC1
:1034A000D5CF28E241E0EBCFF8018581882309F4EC
:1034B000F1C310925603CE019057839708F0D4C3FE
:1034C00084E090E00E94F12B9093470280934602A3
:1034D000FE01E150F047E232F10520F4E25BF34DEA
:1034E0000C94882B8091460281608093460295C09F
:1034F000809147028860809347028FC08091460286
:103500008260F3CF809146028460EFCF80914602C3
:103510008860EBCF809147028160EDCF80914702B8
:103520008260E9CF809146028061DFCF80914602C0
:103530008062DBCF809146028064D7CF0E94800EEC
:10354000809146028068D1CF809146028C60CDCFB9
:10355000809147028360CFCF809146028E7FC5CF96
:1035600080914702877FC7CF809146028D7FBDCF74
:10357000809146028B7FB9CF80914602877FB5CF7D
:10358000809147028E7FB7CF809147028D7FB3CF66
:10359000809146028F7EA9CF809146028F7DA5CF74
:1035A000809146028F7BA1CF0E94800E80914602BF
:1035B0008F779BCF80914602837F97CF8091470280
:1035C0008C7F99CF8091460282FB992790F921E068
:1035D000922790FB82F990FB83F987CF8091470275
:1035E000982F909591708E7F892B90FB81F983CFD6
:1035F00090914602892F8F7B96FF806476CF0E9440
:10360000800E90914602892F97FB87F980586DCFE5
:1036100061E08EE090E00E94072C6091460270917C
:10362000470284E090E00E94252C0E94800E11CF7A
:1036300060E0EFCF90914602892F8F7E94FF8061EA
:1036400054CF90914602892F8E7F90FF81604DCF9D
:1036500090914702892F877F93FF88604CCF85E345
:1036600022C38091A20280FF1CC0282F2E7F2093AE
:10367000A2023091A3024091A4025091A502609150
:10368000A6027091A7028091A8029091A9020E94BF
:10369000B913809165028160809365020E943612A1
:1036A000D8CE81608093A20261E086950E943B158E
:1036B000D0CE44E655E16EE675E10E94E709C9CE39
:1036C0004EE655E164E675E1F8CF43EF54E16DEF66
:1036D00074E1F3CF4DEF54E163EF74E1EECF49EDC8
:1036E00054E166EE74E1E9CF46EE54E169ED74E130
:1036F000E4CF4FEB54E16CEC74E1DFCF4CEC54E1E0
:103700006FEB74E1DACF47E055E161E275E1D5CFC7
:1037100041E255E167E075E1D0CF61E081E0C6CFDD
:103720000E94800EFFEF24E33CE0F1502040304047
:10373000E1F700C0000081E08093E00080E2809328
:10374000D8001092C9008FE19EE40197F1F700C004
:10375000000087E090EBDC018093620790936307A1
:10376000A0936407B093650788E19CE00FB6F894D6
:10377000A895809360000FBE90936000FFCF6FEF1D
:103780007FEF90E080E00E94252C0E94361380910C
:10379000470282FB882780F991E089270E9433182D
:1037A000F8018581C081D181882309F44AC0CE0106
:1037B0000E94540CF82E682FCE010E94C70CBE0147
:1037C0008F2D0E94060B0E94250BD82FC92FA82EE3
:1037D000F801C580B680B2943FE0B3228091ED013C
:1037E0008770F1F0EC2CCC20E1F0892F807F8034C1
:1037F00051F080E28D0F883098F0B11004C0892F0D
:10380000807E803269F08091470282FF09C082E0A9
:103810000E94130D8091ED018770EE24E3948111D5
:10382000E12CDC2ED2942FE0D222FBE0FD1508F42F
:103830006DC0ED2DF0E0E059F34D0C94882B80E045
:10384000ADCFCE010E94950CF82EB9CF2C2F2F7042
:10385000F22EC07F19F0F29490EFF922CC20B9F04B
:10386000FF2069F080E28D0F883010F0A11009C0B0
:103870008091F801F82AF092F8010E94430E8D2FF2
:1038800043C08091F701F82AF092F701F6CF8D2F0F
:103890000E945811FF20D1F1D05ED83010F0A11055
:1038A00004C08F2D0E94430C06C0F0948091F70154
:1038B000F822F092F7010E94430E28C03C2F3F707F
:1038C000F32EC07FC03219F0F29480EFF822AA20C4
:1038D00059F081E0A81609F479C0CC2009F485C01C
:1038E000BB2009F447C0CBCF8091470282FD3EC088
:1038F000CC20B1F1FF2039F08091F801F82AF09244
:10390000F8010E94430E80E00E948D112D2D285059
:10391000330B2430310510F40E94D712EE20A9F0A9
:103920008091ED0180FD11C0F80115828695869584
:1039300086950E942A0DC8010E94051A8091ED010A
:103940008695869586950E94010D20E0F8014081BC
:10395000518162817381848195810E94620D88CD3D
:1039600080E00E945811FF2089F29BCFCC20A1F06B
:10397000B11004C08F2D0E944E11C8CF91E0B91232
:10398000C5CF8091F6019F2D9823F91609F4BECF7B
:10399000F82AF092F601BACFB110B8CF8F2D0E945D
:1039A00047119091F6018F2D892329F08F2D809555
:1039B00089238093F6018091C5019F2D982309F4F6
:1039C000A5CFF094F822F092C501A0CFCC2029F029
:1039D000E5E0EB1508F49ACFCDCFF4E0FB1508F441
:1039E00095CF8F2D0E94471191CFBB20D1F329E3B2
:1039F000A21209C03FEF87EE93E031508040904023
:103A0000E1F700C000008D2F0E9458117FCF8C2F4E
:103A100086958695837069F0813009F077CF8D2F78
:103A20009C2F9370C11002C080E090E00E94870933
:103A30006DCF8D2F9C2F9370C11002C080E090E05D
:103A40000E94AC0963CF8C2F837009F03FC0C11076
:103A50005DCF4D2F429546954770440F440F2D2F53
:103A60002F7030E0042E02C0220F331F0A94E2F7B9
:103A700090E080E0D4FF09C08FE090E002C0880FA2
:103A8000991F4A95E2F780959095C695C695C370A3
:103A9000C23099F078F44091AA025091AB02C13043
:103AA00039F0822B932B842395230E943A0D2ECF3D
:103AB000242B352B822B932BF8CF822B932B209109
:103AC000AA023091AB0282279327EFCF8695CC20B4
:103AD00011F08C2F8170882309F418CF4D2F429557
:103AE00046954770440F440F2D2F2F7030E0042E61
:103AF00002C0220F331F0A94E2F790E080E0D4FF67
:103B000009C08FE090E002C0880F991F4A95E2F744
:103B100080959095C695C695C370C23099F078F49B
:103B20004091AC025091AD02C13039F0822B932B01
:103B3000842395230E94FC0CE9CE242B352B822B69
:103B4000932BF8CF822B932B2091AC023091AD02B6
:103B500082279327EFCFCF70CC2029F08C2F0E94A3
:103B60002A0D8D2F08CF8D2F0E9447118C2F0E9478
:103B7000010DCCCE8D2FE2EFAE1699F1EA1570F063
:103B8000F0EFAF16D1F021EFA21691F0CC2009F49E
:103B90005BC0B11074CE8C2F8F7127C033EFA3168A
:103BA00039F194EFA912F2CF8091470282FD2EC025
:103BB0008C2F8F71CC20D9F218C0CC2069F0E4E0B2
:103BC000EB1508F4A3CECF7181E090E002C0880F1E
:103BD000991FCA95E2F7B8CFF5E0FB1508F496CE29
:103BE000F2CF8C2F8F71C110C2CF0E942A0D8ECEC2
:103BF00090E080E0CC2009F49DCFCF7181E090E08F
:103C000002C0880F991FCA95E2F794CFCC2089F0A3
:103C1000CF718C2F0E942A0D8091470282FF07C02E
:103C200028E0C29FC001112483608093ED018C2F96
:103C3000DCCF81E00E94130D31E03B1508F066CE29
:103C400082E00E94130D62CEBB2059F0893309F047
:103C5000DACE8FEF97EEE3E081509040E040E1F75D
:103C6000D0CE8C2F8F7183CFC631FCE7DF0749F5AB
:103C70008091F8018A7A91E009F490E09093C40170
:103C800069E2811165E38CEB91E00E946D090E946D
:103C9000430EDFCBC6312CE7D20799F58091C401E2
:103CA0008111DDCC89E2EEEBF1E024EC31E0919181
:103CB000891303C0DF0111971C922E173F07B9F734
:103CC000E6CFC3303CE7D30709F459CD50F4C11512
:103CD0009CE7D90709F424CDC130DC4709F455CD60
:103CE0005FCDCB35FCE7DF0709F4A9CDCC352CE758
:103CF000D20709F44CCDCA35DC4709F051CD81E03B
:103D00004DCD8091F8018272FE01E052F847E53115
:103D1000F10508F045CDE458F34D0C94882BCF9372
:103D2000DF938091EC01807F09F04DC08091EB0121
:103D3000882309F448C0E091530350911A03C091BD
:103D4000E701D091E6016091E8017091E90147E057
:103D50005E17C9F18E2F90E0E49FF0011124E55E1B
:103D6000FC4F2481222391F1489FF001499FF00DDF
:103D70001124DF01A55EBC4F11962C9111972C13D5
:103D800025C02C912D1322C015962C911597211129
:103D90001DC012962D913C91261B370B283C3105F6
:103DA000A8F48091EC018F7080618093EC01EF5D4D
:103DB000FC4F80818F708061808386EE91E00E944D
:103DC000051A0E944A0CDF91CF910895FC013196AB
:103DD000E770BECFA4E1B0E0E0EFFEE10C94372B3A
:103DE0008C0186E0F801DE011F9601900D928A9504
:103DF000E1F7F8018481E58096EEA92E91E0B92ED5
:103E00009091EA01911128C0882319F1EE20F1F078
:103E1000C8010E943F0DF82E8823C1F087E0F80109
:103E2000D50101900D928A95E1F78091EA018130E8
:103E300031F48091E6019091E7010E94880C0E9484
:103E40008F1E8F2D6496ECE00C94532BC8010E94BA
:103E5000051AFF24F394F5CFD080C180828093802F
:103E6000F090EB012091E8013091E901A401421B9F
:103E7000530BFF2009F4D9C0483C510508F092C00B
:103E80008823F9F29091E7018091EC01282F207F9F
:103E900009F056C0C91214C09091E601D91210C0A1
:103EA000E11048C08F7080618093EC0186EE91E054
:103EB0000E94051A8091EC01F8018683F12CC1CF94
:103EC000E11038C06C2D8D2D0E94E4076C2D8D2DD6
:103ED0000E94E407E82E8111F1CFDF86C88A8F8522
:103EE00098890E94880C292F22952F70243058F42D
:103EF0009F70223088F0992399F0F8019681907F85
:103F000079F4FE2C9ECF2A5F2F70223068F0C80112
:103F10000E94051AEF2CF5CF992311F0882389F31D
:103F2000805E883070F3F3CF803F58F3815F833039
:103F300070F7E7CF8091EC0181608093EC01BECFF8
:103F4000C91207C09091E601D91203C0EE2009F40E
:103F50008DC0C8010E943F0D882309F477CFEE2061
:103F600009F474CF8091EC01803288F02091E60151
:103F70003091E701398728879B868A869091EA01EC
:103F80009C871D868E87CE0108960E94051A87E0C1
:103F9000F801A6EEB1E001900D928A95E1F70E943A
:103FA0008F1E57CF9091EC01292F207F51F486EE80
:103FB00091E00E94051A87E0F50111928A95E9F7D0
:103FC0007DCF882309F43DCF8091E7018C1110C08B
:103FD0008091E601D8120CC0E1100AC09683C80196
:103FE0000E94051A87E0F50111928A95E9F729CF19
:103FF000C8010E943F0D882309F428CFEE2009F460
:1040000025CF8091EC01803210F22091E6013091B1
:10401000E7013A8329839C828B829091EA019D83F8
:104020001E828F83CE010196B0CF483C5105D0F659
:10403000882309F40ECFFE2CEE2009F407CF8091DF
:10404000E7018C1120C08091E601D8121CC080913C
:10405000EC0180FD0FC0982F907F61F08683903F28
:1040600031F0982F907F905F8F70892B8683C801E5
:104070000E94051A87E0F801A6EEB1E001900D92CA
:104080008A95E1F7DECEC8010E943F0D81117FCFF6
:104090008091EC0181608093EC01C8010E94051AB7
:1040A000D0CEABE1B0E0E7E5F0E20C943F2B4E8BD5
:1040B0005F8B688F798F8A8F9B8F192F9111109248
:1040C000F7011D8A86E0FE017696DE011F960190BB
:1040D0000D928A95E1F70A8D002341F021E04F858A
:1040E000588969897A89C8010E94620D0B8B1C8BE3
:1040F00087E0FE013F96DE01189601900D928A95A9
:10410000E1F7CE0108960E94EA1E81112AC087E0DD
:10411000FE013896DE01119601900D928A95E1F725
:104120008C858823F1F020911A0330E0C9010196B3
:10413000877099274091530348171906E9F097E0D3
:10414000929FD001939FB00D1124A55EBC4FFE013C
:10415000319601900D929A95E1F780931A030E948F
:104160004A0C17E08091530390911A03891312C0EF
:104170006B96E4E00C945B2B0E94800E10921A0365
:104180001092530387E0E6EEF1E0DF011D928A957D
:10419000E9F7E7CF819FC0011124855E9C4F0E9403
:1041A000EA1E882329F38091530390E001968770DB
:1041B000992780935303D6CF2F923F925F926F92AD
:1041C0007F928F929F92AF92BF92CF92DF92EF92A7
:1041D000FF920F931F93CF93DF938091F702882371
:1041E00009F49EC08091F5029091F6020E948B190D
:1041F000C29708F475C00E949A199093F6028093B2
:10420000F5028AE593E090936107809360070E942E
:10421000B412882309F4A8C08BED98E00E94350EF3
:1042200084ED98E00E94350E8DEC98E00E94350EEA
:1042300085EC98E00E94350E8091AC029091AD0221
:104240002091AA023091AB02822B932B292F332786
:10425000E0E02115310511F0C901E8E09C01D4E04E
:1042600036952795DA95E1F72115310511F0EC5FC8
:10427000C9019C013695279536952795211531055D
:1042800011F0EE5FC90196958795892B09F0EF5FD4
:1042900082E898E0E73038F4F0E0EF56F34D0C9404
:1042A000882B8DEB98E00E94350E0E94D712C82F04
:1042B00082E798E0C0FF02C08AE798E00E94350ECE
:1042C00082E698E0C1FF02C08AE698E00E94350EBF
:1042D00082E598E0C2FF02C08AE598E00E94350EB0
:1042E0008091580390915903892B09F07BC08091EC
:1042F000F4028823A9F00E9461090091F002109154
:10430000F1022091F2023091F302601B710B820BDB
:10431000930B6F3F7F4F8F4F9F4710F40E94761390
:10432000DF91CF911F910F91FF90EF90DF90CF9091
:10433000BF90AF909F908F907F906F905F903F90D5
:104340002F90089585EB98E0AECF89EA98E0ABCF47
:1043500084EA98E0A8CF8FE998E0A5CF85E998E0B6
:10436000A2CF8DE898E09FCF809160079091610780
:104370008A5593409C013C5F21303440B0F020E0EE
:1043800034E0281B390B4091580350915903E2E562
:10439000F4E0280F391FC1E0D0E08217930740F006
:1043A00050935903409358039BCF20E034E0EBCF68
:1043B0006491DC01A65ABC4F7C91671781F06C9325
:1043C000BC01A6E076956795AA95E1F7DE0102C0EB
:1043D000AA0FBB1F6A95E2F7BD014A2B572B019626
:1043E0003196DBCF8091F702882309F480CF80914A
:1043F000EF0281117CCF0E949113209158033091DC
:1044000059032115310509F472CF80E041E050E0F5
:10441000082F10E01A01082E02C0220C331C0A9447
:10442000E2F7B10162237323672B11F48F5FF0CFA2
:104430009091EE0290FF95C0880F880F880F8093AF
:104440004A0110924D01895F80934B0187E0809370
:104450004E0124E630E047E050E068E471E088E790
:104460000E941529892B09F042CFA80126E0440FAC
:10447000551F2A95E1F78091EE0280FF83C0EEEA96
:10448000F2E080E4EF0119928A95E9F7A1EBB1E03F
:1044900009EA11E089EBC82E81E0D82E97E0592E69
:1044A000772473948D91F80121918F01240F352F7A
:1044B000311D265A3C4FE82FF0E0E255FD4F90E0C9
:1044C00080E0652C681A872C082E01C0880C0A949D
:1044D000EAF77901A12CE701B9907E01B820662D99
:1044E0006A196770962E062E000C770BDB2D01C023
:1044F000DD0F9A94EAF771956195710967707727D6
:1045000001C0B6946A95EAF7BD2A6081962E9B2871
:104510009082A39468E0A612DECF0196319688308F
:10452000910579F6CA16DB0609F0BCCF04E610E067
:1045300020E430E04EEA52E060E488E70E94362949
:10454000892B09F0D4CEE101C095D0958091580314
:1045500090915903C823D923D0935903C09358038A
:10456000C6CE8295880F880F807480934A01980187
:104570003695279520934D01815C80934B012093C4
:104580004E0167CF465A5C4F04E610E020E430E06D
:10459000D3CFA3E1B0E0EFECF2E20C94362B8E0126
:1045A000045F1F4F88E0D8011D928A95E9F78BE8D8
:1045B000C82E81E0D82EF12CE12CAA24A394B12C92
:1045C00027E9822E21E0922EF60181916F018F3F23
:1045D00009F442C0F894E82FE295EF70F0E021A1D1
:1045E0008F70A50102C0440F551F8A95E2F7CA01DA
:1045F000922F982B91A392A18095892382A37894DE
:1046000000C0EFE8F1E0712C31E021912F3F09F477
:104610006BC0A22FA295AF70B0E090968C9190E005
:104620002F7002C0959587952A95E2F780FD5CC0B2
:10463000832F782A330F8E169F0639F7F6013197AC
:1046400080818F3F11F00E94FE0950EA5A95F1F7E0
:10465000F801EE0DFF1D70828FEFE81AF80AA4E052
:10466000EA16F10409F0B0CF48E050E0B8018CE35D
:1046700092E00E94CD2B009741F028E0F801ACE3D6
:10468000B2E001900D922A95E1F700914502892B45
:1046900069F181E08093FD010E949A199093FC01D9
:1046A0008093FB018091FB019091FC010E948B198A
:1046B000059700F110E0075B1D4F44E050E06CE30C
:1046C00072E0C8010E94CD2BF12C892B51F084E0BF
:1046D000ECE3F2E0D80101900D928A95E1F7FF2416
:1046E000F3941092FD0107C080E0A3CF8091FD01FB
:1046F0008111D8CFF12C0E94B412E82EE09145022E
:10470000882309F494C019821A821B821C820E2FFE
:1047100010E0075B1D4F809135028A3008F051C0D0
:1047200041E957E1BE016F5F7F4FC8010E948112CE
:10473000882309F46BC048E357E1BE016F5F7F4FE8
:10474000C8010E948112882309F460C04FE855E136
:10475000BE016F5F7F4FC8010E948112882309F458
:1047600055C045E656E1BE016F5F7F4FC8010E940C
:104770008112882309F44AC046E456E1BE016F5F06
:104780007F4FC8010E948112882309F43FC0109214
:1047900035028091440290E044E050E0BE016F5F3A
:1047A0007F4F875B9D4F0E94CD2B21E02093040219
:1047B000892BF1F4E12C8E2D8F296396EDE00C947A
:1047C000522B8091FE019091FF010E948B19843F32
:1047D000914008F0A5CF80910402882359F384E02A
:1047E000FE013196DF011D928A95E9F710920402CD
:1047F000E0914402F0E0E75BFD4F89819A81AB8153
:10480000BC8180839183A283B383D5CF809135020D
:104810008F3F31F08F5F809335028A3008F4B9CF33
:104820000E949A199093FF018093FE01D4CFF0E08B
:10483000E75BFD4F84E0A3E1B2E001900D928A9521
:10484000E1F764E070E083E192E00E94D109809397
:10485000120240915F0250E060915E0270E0665A81
:104860007D4FCE0101960E94DA2B89818093180238
:1048700061E070E0CE0101960E94D1098093170299
:104880008090190290901A02A0901B02B0901C0216
:104890008091000290910102A0910202B091030266
:1048A00088169906AA06BB06D1F080920002909263
:1048B0000102A0920202B09203020E94B41281117E
:1048C0000EC00E946109861A970AA80AB90A809246
:1048D000360290923702A0923802B09239028BE0F1
:1048E000EDE1F2E0DE01119601900D928A95E1F77B
:1048F0002981822F86950A81DB80CC801B851092CE
:1049000027021123A1F010FF0AC09091A20220FFFC
:1049100015C091609093A20260E00E943B1511FFC8
:1049200006C020E04C2D6D2D802F0E94DF1380915A
:104930002802882371F00E9491133DCF9E7F9093AF
:10494000A202809165028160809365020E94361206
:10495000E6CF0E9476132FCFA6E0B0E0E2EBF4E2C0
:104960000C943F2B0E949A198C018091F90190912F
:10497000FA018017910781F019821A820E949A1910
:10498000682F49815A81792F80E090E00E94512060
:104990001093FA010093F9012696E4E00C945B2B46
:1049A0001F921FB61F9211248F939F93AF93BF93B3
:1049B0008091FE02811113C08091FF02909100034B
:1049C000A0910103B09102034196A11DB11D8093F6
:1049D000FF0290930003A0930103B0930203BF91E1
:1049E000AF919F918F911F901FBE1F90189500D07F
:1049F00000D000D0CDB7DEB785B7806885BF85B75A
:104A0000806885BF84B7877F84BF0FB6F894A89568
:104A100080916000886180936000109260000FBEFA
:104A200080E890E00FB6F894809361009093610065
:104A30000FBE8CEF99E09093BB018093BA010E9466
:104A400003080E94A4088091E20084608093E20041
:104A50007894809110038823A1F01091E9001F70D1
:104A60009091EC00892F817090FD80E8182B1092B6
:104A7000E9008091E80083FD0E94960E1F7010935C
:104A8000E90082E084BD93E095BD9AEF97BD8093E5
:104A90006E00109236021092370210923802109275
:104AA00039020E94B4128093380180913801882322
:104AB00009F461C0109243018AE0809344010E948E
:104AC000B41281110E94BB299091380181E098278E
:104AD00090935E02282F291B20933B02909138016E
:104AE00080935F029091380180933A02809138015F
:104AF000811106C085E38093420186E680934101DF
:104B000020914201E22FE295EF70F0E061A12F7059
:104B100081E090E0AC0101C0440F2A95EAF7342F00
:104B20003095362331A322A1242B22A320914101C9
:104B3000E22FE295EF70F0E031A12F7001C0880FF5
:104B40002A95EAF7982F9095932391A392A1892B08
:104B500082A38FE891E00197F1F700C00000109167
:104B60005F0260E672E042E451E081E4E82E81E019
:104B7000F82EFB012CC08AE0809343019ECFDA011E
:104B80002D91AD01822F82958F7090E0DC0190967F
:104B90008C9190E02F7002C0959587952A95E2F749
:104BA0008170D7019D917D01292F22952F7030E0D2
:104BB000D90190962C9130E09F7002C035952795D1
:104BC0009A95E2F790E020FD92E0892B81938E2F59
:104BD000861B8117A0F2809138018091380194E002
:104BE000811190E09093450284E0891B80934402F8
:104BF00084E30E94FE0986EC0E94FE0987E90E9478
:104C0000FE0984E90E94FE090FE811E057E9E52E4C
:104C100051E0F52EF80181918F018F3F11F00E9434
:104C2000FE09E016F106B1F788E0E9E4F2E0DF0101
:104C3000282F1D922A95E9F7ECE3F2E0DF011D929F
:104C40008A95E9F790E080E00E94F12B863E9E4F26
:104C500011F00E94C51782E090E00E94E32B809340
:104C6000510284E090E00E94F12B909347028093E0
:104C7000460283E090E00E94E32B90E00E943A0D10
:104C800082E08093EE0280E8809357030E947528AB
:104C90006BE070E083E493E00E944C138823E9F119
:104CA0008091EE0265E070E081FD20C18EE393E02B
:104CB0000E944C13882389F16DE070E08CE293E050
:104CC0000E944C13882349F10E946109605A754182
:104CD0008F4F9F4F6093F0027093F1028093F20226
:104CE0009093F302EAE5F3E080E094E0DF019C01B9
:104CF0001D9221503040E1F7F0936107E093600787
:104D00008FEF9FEF909359038093580381E0809336
:104D1000F7028093F4021092EF0280914802811111
:104D200079C090E080E00E94F12B863E9E4F21F0FA
:104D30000E94C5170E94731588E090E00E94EB2B3B
:104D40004B015C0184E290E00E94E32B282F30E0CD
:104D500040E050E060E070E080E090E000E20E941F
:104D60008E2B282939294A295B292093A2023093C6
:104D7000A3024093A4025093A5026093A6027093ED
:104D8000A7028093A8029093A90280916502836094
:104D9000809365022E7F89F50E94731588E090E06C
:104DA0000E94EB2B6B017C0184E290E00E94E32BDC
:104DB000282F30E040E050E060E070E080E090E0DC
:104DC0000E948E2BB22FA32FF42FE52F5B019701AA
:104DD0008601BC29A12BFE29E32BB093A202A0934C
:104DE000A302F093A402E093A5026093A602B092FE
:104DF000A7028093A8029093A9020E94ED098091D6
:104E0000A20280FF04C060E086950E943B1581E00D
:104E1000809348020E94B412811102C00E94BE29F0
:104E200089E391E09093FB028093FA0228E1C22E7D
:104E3000D12C31E5A32E32E0B32E44E0842E912C08
:104E40008091100300E112E1853009F488C00E94CE
:104E5000C92202E512E099E4E92E92E0F92E2AE552
:104E600032E0D701F80191918D912E173F0709F497
:104E700080C09817C1F30E94B412282E712CD7015C
:104E80006D907D01F80131908F01361431F1512C74
:104E9000442443943624832D8421B9F02220A9F0A0
:104EA00059827A820E949A199C838B83F1E0FD8358
:104EB00091E0842D862109F490E09E8349815A81F6
:104EC0006B817C818D810E9451205394440C28E099
:104ED0005212E1CFF80131976082739438E0731277
:104EE000CECF0E94E8126624639448C089E393E021
:104EF000DFCE80911003843021F10E94761310924E
:104F0000FE0280E40FB6F894A895C09260000FBE30
:104F10008093600083B7817F846083BF83B78160A3
:104F200083BF7894889583B78E7F83BF0FB6F8943C
:104F3000A895809160008861809360001092600065
:104F40000FBE80910F03882351F00E94C922E9E42B
:104F5000F2E081918111B3C0AE16BF06D1F7809106
:104F60001003853009F4C5CF0E94800E0E94D7122D
:104F70006ECF981380CF0E94AC24612C0E94B41293
:104F8000E12C712C80915F02E81650F0772009F433
:104F900086C00E9402130E94DC200E94911383C0ED
:104FA0000E2D10E0F801EE5BFE4F8081E82FE295B8
:104FB000EF70F0E0E0A1F0E08F7002C0F595E795AA
:104FC0008A95E2F7E170D801AF5BBE4F2C91A22F1A
:104FD000A295AF70B0E090968C9190E02F7002C0D7
:104FE000959587952A95E2F780FD51C080E08E2B3C
:104FF000D801A05ABD4FEC919E2F9370891709F4E8
:1050000044C0EE0FEE0FE82BEC93F0905E02FE0C26
:10501000EF70F0E0E956FE4F045A1D4F8081D80131
:105020009C91890F8C93512C843084F0EF2DF0E00B
:10503000E65AFD4F80818F5F80830E94B412582E04
:10504000882339F160E08F2D0E941D13F8018081C3
:105050008D3F84F4EF2DF0E0E65AFD4F80818150C2
:1050600080830E94B412582E8823B1F061E08F2D06
:105070000E941D13D8018C91082E000C990BB401CD
:105080000E94742BF80180837528E3947BCF82E023
:10509000AECF55245394DACF55245394EBCF0E94CE
:1050A000DC2061107ACF0E94D7129091620289179A
:1050B00009F4C6CE809362020E946109C1CE09BD87
:1050C00019BD09B400FEFDCF8091D8008F7D80937B
:1050D000D8008091E00082608093E0008091E00041
:1050E00081FDFCCF0E94800E3ACF1092B9008CE077
:1050F0008093B8000895B0E0A0E0E1E8F8E20C94F5
:10510000382BB82EEB010E949A196C01EE24E3941F
:10511000F12CC431D10560F025E0E22EF12CCF3F17
:10512000DC0731F0CE0164E170E00E941D2B7B01B1
:1051300084EAA82E94E8992E1092BC00A092BC009C
:105140000E949A198C018091BC0087FF0DC080914C
:10515000B900887F8830F9F08091B900887F80316C
:10516000D1F00FEF1FEF08C0C8010E948B19E8169D
:10517000F90648F70EEF1FEFCF3FDC07E9F2C60153
:105180000E948B19C817D907B8F6C801CDB7DEB78A
:10519000EBE00C94542BB092BB009092BC000E94A8
:1051A0009A198C018091BC0087FF0AC08091B900D8
:1051B000887F883111F08034A1F610E000E0E5CF5F
:1051C000C8010E948B19E816F90660F7D3CF0F9338
:1051D0001F93CF93DF93EB018093BB0084E8809310
:1051E000BC000E949A198C018091BC0087FF11C0FD
:1051F0002091B900287F81E090E0283211F490E0FE
:1052000080E0919581959109DF91CF911F910F9148
:105210000895CF3FDC0741F3C8010E948B19C817DE
:10522000D90710F78EEF9FEFEFCFB0E0A0E0EBE1F2
:10523000F9E20C943B2B6B018A017901B9010E94C0
:105240007B28E6010C0D1D1DC017D10711F097FF3B
:1052500008C024E92093BC00CDB7DEB7E8E00C9489
:10526000572BB70189910E94E728EECFB0E0A0E06C
:10527000ECE3F9E20C943B2BC62F6A017901B801EB
:105280000E947B2897FD0CC0B8018C2F0E94E72854
:10529000E601EC0CFD1CCE15DF0511F097FF08C0F0
:1052A00024E92093BC00CDB7DEB7E8E00C94572B7F
:1052B000B80189910E94E728EECF84E98093BC0071
:1052C00008958EE14A9B02C08150E1F74A9BFECFD0
:1052D00008955A9880E28A95F1F75A9A0895FC0148
:1052E0003BE03A95F1F798E020E080E031E040E1E2
:1052F0004A95F1F7880F4A9B02C08160232742E05C
:105300004A95F1F7000040E14A95F1F7915079F79D
:1053100090E19A95F1F799B132E03A95F1F70000F2
:1053200040E14A95F1F792FB992790F99227208165
:10533000920F90830895A1E0B0E0E1EAF9E20C94C5
:105340003D2B19828C017C01E60EF11C0E151F0508
:1053500041F481E09981911180E02196E6E00C947E
:10536000592B0E946129CE0101960E946F29F801F4
:1053700081938F01EBCF529A5A9A089552985A9A74
:10538000EA9AE9E6F0E080818F7C8083089561509D
:10539000770B91E001C0990F6A95EAF720E031E0C0
:1053A000911108C0222391F05A9A80E28A95F1F770
:1053B0005A980895492F482339F05A9A232740E2F2
:1053C0004A95F1F79695ECCF5A98F9CF5A98EDCFC8
:1053D000FF920F931F93CF93DF93EC018C01060F85
:1053E000111DC017D10729F4CDB7DEB7E5E00C9445
:1053F0005A2BF9900E94692968E08F2D0E94C729D5
:10540000F0CF1F920F920FB60F9211240F931F939C
:105410002F933F934F935F936F937F938F939F93BC
:10542000AF93BF93EF93FF93CF93DF930F92CDB7DB
:10543000DEB719820E946129CE0101960E946F2970
:10544000082F069506950695282F22952570902FF2
:105450009570290F922F937026952695920F982775
:1054600097708981982B09F05CC0083008F059C00A
:1054700080E18A95F1F75A9A529A82E08A95F1F77B
:1054800000C05A9888E0089F80011124D801A050DC
:10549000BF4F1696ED91FC9117973097A9F0609148
:1054A000890170918A0114962D913C911597260FD0
:1054B000371F11968D919C911297680F791F139643
:1054C0004C9113978C910995F801E050FF4F63813F
:1054D000662351F02091890130918A018481958160
:1054E000820F931F0E94E8290E94692980E18A9512
:1054F000F1F75A9852985A9A80E18A95F1F7F80193
:10550000E050FF4F6081662351F020918901309176
:105510008A0181819281820F931F0E949B290E94A0
:1055200061290F90DF91CF91FF91EF91BF91AF91E2
:105530009F918F917F916F915F914F913F912F91AB
:105540001F910F910F900FBE0F901F9018950F9302
:105550001F93CF93DF93EC0108970CF04CC0F894A5
:10556000529A5A9885E08A95F1F700009C2F9695FB
:1055700095708C2F8570980F892F837096959695CE
:1055800023E0CC0FDD1F2A95E1F7980F8E01092B40
:105590000E94692900C068E0802F0E94C72980E12D
:1055A0008A95F1F752985A9A4A9B1EC087E090E07C
:1055B0004A991CC0FE01E050FF4F63816623F9F059
:1055C0002091890130918A0184819581820F931FF6
:1055D0000E949B29811113C0529A5A9A7894DF91A4
:1055E000CF911F910F91089500C0DECF019729F44C
:1055F000529A5A9A789480E0F2CF00C0D9CF0E9494
:10560000612980E28A95F1F75A98529A80E18A9549
:10561000F1F7C050DF4F6881662351F02091890176
:1056200030918A0189819A81820F931F0E94E82913
:105630000E946929789481E0D2CFAA1BBB1B51E15B
:1056400007C0AA1FBB1FA617B70710F0A61BB70BF2
:10565000881F991F5A95A9F780959095BC01CD0197
:1056600008952F923F924F925F926F927F928F9206
:105670009F92AF92BF92CF92DF92EF92FF920F93E1
:105680001F93CF93DF93CDB7DEB7CA1BDB0B0FB6EB
:10569000F894DEBF0FBECDBF09942A8839884888A8
:1056A0005F846E847D848C849B84AA84B984C8843E
:1056B000DF80EE80FD800C811B81AA81B981CE0F35
:1056C000D11D0FB6F894DEBF0FBECDBFED0108951A
:1056D000991B79E004C0991F961708F0961B881F44
:1056E0007A95C9F78095089597FB072E16F40094D4
:1056F00007D077FD09D00E941D2B07FC05D03EF492
:10570000909581959F4F0895709561957F4F08956D
:10571000EE0FFF1F0590F491E02D0994002E083044
:1057200090F0982F872F762F652F542F432F322FED
:1057300022270850F4CF220F331F441F551F661F26
:10574000771F881F991F0A95B2F7002D089597FDBE
:105750001094002E083098F00850232F342F452F36
:10576000562F672F782F892F912DF4CF1594979569
:1057700087957795679557954795379527950A9516
:10578000AAF71124002D0895FB01DC0102C0059049
:105790000D9241505040D8F70895FB01DC0104C040
:1057A0008D910190801921F441505040C8F7881B19
:1057B000990B0895FB01DC0102C001900D9241504C
:1057C0005040D8F70895F999FECF92BD81BDF89A5F
:1057D000992780B50895A6E1B0E044E050E00C942C
:1057E0002D2CA8E1B0E042E050E00C942D2CDC011F
:1057F000A40FB51F4150504048F0CB01840F951FB6
:105800002E910E94082C41505040D0F70895262F29
:10581000F999FECF92BD81BDF89A019700B40216A6
:1058200039F01FBA20BD0FB6F894FA9AF99A0FBE54
:1058300008950396272F0E94082C0E94072C252FDD
:105840000E94082C242F0C94082C0196272F0E94CC
:10585000082C0C94072CDC01CB01FC01F999FECF3C
:1058600006C0F2BDE1BDF89A319600B40D924150E8
:105870005040B8F70895F894FFCF750F9D0F35117C
:105880009D0F3511D00FF10F3511EE10FB10411A9D
:10589000451A231A3D1A491A4D1A511AAC1A211BDE
:1058A000B41A7E1A821AB81A861ABC1AC81A921A20
:1058B0001A1B961ACC1A9A1AD01AF81A9E1AD41AC7
:1058C000FF1AA41ADA1AE21A8A1AC01A8E1AC41A0D
:1058D000A81ADE1AEE1A081B181B781AB01A281B11
:1058E000261C261C5E1C5E1C071D861C861C861C36
:1058F000231DAB1DBA1DBA1D311B591B601B651B37
:105900006A1B6F1B741B791B7E1B831B881B8D1BE3
:10591000291A291A291A291A291A291A291A291A6F
:10592000291A5121A221A521A821AB21AE21B12103
:105930000000000100000000000000040100000061
:10594000000000010500000000000001060000004A
:1059500004070000000000000B0B00000000000026
:105960000116000000000000015E0922125D091B03
:1059700012356600140014140021007F2200070174
:10598000818283E200E900EA00B500B600B700CDED
:10599000008301CC008A0192019401210223022498
:1059A000022502260227022A02B300B4006F00700B
:1059B000009F01CB019F02A002120234C6979436C9
:1059C000323331F7F6F5F400FF0100010000FFFF6C
:1059D0000000010001FF000001000810182028301D
:0A59E00038383028201810080000A5
:00000001FF
